:020000040800F2
:10000000C0070020CD0100088F19000891190008D1
:1000100095190008991900089D19000800000000B2
:10002000000000000000000000000000A11900080E
:10003000A319000800000000A5190008A71900086E
:10004000E7010008E7010008E7010008E7010008F0
:10005000E7010008E7010008E7010008E7010008E0
:10006000E7010008E7010008E7010008E7010008D0
:10007000E7010008E7010008E7010008E7010008C0
:10008000E7010008E7010008E7010008E7010008B0
:10009000E7010008E7010008E7010008E7010008A0
:1000A000E7010008E7010008E7010008E701000890
:1000B000711800089F180008CB180008E701000815
:1000C000E7010008E7010008E7010008E701000870
:1000D000E701000823190008471900086B190008F8
:1000E000E7010008E7010008E7010008E701000850
:1000F000E7010008E7010008E7010008E701000840
:10010000E7010008E7010008F7180008E701000808
:10011000E7010008E7010008E70100083D180008B2
:10012000E7010008E7010008E7010008E70100080F
:1001300000F002F800F03AF80AA090E8000C8244BF
:100140008344AAF10107DA4501D100F02FF8AFF29C
:10015000090EBAE80F0013F0010F18BFFB1A43F0A5
:1001600001031847F42B0000142C0000103A24BFA0
:1001700078C878C1FAD8520724BF30C830C144BF0C
:1001800004680C607047000000230024002500264E
:10019000103A28BF78C1FBD8520728BF30C148BFEA
:1001A0000B6070471FB51FBD10B510BD02F015FBE9
:1001B0001146FFF7F7FF01F025FB02F033FB03B414
:1001C000FFF7F2FF03BC02F037FB0000094880474D
:1001D00009480047FEE7FEE7FEE7FEE7FEE7FEE729
:1001E000FEE7FEE7FEE7FEE704480549054A064B41
:1001F00070470000CF1A000831010008C00100203C
:10020000C0070020C0030020C00300203149014383
:10021000314A1160704770B5002100230F22C47865
:1002200004B32D4C246804F4E064C4F5E064210AAE
:10023000C1F10403CA40447804FA03F184781440FD
:1002400021430901254C0678A155047804F01F05C7
:100250000124AC4005786D11AD0005F1E025C5F82D
:10026000004109E0047804F01F050124AC401C4D56
:100270000678761145F8264070BD1A4A0A400243B6
:10028000154B1B1F1A60704739B1134A121D1268B3
:100290000243114B1B1D1A6006E00F4A121D126823
:1002A00082430D4B1B1D1A607047042808D14FF084
:1002B000E021096941F004014FF0E022116107E0FB
:1002C0004FF0E021096921F004014FF0E0221161B3
:1002D000704700000000FA050CED00E000E400E0CB
:1002E00080E100E080FFFF1F10B50446CC48844247
:1002F00008D10121042000F02DFB0021042000F092
:1003000029FB46E0C748844208D10121082000F0BB
:1003100021FB0021082000F01DFB3AE0C248844286
:1003200008D10121102000F015FB0021102000F061
:1003300011FB2EE0BD48844208D10121202000F0AD
:1003400009FB0021202000F005FB22E0B848844290
:1003500008D10121402000F0FDFA0021402000F0EA
:10036000F9FA16E0B348844208D10121802000F058
:10037000F1FA0021802000F0EDFA0AE0AE48844254
:1003800007D10121801500F0E5FA0021A01500F049
:10039000E1FA10BD10B50121084600F0DBFA00219A
:1003A000012000F0D7FA10BD2DE9F04102460025EA
:1003B0000026002000230024002791F803C00CF041
:1003C0000F0591F803C00CF0100CBCF1000F03D026
:1003D00091F802C04CEA050591F800C0BCF1000F8D
:1003E00031D0146800202BE04FF0010C0CFA00F320
:1003F000B1F800C00CEA03069E4220D183004FF002
:100400000F0C0CFA03F7BC4305FA03FC4CEA040496
:1004100091F803C0BCF1280F06D14FF0010C0CFA83
:1004200000FCC2F814C00AE091F803C0BCF1480F08
:1004300005D14FF0010C0CFA00FCC2F810C0401CB2
:100440000828D1D31460B1F800C0BCF1FF0F34DD2F
:10045000546800202EE000F1080C4FF0010808FA63
:100460000CF3B1F800C00CEA03069E4221D18300D0
:100470004FF00F0C0CFA03F7BC4305FA03FC4CEAEF
:10048000040491F803C0BCF1280F05D100F1080C59
:1004900008FA0CF8C2F8148091F803C0BCF1480FB8
:1004A00007D100F1080C4FF0010808FA0CF8C2F867
:1004B0001080401C0828CED35460BDE8F0814FF670
:1004C000FF710180022181700421C17070470246D2
:1004D000002093680B400BB1012000E00020704722
:1004E0000146886880B2704702460020D3680B40FE
:1004F0000BB1012000E0002070470146C86880B2BF
:10050000704701617047416170470AB1016100E0C5
:1005100041617047C16070474FF480320A43826185
:100520008161826182698269704702460020434B83
:1005300018684FF68073184040EA021008433F4B9A
:10054000186070473E49C8617047F0B50A460023FD
:1005500000240021002500F00046B6F1004F02D132
:10056000364EF16901E0354E7168C0F3034583B240
:1005700000F44016B6F5401F08D121F070612F4EEF
:10058000766826F070662D4F7E6012E000F48016CB
:10059000B6F5801F06D1032606FA05F4A14341F003
:1005A000706106E0460D360103FA06F6B14341F0EC
:1005B000706122B1460D360103FA06F6314300F0B0
:1005C0000046B6F1004F02D11C4EF16101E01B4E16
:1005D0007160F0BD30B500228B071C0F0F2303FAAA
:1005E00004F2164B08338C1053F824309343134C09
:1005F00008348D1044F8253023468C1053F82430ED
:100600008C07240F00FA04F423430C4C08348D109B
:1006100044F8253030BD0A49DC31086070470000DD
:1006200000080140000C014000100140001401408E
:1006300000180140001C0140002001400000014062
:1006400000002042DF48006840F00100DD490860FA
:1006500008464068DC490840DA49486008460068B6
:10066000DA490840D74908600846006820F480202D
:1006700008600846406820F4FE0048604FF41F0000
:1006800088607047CF49096821F48031CD4A1160F4
:100690001146096821F480211160B0F5803F03D034
:1006A000B0F5802F0ED106E0C649096841F48031CB
:1006B000C44A116007E0C349096841F4A021C14A56
:1006C000116000E000BF00BF704710B50146002276
:1006D000002300204A11012A02D1BA4C236806E007
:1006E000022A02D1B74C236A01E0B64C636A01F0DA
:1006F0001F02012494401C400CB1012000E00020A6
:1007000010BD38B5002000900024002500BF312026
:10071000FFF7DBFF05460098401C00900098B0F5FD
:10072000A06F01D0002DF2D03120FFF7CEFF08B12D
:10073000012400E00024204638BD01460020A14AE3
:10074000106820F0F80040EAC10010607047A0492E
:1007500008607047024600209A4B586820F47C10CD
:1007600042EA01031843974B58607047984908665E
:10077000704701460020934A506820F00300084368
:10078000506070478F48406800F00C007047014689
:1007900000208C4A506820F0F000084350607047F9
:1007A00001460020874A506820F4E060084350600A
:1007B000704701460020834A506820F4605040EAA8
:1007C000C1005060704729B17E4A527A02437D4B86
:1007D0005A7204E07B4A527A82437A4B5A727047CB
:1007E0007B49D8310860704701460020754A50683F
:1007F00020F440400843506070470021714A203285
:100800001170704A82F82010012802D004280AD101
:1008100004E001216B4A2032117005E00521694A8C
:100820002032117000E000BF00BF704769490860C6
:1008300070476449096A0143624A11627047654919
:1008400044390860704730B500210022002400239D
:100850005C4D6D6805F00C0121B1042905D0082913
:1008600023D105E05C4D056022E05B4D05601FE093
:10087000544D6D6805F47012524D6D6805F4803466
:10088000022505EB92421CB9544D554305600BE01F
:100890004C4D6D6805F400351DB1504D5543056054
:1008A00002E04D4D5543056002E04B4D056000BF31
:1008B00000BF444D6D6805F0F0010909484D6B5CBF
:1008C0000568DD4045603F4D6D6805F4E061090A4B
:1008D000434D6B5C4568DD4085603A4D6D6805F4BD
:1008E0006051C90A3E4D6B5C4568DD40C560354DC1
:1008F0006D6805F44041890B3A4D6B5CC568B5FBEA
:10090000F3F5056130BD29B12E4A526902432D4BE2
:100910005A6104E02B4A526982432A4B5A6170475C
:1009200029B1284A92690243264B9A6104E0254A7C
:1009300092698243234B9A61704729B1214AD26957
:100940000243204BDA6104E01E4AD26982431D4B08
:10095000DA61704729B11B4AD2680243194BDA6049
:1009600004E0184AD2688243164BDA60704729B116
:10097000144A12690243134B1A6104E0114A1269C6
:100980008243104B1A617047124940390860704722
:100990000F49C86470470B49C87170470948406ADD
:1009A00040F0807007494862704701460020054AC0
:1009B00092680A400AB1012000E000207047014916
:1009C00088727047001002400000FFF8FFFFF6FE3B
:1009D000000042428004424200127A0000093D00B9
:1009E000000000201000002010B50446FE4884429C
:1009F00008D10121C014FFF7ADFF0021E014FFF77B
:100A0000A9FFC4E0B4F1804F08D101210846FFF7E7
:100A1000AEFF00210120FFF7AAFFB8E0F3488442AF
:100A200008D101210220FFF7A2FF00210220FFF7D9
:100A30009EFFACE0EE48844208D101210420FFF77C
:100A400096FF00210420FFF792FFA0E0E9488442CE
:100A500008D101210820FFF78AFF00210820FFF7B5
:100A600086FF94E0E448844208D101211020FFF77A
:100A70007EFF00211020FFF77AFF88E0DF488442E4
:100A800008D101212020FFF772FF00212020FFF76D
:100A90006EFF7CE0DA48844208D101214014FFF760
:100AA00059FF00216014FFF755FF70E0D5488442DC
:100AB00009D10121C804FFF74DFF00214FF40020A8
:100AC000FFF748FF63E0D048844209D101210805BF
:100AD000FFF740FF00214FF48010FFF73BFF56E087
:100AE000CA48844209D101214805FFF733FF00219C
:100AF0004FF40010FFF72EFF49E0C548844208D1AB
:100B000001214020FFF733FF00214020FFF72FFF96
:100B10003DE0C048844208D101218020FFF727FF33
:100B200000218020FFF723FF31E0BB48844208D139
:100B300001218015FFF71BFF0021A015FFF717FF0C
:100B400025E0B648844209D101210804FFF702FFDD
:100B500000214FF48030FFF7FDFE18E0B0488442DA
:100B600009D101214804FFF7F5FE00214FF40030C0
:100B7000FFF7F0FE0BE0AB48844208D10121880466
:100B8000FFF7E8FE00214FF48020FFF7E3FE10BDE1
:100B900000220288944B98420ED0994B98420BD079
:100BA000B0F1804F08D0914B984205D0904B9842BD
:100BB00002D0904B984204D14FF68F731A404B8865
:100BC0001A438D4B984207D08C4B984204D04FF675
:100BD000FF431A40CB881A4302808B8883850B8899
:100BE0000385814B98420BD0854B984208D08B4BA4
:100BF000984205D08A4B984202D08A4B984201D144
:100C00000B7A038601238382704770B5002400228B
:100C10000023058C4FF6FE7635400584028C8388D0
:100C2000048B4FF68F752C40B51E2C400D882C433D
:100C3000751E2A400D892A434D882A436A4DA842D1
:100C40000BD06F4DA84208D0744DA84205D0744D0A
:100C5000A84202D0734DA84213D14FF6F7752A402F
:100C60004D892A434FF6FB752A408D882A434FF65B
:100C7000FF652B404FF6FF552B408D892B43CD89C7
:100C80002B4383800483CD888586028470BD70B534
:100C9000002400220023058C4FF6EF7635400584B2
:100CA000028C8388048B48F6FF752C404FF6FF4575
:100CB0002C400D884FF6FF7606EA05252C434FF6AB
:100CC000DF752A400D8906EA05152A434D8806EA94
:100CD00005152A43444DA84202D0494DA8421DD1D2
:100CE0004FF67F752A404D894FF6FF7606EA0515C7
:100CF0002A434FF6BF752A408D8806EA05152A4318
:100D00004FF6FF352B404FF2FF752B408D8906EAD9
:100D100085052B43CD8906EA85052B438380048313
:100D2000CD880587028470BD70B5002400220023A1
:100D3000058C4FF6FF6635400584028C8388848BD2
:100D40004FF68F752C404FF6FC752C400D882C43C8
:100D50004FF6FF552A400D894FF6FF7606EA052526
:100D60002A434D8806EA05252A431F4DA84202D092
:100D7000234DA8421DD14FF2FF752A404D894FF6F1
:100D8000FF7606EA05252A434FF6FF352A408D886F
:100D900006EA05252A434EF6FF752B404DF6FF75F2
:100DA0002B408D8906EA05152B43CD8906EA0515EA
:100DB0002B4383808483CD888587028470BD70B582
:100DC000002200230024058C4EF6FF763540058472
:100DD000038C8488828B48F6FF752A404FF6FF45C6
:100DE0002A400D8820E00000002C01400004004053
:100DF00000080040000C00400010004000140040BB
:100E000000340140004C01400050014000540140BA
:100E100000180040001C004000200040004001403D
:100E200000440140004801404FF6FF7606EA0525E0
:100E30002A434DF6FF752B400D8906EA05352B43F5
:100E40004D8806EA05352B43FA4DA84202D0FA4DEB
:100E5000A84208D14BF6FF752C408D894FF6FF76DE
:100E600006EA85152C4384808283CD88A0F8405003
:100E7000038470BD828B4FF2FF331A408283828BD2
:100E80004FF6FF7303EA01231A4382837047F0B5DC
:100E90000C461546002200210026078C4EF6FF7CEA
:100EA00007EA0C070784828B018C4FF6FF7707EA6D
:100EB000043640F6FF473A404FF6FF7707EA05272A
:100EC0003A434FF6FF7707EA03373A43D94FB84220
:100ED0000ED0D94FB8420BD0B0F1804F08D0D74FC9
:100EE000B84205D0D64FB84202D0D64FB84206D14C
:100EF0004DF6FF77394046F48057394305E047F611
:100F0000FF57394044F48057394382830184F0BD50
:100F1000828B4FF6F3731A408283828B0A4382835B
:100F20007047F0B50C461546002200210026078CBC
:100F30004FF6FF6C07EA0C070784828B018C4FF693
:100F4000FF7707EA04264FF60C773A404FF6FF7713
:100F500007EA03172F433A43B64FB8420ED0B64FB5
:100F6000B8420BD0B0F1804F08D0B44FB84205D092
:100F7000B34FB84202D0B34FB84206D14FF6FF5735
:100F8000394046F48077394305E04FF2FF57394046
:100F900044F48077394382830184F0BD028B4FF2A1
:100FA000FF331A400283028B4FF6FF7303EA0123DB
:100FB0001A4302837047F0B50C4615460022002103
:100FC0000026078C4FF6EF7C07EA0C070784028B9C
:100FD000018C4FF6FF7707EA041640F6FF473A40C8
:100FE0004FF6FF7707EA03373A434FF6FF7707EAF2
:100FF00005273A438F4FB8420ED08F4FB8420BD0DF
:10100000B0F1804F08D08D4FB84205D08C4FB84218
:1010100002D08C4FB84206D14FF6DF77394046F008
:101020001007394305E04FF65F77394044F0100769
:10103000394302830184F0BD028B4FF6F3731A40EB
:101040000283028B0A4302837047F0B50C461546B3
:1010500000220021068C4FF6FE773E400684028B6C
:10106000018C4FF60C7632407E1C06EA03162E43A6
:101070003243704EB0420ED06F4EB0420BD0B0F142
:10108000804F08D06D4EB04205D06D4EB04202D0B8
:101090006C4EB04206D14FF6FD76314044F0010669
:1010A000314305E04FF6F576314044F00106314317
:1010B00002830184F0BD70B505460C465D4885424B
:1010C0000ED05D4885420BD0B5F1804F08D05B480B
:1010D000854205D05A48854202D05A48854200D1FF
:1010E00000E000BF208850B92389A2886188284683
:1010F000FFF7ABFFE1882846FFF79EFF25E0208839
:1011000004280AD12389A28861882846FFF753FF63
:10111000E1882846FFF742FF17E0208808280AD117
:101120002389A28861882846FFF7FBFEE1882846CC
:10113000FFF7EEFE09E02389A28861882846FFF7C1
:10114000A6FEE1882846FFF795FE70BD2DE9F04127
:1011500005460C4600260127608808B9022600E0F3
:101160000026A088012801D1022700E0012720885D
:10117000A0B92389A28861882846FFF766FFE18825
:101180002846FFF759FF23893A4631462846FFF79C
:1011900012FFE1882846FFF701FF13E02389A288A8
:1011A00061882846FFF707FFE1882846FFF7F6FE2B
:1011B00023893A4631462846FFF747FFE18828460B
:1011C000FFF73AFFBDE8F0810A884B881A438B8805
:1011D0001A43CB881A430B891A434B891A438B89CC
:1011E0001A43A0F8442070474FF6FF718180002118
:1011F0000180C180418001727047002101804180DF
:101200008180C180018141818181C181704700213C
:1012100001804180012181800021C18001817047CE
:101220000021018041808180C180018141818181D3
:1012300070470000002C01400034014000040040D1
:1012400000080040000C004021B1028842F0010279
:10125000028004E002884FF6FE731A400280704755
:1012600031B1B0F8442042F40042A0F8442005E037
:10127000B0F84420C2F30E02A0F8442070471AB11F
:1012800083890B43838102E083898B438381704789
:101290008182704741EA0203A0F8483070471AB1D2
:1012A00083890B43838102E083898B438381704769
:1012B00001894FF6F8721140018170470A460021FA
:1012C00001894FF68F73194011430181704730B582
:1012D00004460D4629462046FFF7F0FF208940F0DE
:1012E0000700208130BD2DE9F04104460D46164629
:1012F0001F46602D06D13B46012231462046FFF7AE
:101300005AFE05E03B46012231462046FFF79DFE8E
:1013100029462046FFF7D2FF208940F007002081B0
:10132000BDE8F08130B50C4600210189C9B24FF605
:10133000FF7505EA0325154325432943018130BD87
:101340002DE9F04105460E461746984600244346CF
:101350003A4631462846FFF7E5FF2C894FF6F870EC
:10136000044044F007044FF68F70044044F07004CA
:101370002C81BDE8F081F0B504460D4616461F46A7
:101380003B46324629462046FFF7CCFF208940F4F1
:1013900080402081F0BD0185828270470A4600218D
:1013A00001884FF68F731940114301807047F0B5E3
:1013B0000C4615461E460021002200230189028B9F
:1013C000038C4FF6F877394021434FF6FC473A40FB
:1013D00040F201173A434FF6DD773B404FF6FF7777
:1013E00007EA06172F433B43018102830384F0BDC4
:1013F0000A460021018B4FF68F7319401143018378
:1014000070470A460021018B48F6FF7319404FF6DA
:10141000FF7303EA02231943018370470A46002140
:10142000818B4FF68F7319401143818370470A46B1
:101430000021818B48F6FF7319404FF6FF7303EAD2
:10144000022319438183704721B1028842F0800250
:10145000028004E002884FF67F731A4002807047D2
:1014600021B1828842F00402828004E082884FF633
:10147000FB731A408280704721B1828842F00802D3
:10148000828004E082884FF6F7731A4082807047AA
:1014900021B1828842F00102828004E082884FF606
:1014A000FE731A40828070470A460021018B4FF676
:1014B000F77319401143018370470A460021018BDD
:1014C0004FF2FF7319404FF6FF7303EA02231943EB
:1014D000018370470A460021818B4FF6F77319404C
:1014E0001143818370470A460021818B4FF2FF73BD
:1014F00019404FF6FF7303EA0223194381837047B3
:101500000A460021018B4FF6FB73194011430183FA
:1015100070470A460021018B4FF6FF3319404FF602
:10152000FF7303EA02231943018370470A4600212F
:10153000818B4FF6FB7319401143818370470A4634
:101540000021818B4FF6FF3319404FF6FF7303EAFA
:1015500002231943818370470A460021018B4FF60D
:101560007F7319401143018370470A460021018BA4
:10157000C1F30E014FF6FF7303EA022319430183FF
:1015800070470A460021818B4FF67F731940114343
:10159000818370470A460021818BC1F30E014FF60B
:1015A000FF7303EA02231943818370470A4600212F
:1015B000018C4FF6FD7319401143018470470A46B0
:1015C0000021018C4FF6F7731940114301847047D5
:1015D0000A460021018C4FF6DF7319404FF6FF7366
:1015E00003EA02131943018470470A460021018C63
:1015F0004FF67F7319404FF6FF7303EA0213194346
:10160000018470470A460021018C4FF6FF531940B0
:101610004FF6FF7303EA02231943018470470A4619
:101620000021018C4FF2FF7319404FF6FF7303EA5C
:1016300002231943018470470A460021018C4DF6AC
:10164000FF7319404FF6FF7303EA02331943018415
:10165000704730B5002301248C40A3B2048C9C4316
:101660000484048C02FA01F5ADB22C43048430BD2D
:1016700030B5002304248C40A3B2048C9C43048422
:10168000048C02FA01F5ADB22C43048430BD70B570
:101690000346002000241846183001258D40ACB2C6
:1016A0001D8CA5431D8409B1082909D100EB6100F7
:1016B000056825F0700505600568154305600EE0B6
:1016C0000D1FC5F34E052844056825F4E045056067
:1016D00005684FF6FF7606EA02263543056070BDC1
:1016E00021B1028842F00202028004E002884FF633
:1016F000FD731A400280704721B1028842F0040253
:10170000028004E002884FF6FB731A4002807047A3
:1017100021B1828842F08002828004E082884FF604
:101720007F731A408280704702884FF6F7731A4021
:10173000028002880A430280704782884FF68F73C6
:101740001A40828082880A438280704702894FF65D
:10175000F8731A40028102890A43028170470289A4
:101760004FF67F731A40028102890A430281704753
:1017700081847047818570478186704701877047F3
:1017800081877047A0F84010704702884FF6FF43EA
:101790001A40028002880A43028070470146888E00
:1017A00070470146088F70470146888F7047014691
:1017B000B1F8400070470146888C70470146088D9B
:1017C000704702460020138A0B400BB1012000E055
:1017D00000207047CA430282704730B5024600209D
:1017E00000230024158A05EA0103958905EA01040E
:1017F00013B10CB1012000E0002030BDCA430282C9
:101800007047000000F063F900F0E4FC00F065FCB4
:1018100000F0BAFF00F066FF0DE0C82000F077FF8F
:101820000548006808B9012000E00020024908606E
:10183000C82000F06CFFF0E79401234210B500F0DF
:1018400019FD00F05BFD00F09CFD00F0DDFD4FF4A4
:10185000FA7000F010FF5448006808B9012000E059
:1018600000205149086001215048FFF7C7FF10BD13
:1018700010B54FF08040008800F0100028B14C48AF
:101880000068401E4A49086004E049480068401C5E
:101890004749086001218807FFF7B0FF10BD10B568
:1018A0004448008800F0100028B143480068401EFA
:1018B0004149086004E040480068401C3E49086017
:1018C00001213C48FFF79AFF10BD10B53B48008846
:1018D00000F0100028B13A480068401E38490860FE
:1018E00004E037480068401C35490860012133484E
:1018F000FFF784FF10BD10B53248008800F01000DB
:1019000028B131480068401E2F49086004E02E4885
:101910000068401C2C49086001212A48FFF76EFF2F
:1019200010BD2A48008800F0200058B12748001D4B
:1019300000882749274A1278885426480078401C96
:101940002449087070472448008800F0200058B1EE
:101950002148001D00882149214A127888542048D6
:101960000078401C1E49087070471E48008800F02F
:10197000200058B11B48001D00881B491B4A1278E3
:1019800088541A480078401C1849087070477047FE
:1019900000BFFEE700BFFEE700BFFEE700BFFEE7B7
:1019A000704770477047704794812142001400408F
:1019B000140000200004004018000020000800402F
:1019C0001C000020000C00402000002000380140D6
:1019D000740000202400002000440040B4000020D7
:1019E0002500002000480040F400002026000020D0
:1019F0000CB50020019000906C48006840F48030E5
:101A00006A49086000BF6948006800F4003000902F
:101A10000198401C0190009818B90198B0F5A06F8A
:101A2000F1D16248006800F4003010B1012000904C
:101A300001E0002000900098012843D15C48006834
:101A400040F010005A4908600846006820F0030082
:101A500008600846006840F002000860534840688B
:101A6000524948600846406848600846406840F46B
:101A7000806048600846406820F47C104860084652
:101A8000406840F4E81048600846006840F0807004
:101A9000086000BF4548006800F000700028F9D0D9
:101AA0004248406820F003004049486008464068CA
:101AB00040F00200486000BF3C48406800F00C0065
:101AC0000828F9D10CBD10B5FFF792FF10BD10B575
:101AD0003648006840F00100344908600846406814
:101AE0003449084031494860084600683249084096
:101AF0002E4908600846006820F4802008600846E7
:101B0000406820F4FE0048604FF41F008860FFF733
:101B1000DAFF4FF000602949086010BD10B50021C0
:101B200000200022214B5B6803F00C0121B1042945
:101B300006D0082928D107E0214B224C236027E05A
:101B40001F4B204C236023E0184B5B6803F470109C
:101B5000164B5B6803F48032022303EB904022B9FA
:101B6000194B4343174C23600DE0104B5B6803F4A3
:101B7000003323B1144B4343124C236003E0104B5A
:101B80004343104C236003E00D4B0E4C236000BF19
:101B900000BF064B5B68C3F303130C4CE15C094BBD
:101BA0001B68CB40074C236010BD000000100240B2
:101BB000002002400000FFF8FFFFF6FE08ED00E005
:101BC00000127A002800002000093D002C000020AF
:101BD00000B589B001210846FEF7A2FE0121C80226
:101BE000FEF79EFE01210420FEF79AFE4FF470607E
:101BF000ADF8200003208DF8220018208DF8230076
:101C000008A9FE48FEF7D0FB0020ADF81400ADF89F
:101C1000160042F21070ADF818000020ADF81A005E
:101C20008DF81C0005A9F648FEF7B2FF7020ADF84C
:101C300004000120ADF806000020ADF808000220E5
:101C4000ADF80C000020ADF80E004FF48070ADF838
:101C500010000020ADF8120001A9E948FEF7D5FFF9
:101C600001A9E748FFF713F801A9E548FFF75CF879
:101C700001A9E348FFF7A3F80020E14934310880C7
:101C8000091D0880091D0880091D08800121DC4804
:101C9000FFF7DAFA0121DA48FFF7E2FA09B000BDEE
:101CA00000B589B001210846FEF73AFE012148033C
:101CB000FEF736FE01211020FEF732FE4FF4707061
:101CC000ADF8200003208DF8220018208DF82300A5
:101CD00008A9CC48FEF768FB0020ADF81400ADF869
:101CE000160042F21070ADF818000020ADF81A008E
:101CF0008DF81C0005A9C448FEF74AFF7020ADF816
:101D000004000120ADF806000020ADF80800022014
:101D1000ADF80C000020ADF80E004FF48070ADF867
:101D200010000020ADF8120001A9B748FEF76DFFC2
:101D300001A9B548FEF7ABFF01A9B348FEF7F4FFD0
:101D400001A9B148FFF73BF80020AF4934310880C2
:101D5000091D0880091D0880091D08800121AA4865
:101D6000FFF772FA0121A848FFF77AFA09B000BD1F
:101D700000B587B00121A548FEF7E7FB0121084621
:101D8000FEF7CEFD01210846FEF7D7FD0121042014
:101D9000FEF7C6FD01210820FEF7C2FD01219C4887
:101DA000FEF7D3FB4FF40040ADF8180048208DF843
:101DB0001B0003208DF81A0006A99048FEF7F4FADC
:101DC0000122D1038D48FEF7A0FB0820ADF81800D2
:101DD00048208DF81B0003208DF81A0006A98D48B5
:101DE000FEF7E2FA012208218A48FEF78EFB42F252
:101DF0001070ADF810000020ADF80C00ADF8120026
:101E0000ADF80E0003A94FF08040FEF7C1FE0A2393
:101E10001A4603215807FFF7CAFA6846FFF7F7F991
:101E20000620ADF8080069464FF08040FFF743F9FF
:101E300001218807FFF7CEFC012211469007FFF72A
:101E40001EFA00204FF08041888401218807FFF7A7
:101E5000FBF907B000BD00B587B001210846FEF7C9
:101E60005FFD01210220FEF768FD01210420FEF73D
:101E700057FDC020ADF8180048208DF81B00032046
:101E80008DF81A0006A95D48FEF78EFA012240215E
:101E90005A48FEF73AFB012280215848FEF735FBED
:101EA00042F21070ADF810000020ADF80C00ADF853
:101EB0001200ADF80E0003A95748FEF769FE0A2389
:101EC0001A4603215448FFF772FA6846FFF79FF954
:101ED0000620ADF8080069464F48FFF7ECF80121ED
:101EE0004D48FFF777FC012211464B48FFF7C7F931
:101EF000002049492431088001214748FFF7A4F90F
:101F000007B000BD00B587B001210846FEF708FD07
:101F100001210420FEF711FD01210820FEF700FD3C
:101F2000C020ADF8180048208DF81B0003208DF864
:101F30001A0006A93748FEF737FA01224021354832
:101F4000FEF7E3FA012280213248FEF7DEFA42F280
:101F50001070ADF810000020ADF80C00ADF81200C4
:101F6000ADF80E0003A92D48FEF712FE0A231A460B
:101F700003212A48FFF71BFA6846FFF748F90620B5
:101F8000ADF8080069462548FFF795F80121234878
:101F9000FFF720FC012211462048FFF770F90020CE
:101FA0001E492431088001211C48FFF74DF907B074
:101FB00000BD00B587B001210846FEF7B1FC012144
:101FC0000820FEF7BAFC01210420FEF7A9FC03203B
:101FD000ADF8180048208DF81B0003208DF81A007A
:101FE00006A90648FEF7E0F9012211460348FEF76C
:101FF0008CFA01220221014812E000000008014091
:10200000002C01400010014000340140000230006B
:1020100000031800000C01400004004000080040CC
:10202000FEF773FA42F21070ADF810000020ADF820
:102030000C00ADF81200ADF80E0003A96048FEF7E1
:10204000A7FD0A231A4603215D48FFF7B0F9684649
:10205000FFF7DDF80620ADF8080069465848FFF79D
:102060002AF801215648FFF7B5FB012211465448D2
:10207000FFF705F90020524924310880012150481A
:10208000FFF7E2F807B000BD0EB501210846FEF7E4
:1020900047FC01212020FEF750FC41F28730ADF8CB
:1020A00004004720ADF800000020ADF80600ADF8B0
:1020B00002008DF8080069464248FEF769FD0121DB
:1020C0004048FFF719FB012211463E48FFF7D7F8B9
:1020D00001213C48FFF7B8F80EBD10B5FFF778FDB9
:1020E000FFF7DEFDFFF744FEFFF7B5FEFFF70AFF3F
:1020F000FFF75FFFFFF7C8FF10BD30B50346184676
:1021000042F21074A04200DD601E2F4CA04200DAA3
:10211000601C002802DA4142012201E0014600224F
:102120002AB10024294D2C802D1D298004E0274D43
:10213000298000242D1D2C8030BD10B5002802DA26
:102140004142012201E00146002232B100231F4C2E
:1021500008342380241D218005E01C4C0834218094
:102160000023241D238010BD10B5002802DA41424F
:10217000012201E0014600222AB10023144C2380F1
:10218000241D218004E0124C21800023241D238083
:1021900010BD10B5002802DA4142012201E00146DB
:1021A000002232B100230A4C08342380241D2180F0
:1021B00005E0074C083421800023241D238010BD36
:1021C000000C004000140040F0D8FFFF342C014008
:1021D0003434014008B54FF4A060FEF717F81C2016
:1021E0008DF8000000208DF801008DF8020001201C
:1021F0008DF803006846FEF70EF81D208DF80000EC
:1022000000208DF8010001208DF802008DF80300F8
:102210006846FEF700F81E208DF8000000208DF8BB
:10222000010002208DF8020001208DF803006846AD
:10223000FDF7F1FF32208DF8000000208DF801003D
:1022400003208DF8020001208DF803006846FDF799
:10225000E2FF37208DF8000002208DF801000020F9
:102260008DF8020001208DF803006846FDF7D3FFCA
:1022700008BD00004FF08042928C854B1A80854A41
:102280001168854A126840F271235A43804B1B88BB
:1022900003EB0210421A814B1A6010E07E4A12686A
:1022A000521E7D4B1A601A46126840F271235A433F
:1022B000774B1B8803EB0210421A784B1A60774A5F
:1022C0001268B2F5FA5FE9DC10E0734A1268521C3A
:1022D000714B1A601A46126840F271235A436C4BD4
:1022E0001B8803EB0210421A6C4B1A606B4A12688F
:1022F00012F5FA5FE9DB674A10607047684A128896
:10230000684B1A80684A1168684A126840F2712363
:102310005A43644B1B8803EB0210421A644B1A6049
:1023200010E0624A1268521E604B1A601A46126828
:1023300040F271235A435B4B1B8803EB0210421A95
:102340005B4B1A605A4A1268B2F5FA5FE9DC10E09A
:10235000564A1268521C554B1A601A46126840F2CF
:1023600071235A434F4B1B8803EB0210421A504B08
:102370001A604F4A126812F5FA5FE9DB4A4A1060A8
:1023800070474C4A12884C4B1A804C4A11684C4A90
:10239000126840F271235A43474B1B8803EB02102B
:1023A000421A484B1A6010E0454A1268521E444BCC
:1023B0001A601A46126840F271235A433E4B1B883A
:1023C00003EB0210421A3F4B1A603E4A1268B2F504
:1023D000FA5FE9DC10E03A4A1268521C384B1A6086
:1023E0001A46126840F271235A43334B1B8803EBA1
:1023F0000210421A334B1A60324A126812F5FA5F21
:10240000E9DB2E4A106070472F4A12882F4B1A8042
:102410002F4A11682F4A126840F271235A432B4BFE
:102420001B8803EB0210421A2B4B1A6010E0294A5A
:102430001268521E274B1A601A46126840F2712326
:102440005A43224B1B8803EB0210421A224B1A609C
:10245000214A1268B2F5FA5FE9DC10E01D4A126801
:10246000521C1C4B1A601A46126840F271235A43E0
:10247000164B1B8803EB0210421A174B1A60164AC0
:10248000126812F5FA5FE9DB114A1060704700002C
:102490003C000020440000201400002054000020D4
:1024A000240400403E0000204800002018000020C6
:1024B0005800002024080040400000204C0000206C
:1024C0001C0000205C000020240C00404200002082
:1024D0005000002020000020600000202DE9F04185
:1024E00004460021206800F085FA03D2206880F0BD
:1024F000004020600021606800F07CFA03D2606830
:1025000080F0004060600021A06800F073FA03D200
:10251000A06880F00040A0600021E06800F06AFA46
:1025200003D2E06880F00040E0602069E06121694A
:10253000206A00F089F920620021E06800F0F2F9D9
:1025400013D0E168206A00F055FB02D2E0682062F7
:102550000BE0E06880F000452846216A00F04AFB65
:1025600003D2E06880F000402062A169206900F099
:102570007DFB60622069A061616AA06800F06EFA6C
:102580000646216A606800F069FA0746E16920683A
:1025900000F064FA8046394600F056F905463146A7
:1025A00000F052F96061BDE8F0812DE9F05F04466A
:1025B0000021206800F01EFA03D2206880F000405D
:1025C00020600021606800F015FA03D2606880F096
:1025D000004060600021A06800F00CFA03D2A068FF
:1025E00080F00040A060A169E06800F03FFB8046F9
:1025F000E5684FF08040A16900F030FA8146E1685B
:1026000000F029FB0746E16900F01EF90646A069C3
:10261000E061E068A0613146A06800F01FFA8146E1
:102620002946606800F01AFA82464146206800F0A8
:1026300015FA8346514600F007F90746494600F06F
:1026400003F920610021206800F06CF90CD1002111
:10265000606800F067F907D10021A06800F062F916
:1026600002D10020606104E0D4E9041000F0ECF82D
:102670006061BDE8F09F10B5044612480068124939
:10268000086012480460014609680F4A1268881AF7
:1026900000F098F90E4908610E4808600E4848603D
:1026A00088600E48C8600846FFF718FF0849486967
:1026B00000F06CF90A49086008460068FFF71DFD44
:1026C00010BD0000540000206800002064000020BD
:1026D00034010020000070410000A04000007A4456
:1026E0006C00002010B56FF00400FDF7DEFD09203E
:1026F000234908700846007800EB4001C1EBC01088
:102700004FF6FF7101EAC0001E49088010BD014666
:102710001C4A12884A434FF0E0235A6100229A6112
:1027200001221A6100BF4FF0E022106900F001029F
:102730001AB100F48032002AF5D000224FF0E023D5
:102740001A619A61704701460D4A12784A434FF068
:10275000E0235A6100229A6101221A6100BF4FF002
:10276000E022106900F001021AB100F48032002A60
:10277000F5D000224FF0E0231A619A617047000003
:10278000700000207200002008B501214820FEF7EB
:10279000C7F82020ADF8000010208DF803000320BA
:1027A0008DF8020069460948FDF7FEFD2021074823
:1027B000FDF7A7FE2020ADF8000069460448FDF7AC
:1027C000F3FD20210248FDF79CFE08BD000C0140EE
:1027D00000180140704770477047754600F028F8B0
:1027E000AE4605006946534620F00700854618B0FE
:1027F00020B5FDF7F9FCBDE820404FF000064FF092
:1028000000074FF000084FF0000B21F00701AC4625
:10281000ACE8C009ACE8C009ACE8C009ACE8C00944
:102820008D4670470446AFF300802046FDF7C7FC95
:10283000004870475C01002001491820ABBEFEE74C
:10284000260002007047000090EA010F48BF81F0A7
:10285000004100F11282421A3CBF801A89184FEAE7
:10286000D0524FF07F4C1CEA410FA2EBD15318BF5E
:102870009CEA026F00F03B804FF0004C4CEA0020D5
:102880004CEA012121FA03FC10EB0C0C1ED202F1E0
:10289000FF325FEA1C2040EBC25038BF70471CF08B
:1028A0007F0F4FEA400C18BFBCF17F4F38BF704715
:1028B000C3F12003994008BF20F00100BCF17F4F15
:1028C00038BF7047A0F1C04000F08FB94FEA3C001C
:1028D000000A40EBC25028BF1CF0FF0F4FEA400C2B
:1028E000E6D018BFBCF17F4F38BF7047EAE79CEADB
:1028F000026F05D010EA5C0F08BF00F0004070477F
:1029000010B500F02CF900BF64FBBE3E401058BF6C
:10291000C0F14040491058BFC1F140418142EFF33E
:102920000080704750EA010C00F113801CF5000F85
:1029300058BFBCF5000F01D48842704707D710F587
:10294000000F58BF11F5000F15D488427047894217
:1029500070471CF5000F04D5BCF5000FF7D5814278
:1029600070474FF0807C1CEB400F38BF1CEB410FD1
:1029700001D28142704710B500F0F1F8922449006D
:102980004FF000504FF08051FFF7C0BF41000B0ED9
:10299000D3F19E0208D950F400034FEA032323FA2F
:1029A00002F048BF4042704710B500F0D8F800BFB1
:1029B00049922480002070476FF0004282EA200094
:1029C0007047000010F0004148BF4042B0FA80F369
:1029D00010FA03F2C3F19D030BD051EAC35101EB8E
:1029E0001220530638BF704700F1010008BF20F0E5
:1029F0000100704750EA010C00F113801CF5000F34
:102A000058BFBCF5000F01D48842704707D710F5B6
:102A1000000F58BF11F5000F15D488427047894246
:102A200070471CF5000F04D5BCF5000FF7D58142A7
:102A300070474FF0807C1CEB400F38BF1CEB410F00
:102A400001D28142704710B500F089F89224490004
:102A50004FF000504FF08051FFF758BF4FF47F0CFC
:102A60001CEAD0121EBF1CEAD11392EA0C0F93EAA3
:102A70000C0F00F0478090EA010F48BF42F48072CB
:102A80004FF0004C4CEA00204CEA012102EB03021B
:102A9000A0FB0113A2F50002002918BF43F00103B7
:102AA0005B0028BF4FEA330342EB22425FEA132C5C
:102AB0004CEBC2502EBFBCEB436FB2F57C0F70479E
:102AC0004FEA036CBCF1004F08BF20F00100B2F5E3
:102AD0007C0F38BF70470BD582F0FF0212F5803FA4
:102AE000C8BF704700F1C040D8BF00F00040704739
:102AF00000F5000C5FEA4C0C48BF7047B0F1C040D5
:102B000000F073B890EA010F0CEAD11348BF42F409
:102B10008072624538BF634504D280EA010000F04C
:102B20000040704710B500F01AF800BF8900013E60
:102B300000F007B800F009B85FEA410C5FEA1C6CCE
:102B400008D080EA010000F050B85FEA400C5FEA6C
:102B50001C6CF6D14FF00040A0F5800070470EF1DC
:102B6000020E2EF0030E5EF8044B244204D44FEA0A
:102B70004102B2F17F4F11D84FEA4003B3F17F4FCA
:102B80000CD80ED14FEAD07CB2F17F4F0CEB4C0C3D
:102B90000CF1020C08BF4CEBD17C04E04FF0080CA8
:102BA00001E04FEAD17C0CEB4C0324FA03F404F06F
:102BB0000704B4F1040C06D20EEB840CBDE81040FF
:102BC0004CF0010C6047DFE80CF0070802024FF000
:102BD0000040A0F5800010BD0846420018BFD2F1A9
:102BE000807288BF00F0004010BDFF2141EAD05044
:102BF000C005704751EA000C00F113801CF5000F6E
:102C000058BFBCF5000F01D48142704707D711F5BA
:102C1000000F58BF10F5000F15D48142704789424C
:102C200070471CF5000F04D5BCF5000FF7D588429E
:102C300070474FF0807C1CEB410F38BF1CEB400FFE
:102C400001D28842704780EA010081EA000180EAEF
:102C50000100FFF7F8BE80F0004090EA010F7FF519
:102C6000FAAD81F0004100F008B8000090EA010FD1
:102C700048BF81F000413FF5EEAD421A04D882F022
:102C80000042A0EB020011444FEAD0524FF07F4CBB
:102C90001CEA410FA2EBD15318BF9CEA026F4AD045
:102CA0004FF0004C4CEA00204CEA012121FA03FCD1
:102CB000B0EB0C0C0FD412F0FE0F36D05FEA4C00D4
:102CC0001DD5001240EBC25038BF70471CF03F0FBB
:102CD00018BF70470BE0A2F101025FEA1C2040EB35
:102CE000C25038BF70471CF07F0F18BF7047C3F148
:102CF0002003994014BF401E20F001007047800857
:102D00004FEA122308BF7047B0FA80FCA2EB0C0216
:102D1000CCF1280C60FA0CF093EA122F04BF00EB00
:102D2000C25070474FEAC3707047130A5FEADC1065
:102D300008BF7047F6E79CEA026F04D010EA5C0F08
:102D400008BF0020704710B5FFF709FF40DFF63ECF
:102D500081F0004070470000782D0008000000203E
:102D6000740000006C010008EC2D000874000020C5
:102D70004C07000088010008000000000102030465
:102D80000102030406070809020406080000000007
:102D90000000000000000000000000000000000033
:102DA00000A24A0400000000000000000102030429
:102DB00006070809000000000000000000000000F5
:102DC0000000000000000000000000000000000003
:102DD00000000000000000000000000000000000F3
:0C2DE000000000000000000000000000E7
:0400000508000131BD
:00000001FF
