:020000040800F2
:1000000078020020990100089D0100089F01000866
:10001000A1010008A3010008A501000800000000DC
:10002000000000000000000000000000A701000820
:10003000A901000800000000AB010008AD010008A4
:10004000D5090008AF010008AF010008AF010008A2
:10005000AF010008AF010008B5070008AF010008B4
:10006000AF010008AF010008AF010008AF010008B0
:10007000AF010008AF010008AF010008AF010008A0
:10008000AF010008AF010008AF010008AF01000890
:10009000AF010008AF010008AF010008AF01000880
:1000A000AF010008AF010008AF010008AF01000870
:1000B000AF010008350A0008950B0008AF010008E1
:1000C000AF010008AF010008AF010008AF01000850
:1000D000AF010008AF010008AF010008AF01000840
:1000E000EF070008AF010008AF01000800F002F8B8
:1000F00000F041F80AA090E8000C82448344AAF181
:100100000107DA4501D100F036F8AFF2090EBAE87E
:100110000F0013F0010F18BFFB1A43F0010318473B
:100120000C1400002C140000103A24BF78C878C1C9
:10013000FAD8520724BF30C830C144BF04680C60ED
:10014000704700000023002400250026103A28BF35
:1001500078C1FBD8520728BF30C148BF0B60704739
:10016000642900F03386002070471FB501F051F973
:100170001FBD10B510BD00F0F7FE1146FFF7F5FFEB
:1001800000F024F800F015FF03B4FFF7F2FF03BC02
:1001900000F02AFA30BF000008480047FEE7FEE7FB
:1001A000FEE7FEE7FEE7FEE7FEE7FEE7FEE7FEE727
:1001B00003480449024A044B70470000ED00000860
:1001C000780000207802002078000020092000F04C
:1001D000A6F9482000F034F84FF41651482000F0FA
:1001E00010FA00F079FA00F0FAFC0A2000F03EF86C
:1001F00001200B4908604DF635624FF047014FF082
:10020000C70000F02DFC0AE04FF47A7000F02EF8E1
:100210000448048804F1010103A000F095FDF3E710
:100220009481214224040040B1E0C2EBC6F7BCC671
:10023000CAFDD6B5CEAAA3BA2564200A00000000E4
:100240004FF0E021096921F004014FF0E022116133
:10025000C21700EB5272D2101F4B1A701946097860
:100260004FF47A7251431D4A1180704701461B4A70
:1002700012884A434FF0E0235A6100229A6101221A
:100280001A6100BF4FF0E022106910F0010F02D098
:1002900010F4803FF6D000224FF0E0231A619A61FB
:1002A000704701460C4A12784A434FF0E0235A61E6
:1002B00000229A6101221A6100BF4FF0E02210690A
:1002C00010F0010F02D010F4803FF6D000224FF062
:1002D000E0231A619A6170470000002002000020AC
:1002E000AF4A0A400243AF4B1A60704701460723EA
:1002F00023EA01021202AC4B18684FF6FF0300EA32
:100300000300AA4B40EA030040EA02004FF0E0235A
:10031000C3F80C0D70472DE9F04780468946144616
:100320001D462046E11704EB91714FEAA10AE1173F
:1003300004EB91718910A4EB8101CFB2042000EB92
:10034000C700C7B22846FFF7D1FFC5F1040008FA7D
:1003500000F60F20284100EA0900064306F00F06C8
:10036000202C0CDA924800684FF0010101FA04F1E8
:1003700040EA01004FF0E021C1F800010DE08D4896
:100380000068A4F120014FF0010202FA01F240EAF4
:1003900002004FF0E021C1F80401874850F82A001C
:1003A00006FA07F10843844941F82A00BDE8F087BE
:1003B00070B504460B46CE1701EB9676B010CE17FB
:1003C00001EB9676B610A1EB8606B606350E7B4B92
:1003D0009B6943F00103794EB3614FEAB63353F89A
:1003E00020300F26AE40B343754E46F820303346DA
:1003F00053F8203004FA05F63343714E46F82030A6
:10040000704B1E684FF0010303FA01F346EA03063E
:100410006D4BC3F8006412F0010F0AD06B4B1B68E0
:100420004FF0010606FA01F643EA0603664EC6F8E7
:100430000C3412F0020F0AD0654B1B684FF0010616
:1004400006FA01F643EA06035F4EC6F8083470BDAB
:1004500000B5002059490861C86014204861002097
:100460008861C8610846006840F0010008600846DD
:100470004068584908405149486008460068564954
:1004800008404E4908600846006820F48020086053
:100490000846406820F4FE00486000208860002183
:1004A0004FF00060FFF71CFF00BD10B54B4800681F
:1004B00040F004004FF0E021C1F8100D3F48C06942
:1004C00040F080503D49C8614548406840F4807024
:1004D000434948600846006840F004000860084648
:1004E000006840F002000860FFF754FE10BD2F487E
:1004F000001D2D4908607047014649062F4A926940
:1005000042F001022D4B9A612F4A526822F0E062BC
:100510002D4B5A601A4652680A435A60704730B5EC
:1005200004460025FFF794FF2448006840F480301B
:100530002249086000BF21480068400CFBD04FF4FE
:1005400080601E494860A01EC4B20846406840EA68
:10055000844048600846406840F480304860214844
:10056000006840F032001F4908601448006840F0FD
:1005700080701249086000BF10480068400EFBD030
:100580000E48406840F002000C49486005E00B4806
:100590004068C0F3870505F00305022DF7D130BD93
:1005A00080FFFF1F08ED00E00CED00E00000FA0501
:1005B00000E100E004E100E000E400E0001002409F
:1005C0000800014000040140000001400C0401400B
:1005D000080401400000FFF8FFFFF6FE10ED00E008
:1005E0000070004000200240014600BF704700BF7D
:1005F000314A128812F0400FFAD0C2B22F4B1A8043
:1006000070472DE9F05F05460E46300100F026FEEA
:1006100081462B4905FB01F000F020FE8246494649
:1006200000F03AFD0746384600F0F8FD84B2204657
:1006300000F014FE8346394600F0F7FE82464FF084
:10064000834100F01FFE814600F0E8FD8046240152
:1006500004EB080084B21B48806940F0040019498B
:1006600088610846806940F48040886116480068C7
:1006700020F47F601549C1F804080846D0F8040842
:1006800040F40B60C1F804080E48C06840F4804094
:100690000C49C8600846C06820F48040C8600C4817
:1006A000A0F808480B48008842F20C0140EA01001B
:1006B00008490880BDE8F09F003801400438014037
:1006C00040420F00001002400408014000000140B9
:1006D000003001400C3801403248806940F004008D
:1006E000304988610846806940F008008861084602
:1006F000806940F0200088612B48006820F00F00DE
:100700002A49C1F804080846D0F8040840F003005C
:10071000C1F804080846D0F80C0840F48070C1F80D
:100720000C080846D0F8000C20F47000C1F8000C4A
:100730000846D0F8000C40F44010C1F8000C084600
:10074000D0F80C0C40F02000C1F80C0C0846D0F892
:10075000040C20F47060C1F8040C0846D0F8040CB6
:1007600040F44070C1F8040C0846D0F80C0C40F47A
:100770008060C1F80C0C0E48D0F8000420F47060C2
:100780000B49C1F800040846D0F8000440F440705A
:10079000C1F800040846D0F80C0440F00400C1F889
:1007A0000C047047001002400408014000000140A2
:1007B0000010014010B50A20FFF758FD48480068B6
:1007C000012810D14748006808B9012000E0002046
:1007D000444908604448D0F8880108B9012000E085
:1007E00000204249086001204149086010BD10B551
:1007F0000A20FFF73BFD3F48006840B939480068D0
:1008000008B9012000E00020364908600AE03A48B3
:10081000006838B93548006808B9012000E00020B8
:10082000324908604FF40050314908604FF40040ED
:100830003249C1F8140410BD10B53148806940F048
:1008400004002F4988610220FFF756FE2D480068FA
:1008500020F00F002949C1F800080846D0F8000828
:1008600040F00800C1F8000827480068274900EA5E
:1008700001002249C1F8040823480068244940EADD
:1008800001001E49C1F804080846D0F80C0840F4DD
:100890000050C1F80C080846D0F80C0840F400409D
:1008A000C1F80C084FF002024FF000010846FFF7B4
:1008B0007FFD01220D210020FFF77AFD01220F218B
:1008C0000020FFF775FD0223062219461846FFF7A0
:1008D00022FD0223282201211846FFF71CFD10BD2E
:1008E00000012142A001214200802242888122424F
:1008F00014040140340121423C0121420000014026
:10090000001002400008014004080140FFFF0F0FE3
:100910000000808045F255523D4B1A601A465060E7
:1009200091604AF6AA221A604CF6CC421A607047CF
:100930004AF6AA2036490860704770B504460D464D
:1009400016463448C06940F400603249C8613249F3
:10095000097804EA0100304908703048006840EA2C
:10096000C6102F49C1F8040C0846D0F8040C40F416
:100970000070C1F8040C294800684FF6807100EA45
:1009800001002749C1F8040C0846D0F8040C40EADD
:100990000500C1F8040C234800681F49097841F09C
:1009A000800140EA01001E49C1F8000C4FF002032B
:1009B0004FF000024FF003011846FFF7ACFC70BD8A
:1009C0001849096800F07F0241EA0201144AC2F89E
:1009D000001C704710B51148006800F07F031048F4
:1009E000D0F8000C00F07F049C4203DA0A4800783B
:1009F000FFF7E6FF00200C4908600C48D0F888019A
:100A000008B9012000E000200949086010BD00007D
:100A1000003000400010024008000020042C00407C
:100A200000200040002C0040082C004000802242A2
:100A300088812242B348008810F0010F07D0B248E5
:100A4000006808B9012000E00020AF490860AD4807
:100A5000008820F001004FF08041A1F81004704799
:100A600070B504460D461646A848C06940F004001B
:100A7000A649C8610846806940F008008861A4481A
:100A8000006820F07060A349C1F8000C0846D0F857
:100A9000000C40F03060C1F8000C0846D0F80C0C97
:100AA00040F04000C1F80C0C4FF08040A0F82C48FA
:100AB00099480580204604EBD4714FEA6101974ABA
:100AC0001180A6F10100964908604FF08040B0F80F
:100AD000180840F070004FF08041A1F8180808464F
:100AE000B0F8180840F00800A1F818080846B0F857
:100AF000200840F00100A1F820080846B0F80C08D2
:100B000040F00100A1F80C080846B0F80C0840F0CD
:100B10004000A1F80C080846B0F8140840F00200A4
:100B2000A1F814084FF002034FF01E024FF003012A
:100B30004FF00100FFF7EFFB4FF08040B0F80008E6
:100B400040F080004FF08041A1F800080846B0F85E
:100B5000000840F00100A1F800080846B0F81808A5
:100B600040F07000A1F818080846B0F8180840F0E6
:100B70000800A1F818080846B0F8000840F0800006
:100B8000A1F800080846B0F8000840F001006549E7
:100B9000088070BD6448008810F0010F16D06348CB
:100BA0000068401C61490860084600685C490968A3
:100BB00088420BD15B48008820F001004FF0804153
:100BC000A1F800084FF00000584908605648008816
:100BD00020F001004FF08041A1F81008704710B5D7
:100BE0004A48C06940F002004849C8610846806927
:100BF00040F0040088614E48006820F0706045496C
:100C0000C1F800080846D0F8000840F08060C1F83C
:100C100000080846D0F8000820F07040C1F800082D
:100C20000846D0F8000840F08040C1F800084FF0B6
:100C30008040B0F80C0440F001004FF08041A1F872
:100C40000C040846B0F80C0440F040003949088014
:100C50004FF002034FF01D024FF003014FF001006F
:100C6000FFF759FB0020344908804FF6E7504FF05A
:100C70008041A1F82C040846B0F8000420F440702C
:100C8000A1F800040846B0F8000420F06000A1F8C4
:100C900000040846B0F8180440F00100A1F8180458
:100CA0000846B0F8180440F48070A1F8180408460B
:100CB000B0F8200420F00200A1F820040846B0F8A3
:100CC000200420F02000A1F820040846B0F8180401
:100CD00040F03000A1F818040846B0F8080440F0CD
:100CE0000300164908804FF000004FF08041A1F842
:100CF00024040846B0F8000440F0010010490880C0
:100D000010BD000010040040A881214200100240E4
:100D1000000C014000000140280800403408004059
:100D20001000002000080040100800400C000020C7
:100D3000000801400C040040280400400804004062
:100D400000040040704700000FB4044910B503AA26
:100D5000029800F0D3F810BC5DF814FB04000020EA
:100D60002DE9F04104460E4600200AE0E1682046E5
:100D7000884738B3252806D0D4E901219047206A56
:100D8000401C2062F2E7E168204600278847050002
:100D900018D0A5F14100192802D820354FF400677A
:100DA0003246294620462760FFF7DAF940B101288C
:100DB00004D0F61D26F007060836D7E7361DD5E71E
:100DC0002846D9E7206ABDE8F08100002DE9F0410E
:100DD0008046002610687529414615A512D0AFF34C
:100DE0000080002803DAC0F1000012A508E0D8F85E
:100DF00000108A0701D510A502E0490704D50FA508
:100E0000012601E0AFF30080002408F1240704E08C
:100E100000F086F830313955641C0028F8D133468B
:100E20002A4621464046BDE8F04100F00DB80000DA
:100E3000000000002D0000002B000000200000003A
:100E400070477047704770472DE9F0470D460446DC
:100E50009246994600F124080168880604D5E069A5
:100E600021F01001216000E001200027A84201DDEF
:100E7000A0EB0507A16907EB050202EB0300A1EB5C
:100E80000000A0612068C00602D42046AFF30080B5
:100E9000002608E0D4E901211AF806009047206AEC
:100EA000401C761C20624E45F4DB2068C0060AD543
:100EB0002046AFF3008006E0D4E9012130209047BE
:100EC000206A401C2062381EA7F10107F4DC07E00D
:100ED000D4E9012118F805009047206A401C2062DF
:100EE000281EA5F10105F3DC2046AFF30080216840
:100EF0000220090600D40120BDE8F087074B70B539
:100F00000C467B4400F019F80546204600F028F80E
:100F100010B14FF0FF3070BD284670BDE9F6FFFFFD
:100F20004FF00A01B0FBF1F202FB110110467047CD
:100F300001694A1C02610878704700B58FB0CDE99D
:100F400001310021059105497944CDE9031011468D
:100F50006846FFF705FF0FB000BD0000E5FFFFFF8B
:100F6000C06800F080007047754600F029F8AE4672
:100F700005006946534620F00700854618B020B5A5
:100F8000FFF716F9BDE820404FF000064FF00007CC
:100F90004FF000084FF0000B21F00701AC46ACE821
:100FA000C009ACE8C009ACE8C009ACE8C0098D468E
:100FB00070470446AFF300802046FFF7E5F80000D5
:100FC000004870471400002001487047704700BF78
:100FD0001800002090EA010F48BF81F0004100F1A5
:100FE0003682421A3CBF801A89184FEAD0524FF01D
:100FF0007F4C1CEA410FA2EBD15318BF9CEA026F51
:1010000000F03B804FF0004C4CEA00204CEA0121FC
:1010100021FA03FC10EB0C0C1ED202F1FF325FEA46
:101020001C2040EBC25038BF70471CF07F0F4FEAC6
:10103000400C18BFBCF17F4F38BF7047C3F120038D
:10104000994008BF20F00100BCF17F4F38BF7047C6
:10105000A0F1C04000F0E4B94FEA3C00000A40EBC8
:10106000C25028BF1CF0FF0F4FEA400CE6D018BF5B
:10107000BCF17F4F38BF7047EAE79CEA026F05D0AA
:1010800010EA5C0F08BF00F00040704710B500F098
:101090007AF900BF64FBBE3E4FF47F0C1CEAD0120D
:1010A0001EBF1CEAD11392EA0C0F93EA0C0F00F05A
:1010B000858090EA010F48BF42F4807240F4000C32
:1010C00041F400002CF07F4120F07F4000B58142C8
:1010D000A2EB03020FF2081CACEB504EC0F1000073
:1010E0009EF800E04FEA4E0E00FB0EFC38BF4900B0
:1010F0004FEA2C1C02F5FA020CFB0EF34FEACE1E4F
:101100004FEA112C4FEAC1210EEB635E42EB224203
:101110000EFB0CFC4FEA1C5300FB03114FEA112C91
:101120004FEA01310EFB0CFC4FEADC4C00FB0C11CA
:10113000C14228BF09184CEB03335DF804EB10EBF8
:10114000410143EBC250B2F57C0F38BF704729D53F
:1011500012F0F00F1CBF00F1C04000F000407047DB
:10116000008182838485868788898B8C8D8E8F9180
:101170009293959697999A9C9D9FA0A2A3A5A7A8A4
:10118000AAACAEB0B2B3B5B7B9BCBEC0C2C5C7C9D0
:10119000CCCED1D4D7D9DCDFE2E6E9ECF0F3F7FA34
:1011A000FE0000004FEA400C0CF1807CBCF17E4F49
:1011B00028BF7047B0F1C04000F032B990EA010F8B
:1011C0000CEAD11348BF42F48072624538BF6345D0
:1011D00007D213F47F0F16D080EA010000F0004020
:1011E000704710B500F0CFF8097EFC3E00F005B85E
:1011F00080EA010000F00040704780EA010000F042
:10120000004000F00DB912F47F0F04BF0248704790
:1012100080EA010000F004B90000C07FC10DD1F1E7
:101220009E0206DB4FEA002343F0004323FA02F05C
:101230007047004207D54FEA4001B1F1FE4F02D29C
:101240004FF00000704710B500F09DF849922480DF
:10125000002070476FEA200070470000B0FA80F36A
:1012600010FA03F2C3F19D030AD0D90501EB122055
:10127000530638BF704700F1010008BF20F001009D
:10128000704700004FF47F0C1CEAD0121EBF1CEA0E
:10129000D11392EA0C0F93EA0C0F00F0478090EA0A
:1012A000010F48BF42F480724FF0004C4CEA00201E
:1012B0004CEA012102EB0302A0FB0113A2F500029C
:1012C000002918BF43F001035B0028BF4FEA330336
:1012D00042EB22425FEA132C4CEBC2502EBFBCEB18
:1012E000436FB2F57C0F70474FEA036CBCF1004FBF
:1012F00008BF20F00100B2F57C0F38BF70470BD556
:1013000082F0FF0212F5803FC8BF704700F1C04075
:10131000D8BF00F00040704700F5000C5FEA4C0CAD
:1013200048BF7047B0F1C04000F07AB890EA010FB2
:101330000CEAD11348BF42F48072624538BF63455E
:1013400004D280EA010000F00040704710B500F0C0
:101350001AF800BF8900013E00F007B800F009B894
:101360005FEA410C5FEA1C6C08D080EA010000F0E3
:1013700057B85FEA400C5FEA1C6CF6D14FF00040B2
:10138000A0F5800070470EF1020E2EF0030E5EF8FD
:10139000044B244204D44FEA4102B2F17F4F11D8EA
:1013A0004FEA4003B3F17F4F0CD80ED14FEAD07C07
:1013B000B2F17F4F0CEB4C0C0CF1020C08BF4CEB64
:1013C000D17C04E04FF0080C01E04FEAD17C0CEB3B
:1013D0004C0324FA03F404F00704B4F1040C06D21D
:1013E0000EEB840CBDE810404CF0010C6047DFE8C8
:1013F0000CF0070802024FF00040A0F5800010BD7D
:101400000846420018BFD2F1807288BF00F0004049
:1014100010BD10B5FFF7D8FD4FF00001016010BD01
:10142000FF2141EAD050C005704780F0004090EAAB
:10143000010F7FF5D6AD81F0004100F008B8000043
:1014400090EA010F48BF81F000413FF5CAAD421A52
:1014500004D882F00042A0EB020011444FEAD052BF
:101460004FF07F4C1CEA410FA2EBD15318BF9CEA0E
:10147000026F4AD04FF0004C4CEA00204CEA0121A8
:1014800021FA03FCB0EB0C0C0FD412F0FE0F36D097
:101490005FEA4C001DD5001240EBC25038BF7047C8
:1014A0001CF03F0F18BF70470BE0A2F101025FEA8A
:1014B0001C2040EBC25038BF70471CF07F0F18BF94
:1014C0007047C3F12003994014BF401E20F0010073
:1014D000704780084FEA122308BF7047B0FA80FCBB
:1014E000A2EB0C02CCF1280C60FA0CF093EA122F5C
:1014F00004BF00EBC25070474FEAC3707047130A35
:101500005FEADC1008BF7047F6E79CEA026F04D080
:1015100010EA5C0F08BF0020704710B5FFF733FFDB
:1015200040DFF63E81F00040704700004C15000897
:1015300000000020140000002801000860150008C9
:1015400014000020640200004401000800000000B4
:10155000000000007F00000000000000000000000C
:04000005080000ED02
:00000001FF
