:020000040800F2
:10000000F02D0020AD490008D9030008DB030008EB
:10001000DF030008E3030008E70300080000000016
:10002000000000000000000000000000EB030008DA
:10003000ED03000800000000EF030008F1220008B3
:10004000C7490008C7490008C7490008C749000850
:10005000C7490008C7490008E92F0008C749000838
:1000600053430008C7490008FF460008C749000875
:10007000C7490008C7490008C7490008C749000820
:10008000C7490008C7490008C7490008C749000810
:10009000C7490008C7490008C7490008C749000800
:1000A000C74900084D2F0008C7490008C12E0008A5
:1000B000CB260008C93A0008C7490008C74900080C
:1000C000C7490008C7490008C7490008C7490008D0
:1000D000C749000893480008C7490008C7490008F5
:1000E000C7490008C7490008C749000800F002F8DE
:1000F00000F0B0F80AA090E8000C82448344AAF112
:100100000107DA4501D100F0A5F8AFF2090EBAE80F
:100110000F0013F0010F18BFFB1A43F0010318473B
:10012000749A0000949A00000A444FF0000C10F8F2
:10013000013B13F0070408BF10F8014B1D1108BF65
:1001400010F8015B641E05D010F8016B641E01F805
:10015000016BF9D113F0080F1EBF10F8014BAD1C55
:100160000C1B09D16D1E58BF01F801CBFAD505E073
:1001700014F8016B01F8016B6D1EF9D59142D6D3CD
:10018000704700000023002400250026103A28BFF5
:1001900078C1FBD8520728BF30C148BF0B607047F9
:1001A0006E2906F0BF85702907F01D81662909F0C8
:1001B0007C83652909F07983672909F076836129B1
:1001C000AFF3008003681B0A28BF41F08001692952
:1001D00006F09083642906F08D83752906F08A83E2
:1001E0006F2907F0AB80782907F0E980E92907F04B
:1001F0004780E42907F04480F52907F04180EF2982
:1002000007F0A880F82907F0E8800368DB0928BF19
:1002100041F08001632907F08981732907F08E81FD
:10022000E32907F09981F32907F09E8100207047A8
:100230001FB507F0E3F804000020002108F052FA8F
:10024000401C60600020002108F036FAE0601FBD0D
:1002500010B510BD07F020FA1146FFF7E9FF00F0D6
:1002600009F807F047FA03B4FFF7F2FF03BC04F004
:10027000B5FA000001F0D0FF03F074FD01F048FE74
:1002800003F00AF904F020F84FF4964004F0B5FAB0
:1002900004F000FA02F070FA03F0ABF902F079F81A
:1002A00001F02FFF3AA20121084603F034FF3CA2DF
:1002B0000121032003F02FFF3DA20121052003F0BF
:1002C0002AFF3FA20121072003F025FF30A20121D0
:1002D000084603F020FF01203D49087057E03C48E4
:1002E0000078272851D2DFE800F01415504F3B4723
:1002F0004A50503D5050383C5050504E504D505048
:100300005050505050181B1E2124272A2D303231B6
:1003100035003BE000F05CF938E000F091F935E0A1
:1003200000F043FA32E000F0BAFA2FE000F090FC5F
:100330002CE000F02AFD29E000F022FF26E000F08A
:10034000A1FF23E001F0FAF920E01FE01EE001F038
:1003500015FB1BE001F0B0FA18E001F00EFD15E00E
:1003600014E013E01B480078012804D1002019494B
:10037000087001F010FE09E001F0E3FB06E001F077
:1003800056FD03E002E001E000E000BF00BFA6E789
:10039000BBC6BAD3D4B6C9CFB0D7D4C6BCE42C0040
:1003A000D2BBC6ACB9C2B3C7CDF2D8F0C9BD2E001E
:1003B000C7BCB5D1BACED0EBD4B9D1EEC1F82C00C0
:1003C000B4BAB7E7B2BBB6C8D3F1C3C5B9D82E002B
:1003D0001800002066050020704700BFFEE700BF40
:1003E000FEE700BFFEE700BFFEE7704770477047BB
:1003F0000CB50020019000906C48006840F48030FB
:100400006A49086000BF6948006800F40030009045
:100410000198401C0190009818B90198B0F5A06FA0
:10042000F1D16248006800F4003010B10120009062
:1004300001E0002000900098012843D15C4800684A
:1004400040F010005A4908600846006820F0030098
:1004500008600846006840F00200086053484068A1
:10046000524948600846406848600846406840F481
:10047000806048600846406820F47C104860084668
:10048000406840F4E81048600846006840F080701A
:10049000086000BF4548006800F000700028F9D0EF
:1004A0004248406820F003004049486008464068E0
:1004B00040F00200486000BF3C48406800F00C007B
:1004C0000828F9D10CBD10B5FFF792FF10BD10B58B
:1004D0003648006840F0010034490860084640682A
:1004E00034490840314948600846006832490840AC
:1004F0002E4908600846006820F4802008600846FD
:10050000406820F4FE0048604FF41F008860FFF749
:10051000DAFF4FF000602949086010BD10B50021D6
:1005200000200022214B5B6803F00C0121B104295B
:1005300006D0082928D107E0214B224C236027E070
:100540001F4B204C236023E0184B5B6803F47010B2
:10055000164B5B6803F48032022303EB904022B910
:10056000194B4343174C23600DE0104B5B6803F4B9
:10057000003323B1144B4343124C236003E0104B70
:100580004343104C236003E00D4B0E4C236000BF2F
:1005900000BF064B5B68C3F303130C4CE15C094BD3
:1005A0001B68CB40074C236010BD000000100240C8
:1005B000002002400000FFF8FFFFF6FE08ED00E01B
:1005C00000127A000000002000093D000400002015
:1005D00010B501F07CFEC8B14CF2503001F074FE51
:1005E00003F011FCFBA20121084603F094FDFDA2DB
:1005F0000121032003F08FFDFEA20121052003F05D
:100600008AFDFDA20121072003F085FDFE48007848
:10061000A8B10020FC49087003F0E0FEFB49087017
:1006200008460078C22809D102F0A6F802F0E1FFDE
:1006300001F0AFFE1B20F649087000BF00BF10BDDF
:1006400010B501F044FEC8B14CF2503001F03CFE50
:1006500003F0D9FBEFA20121084603F05CFDF0A2F4
:100660000121032003F057FDF1A20121052003F031
:1006700052FDF2A20121072003F04DFDE24800786F
:1006800000287AD00020E049087003F0A7FEDF4977
:10069000087008460078382874D008DC102852D03A
:1006A00018280FD0222875D030287BD106E04228A8
:1006B00074D05A286AD07A2874D11DE01C20D449FD
:1006C000087070E003F09FFBD5A20121084603F0FB
:1006D00022FDDEA20121084603F01DFDDFA201215B
:1006E000052003F018FDE0A20121072003F013FD0F
:1006F0001E20C749087056E003F085FBCCA20121FB
:10070000084603F008FDBBA20121032003F003FD0E
:10071000B8A20121052003F0FEFCB6A201210720AA
:1007200003F0F9FCC82001F010FD042004F00EF8DD
:100730004FF47A7001F031FD042004F007F81F2017
:10074000B34908702FE003F05EFBCAA201210846FE
:1007500003F0E1FCA7A20121032003F0DCFCA5A229
:100760000121052003F0D7FCA2A20121072003F0FC
:10077000D2FC2020A649087015E015E002E009E04F
:1007800010E00BE02920A24908700CE02220A049CB
:10079000087008E001209E49087004E005209C498B
:1007A000087000E000BF00BF10BD10B501F08FFD64
:1007B000F8B14CF2503001F087FD03F024FB95A214
:1007C0000121084603F0A7FCADA20121032003F09C
:1007D000A2FCAE48AEA10268B04806F04DF8AF4AA0
:1007E0000121052003F097FCADA20121072003F0B1
:1007F00092FC85480078002850D00020824908707B
:1008000003F0ECFD8149087008460078222812D0D8
:10081000A82804D0C22812D0E0283ED105E09B4889
:1008200000680A309949086037E0984800680A383B
:100830009649086031E01B20754908702DE003F0EF
:10084000E2FA74A20121084603F065FC8CA20121A2
:10085000032003F060FC8D488DA102688F4806F0EC
:100860000BF88E4A0121052003F055FC8FA20121CF
:10087000072003F050FCC82001F067FC062003F0BD
:1008800065FFC82001F089FC062003F05FFF01F03E
:1008900055FC1D205E49087000BF00BF10BD2DE94A
:1008A000FC5F01F00AFD00287ED0642001F002FD0B
:1008B00001F0EAFE064600227E4B07F05BFF7E4A0F
:1008C00003C217E000227B4B7B4903C908F086FB7B
:1008D00008D20022794B784903C908F0C1FB764A57
:1008E00003C207E00022754B734903C907F042FFBA
:1008F000714A03C2704903C904F048F80646002251
:100900006C4B08F06BFBDDD301F07DFE06464FF02B
:1009100033326B4B08F064FA6A4A03C203F036F8CC
:10092000694A03C217E00022624B674903C908F015
:1009300055FB08D20022614B634903C908F090FBC4
:10094000614A03C207E000225C4B5F4903C907F01C
:1009500011FF5D4A03C25C4903C904F017F806465B
:100960000022544B08F03AFBDDD302F093FF064619
:100970004FF03332524B08F033FA544A03C2544A10
:10098000544B4D4903C908F02BFA06460022494B47
:1009900007F0ACFF504A03C24D4A4E4B494903C9C8
:1009A00008F01EFA064600E032E10022414B07F053
:1009B0009DFF4A4A03C2484903C907F0CFFD80465C
:1009C0000022474B08F04CFB06460022454B08F03E
:1009D00007FA89E0D0FDD7AAB5B9C1A2B0DACFB580
:1009E000CDB30000C7EBBBD8B5BDD4ADB5E32E2E5B
:1009F0002E00000000000000506C6179BCFCBDF8C6
:100A0000C8EBB2CBB5A50000650500205C05002051
:100A100018000020312CCDF9B8B4D4CBB6AF00000B
:100A200032B9CCB6A8CEBBD6C3C6F4B6AF00000070
:100A3000332CCFC2B4B9C6F4B6AF000034B5B9C1D7
:100A4000A2D4CBB6AF35C6E4CBFB0000C7EBD7AA28
:100A5000B6AFB5BD313635B6C8000000332CC8BBC3
:100A6000BAF3CBC9CAD60000C7EBD7A2D2E2B0B264
:100A7000C8AB0000342CB5B9C1A2D4CBB6AF0000CE
:100A8000C7EBCAE4C8EBBDC7B6C8000068000020C9
:100A9000C4BFB1EAA3BA256400000000D02600203C
:100AA000504C4159BCFCC8B7C8CF0000D6B4D0D018
:100AB000D6D00000008066404000002000807640D4
:100AC0003333E33F5800002038000020600000204E
:100AD0007F36CD96072409404800002050000020B2
:100AE0000000F03F00A07E4082468B46FE480CC8C6
:100AF0000020FE4908F074F90646FB480CC8304651
:100B000008F06EF952465B46CDE9000107F032FE6F
:100B1000F74A03C2F7490968C1F1B40008F0A9F81F
:100B20008046F54AF54B08F05BF906460022F44B87
:100B300007F0DCFE04460D462046294607F00EFD70
:100B400080460022EF4B08F08BFA06460022EE4B5F
:100B500008F046F9ED4A03C2ED4903C907F0FEFC6F
:100B60008046E1480CC8404608F03AF906460022A3
:100B7000134608F033FA12D2E448DD490CC803C921
:100B800008F06EFA81F0004106460022E14B08F0C1
:100B900027F9804608F03EF8DF49086233E0DC4977
:100BA00003C907F0DBFC8046CF480CC8404608F07C
:100BB00017F906460022134608F0D6F810D2D3489B
:100BC000CB490CC803C908F04BFA06460022D14BAA
:100BD00008F006F9804608F01DF8CF49086212E0D7
:100BE000CB4903C907F0BAFC8046BF480CC8404651
:100BF00008F0F6F806460022134607F0CFFF02D1B0
:100C00000020C5490862C449098C08B201F0B8FA4D
:100C1000C2480078D0B10020C049087003F0DEFB64
:100C2000BF49087008460078222802D0C2280CD19B
:100C300005E001F083FA1C20BA49087005E001F0D4
:100C40007DFA0120B749087000BF00BFBDE8FC9FD6
:100C500070B501F032FB002853D0642001F02AFB6C
:100C600001F012FD04460022A54B07F083FDAE4AB9
:100C700003C20022A24BAC4903C908F0AFF908D265
:100C80000022AA4BA84903C908F0EAF9A64A03C200
:100C90000EE000229A4BA44903C908F065F807D278
:100CA0000022A24BA04903C907F064FD9E4A03C27B
:100CB00001F0EAFB04464FF033329D4B08F090F808
:100CC0009C4A03C2984903C903F060FE044600220F
:100CD000994B08F083F901D2012600E000269549DE
:100CE00003C903F053FE04460022944B08F076F942
:100CF00001D2012000E00020064016B11F208949E2
:100D0000087001F0E4FA08B34CF2503001F0DCFA5C
:100D100003F079F8AFF2F8220121084603F0FBF95D
:100D2000AFF2D8220121032003F0F5F97E4884A117
:100D30000CC8864805F0A0FD844A0121052003F077
:100D4000EAF983A20121072003F0E5F9734800784E
:100D5000D0B100207149087003F040FB7049087061
:100D600008460078222802D0C2280CD105E001F004
:100D7000E5F91B206B49087005E001F0DFF901205F
:100D80006849087000BF00BF70BD2DE9F04F89B001
:100D900001F093FA002875D0642001F08BFA01F07D
:100DA00073FC04460022564B07F0E4FC5E4A03C283
:100DB00017E00022524B5C4903C908F00FF908D232
:100DC00000225A4B584903C908F04AF9564A03C24F
:100DD00007E00022554B544903C907F0CBFC524AA7
:100DE00003C2514903C903F0D1FD04460022444B1C
:100DF00008F0F4F8DDD301F006FC04464FF033327E
:100E00004B4B07F0EDFF4B4A03C202F0BFFD544AC3
:100E100003C217E000223A4B514903C908F0DEF83B
:100E200008D20022414B4E4903C908F019F94C4A37
:100E300003C207E000223D4B494903C907F09AFC71
:100E4000474A03C2464903C903F0A0FD04460022F5
:100E50002B4B08F0C3F8DDD302F01CFD04464FF025
:100E60003332334B07F0BCFF3E4A03C22E4903C95D
:100E700003F08CFD044600223B4B07F075FF02D2C5
:100E8000012601E032E100262A4903C903F07EFD74
:100E900004460022354B07F067FF01D2012000E035
:100EA00000200640002E69D022480CC84FF0804038
:100EB0002F4907F095FF04460D462A480CC84FF00D
:100EC00040402C4907F08CFF8046894616480CC8E4
:100ED0004FF02040284907F083FFCDE9000120486A
:100EE0000CC84FF060404AE050000020000008406D
:100EF00098000020680000207F36CD960724094026
:100F0000008066400000F03F00A07E40A00000206E
:100F100048000020000024409805002065050020BE
:100F20005C05002018000020400000200080764072
:100F30003333E33F580000200000314000005940A7
:100F4000B5B1C7B0A3BA256600000000D0260020C6
:100F5000B7C5CAD6D7A2D2E2B0B2C8AB0000000073
:100F6000380000206000002000003E4000409F400C
:100F7000DF4F2340AA2F22C0459A5B4025E0FE495F
:100F800007F02EFF8246DDE9002307F0F3FB42461F
:100F90004B46CDE9020107F0EDFB064622462B4603
:100FA00007F0E8FB81F000410022F44BCDE9040199
:100FB00007F09CFCCDE9060107F02CFEF049086221
:100FC000098C08B201F0DCF890E0EE4AEE4BEF49F4
:100FD00003C907F005FF04460022ED4B07F086FC2D
:100FE000EC4A03C2E74AE84BEB4903C907F0F8FEB5
:100FF00004460022E64B07F079FCE84A03C2E549C3
:1010000003C907F0ABFA82460022E54B08F028F846
:1010100006460022E34B07F0E3FE80468946DF48A0
:101020000CC80020E04907F0DBFE0646DB480CC890
:10103000304607F0D5FE044642464B4607F09AFB81
:10104000DA4A03C2D34903C907F088FA0646D348EF
:101050000CC8304607F0C4FE04460022134607F0D1
:10106000BDFF0FD2D149D1E9006181F000410022DA
:10107000CF4B304607F0B4FE044607F0CBFDC04925
:1010800008622EE0C34903C907F068FA0646C34860
:101090000CC8304607F0A4FE04460022134607F0B1
:1010A00063FE0BD20022C24BC04903C907F098FE71
:1010B000044607F0AFFDB249086212E0B54903C922
:1010C00007F04CFA0646B5480CC8304607F088FED3
:1010D00004460022134607F061FD02D10020A84912
:1010E0000862A749098C08B201F04AF8B1480078B3
:1010F00010B30020AF49087003F070F9AE490870D2
:101100000846007802280FD0222807D0C22812D122
:1011100001F014F80120A94908700CE001F00EF864
:101120001B20A649087006E0B420A54908602120CC
:10113000A249087000BF00BFA248007801281CD156
:101140000020A0490870A0490870A04A10605060B3
:1011500000219F4A1160516021209849087002F0D7
:1011600052FE9CA20121084602F0D5FF9CA201215B
:10117000032002F0D0FF00F00EFF09B0BDE8F08FB1
:1011800010B501F0A4F8002820D04CF2503001F046
:101190009BF802F038FE8FA20121084602F0BBFF47
:1011A00090A20121032002F0B6FF9248AFF2702115
:1011B0000CC8914805F060FB8F4A0121052002F020
:1011C000AAFF8EA20121072002F0A5FF794800782E
:1011D000002856D000207749087003F0FFF87649C0
:1011E000087008460078C22830D006DC222841D09A
:1011F000A22822D0A82843D104E0E0280BD0E2287E
:101200003ED111E00022804B7A4903C907F0B2FABF
:10121000784A03C234E000227B4B764903C907F0C9
:101220001FFF744A03C22BE00022784B714903C9A7
:1012300007F0A0FA6F4A03C222E00022734B6D4907
:1012400003C907F00DFF6B4A03C219E0C82000F084
:101250007CFF042003F07AFA4FF47A7000F09DFFCF
:10126000042003F073FA00205749087021205349E5
:10127000087005E000F062FF1B205049087000BFB5
:1012800000BF10BD2DE9F04F8DB001F016F8002819
:1012900070D0642001F00EF800F07DFE01F0F4F94A
:1012A000044600223A4B07F065FA384A03C217E0B9
:1012B0000022374B354903C907F090FE08D20022BF
:1012C000524B324903C907F0CBFE304A03C207E054
:1012D00000224E4B2D4903C907F04CFA2B4A03C29A
:1012E0002A4903C903F052FB04460022284B07F0A9
:1012F00075FEDDD301F087F904464FF03332444BDD
:1013000007F06EFD244A03C202F040FB414A03C2CB
:1013100017E000221E4B3F4903C907F05FFE08D2C9
:1013200000223A4B3B4903C907F09AFE394A03C2EF
:1013300007E00022354B374903C907F01BFA354A4D
:1013400003C2344903C903F021FB04460022104BB9
:1013500007F044FEDDD302F09DFA04464FF033322D
:101360002B4B07F03DFD2C4A03C2084903C903F08B
:101370000DFB53E0A6E1000002A922C000001440CA
:10138000980500207F36CD960724094040000020B4
:1013900000806640480000205800002050000020D7
:1013A0000000F03F00A07E400000084098000020B0
:1013B00000001840650500205C0500201800002092
:1013C0006800002066050020310000208000002019
:1013D00088000020B5B9C1A2D4B2D6DCD4CBB6AF58
:1013E00000000000CAE4C8EBD7AAB5C4BDC7B6C8A0
:1013F0000000000070000020D0260020504C415911
:10140000BCFCCDEAB3C90000000024400080764057
:101410003333E33F38000020600000200446002200
:10142000F64B07F0A1FC01D2012600E00026F449AA
:1014300003C903F0ABFA04460022F24B07F094FC18
:1014400001D2012000E000200640002E7DD0EE49B0
:1014500003C903F09BFA04460022EC4B07F0BEFDE3
:101460003FD2E7480CC84FF08040E94907F0B8FC8C
:1014700006460F46E7480CC84FF04040E64907F0E3
:10148000AFFCCDE90801E5480CC84FF02040E44925
:1014900007F0A6FCCDE90401DB480CC84FF0604022
:1014A000E04907F09DFC8046DDE9042307F062F97E
:1014B000CDE90601DDE9082307F05CF932463B4639
:1014C000CDE90A0107F056F981F0004104460022F7
:1014D000D54B07F00BFA824607F09CFBD349086214
:1014E00059E0D34AD34BD44903C907F043F9D24A50
:1014F00003C2C3480CC84FF08040C54907F070FCD8
:1015000004460D46C3480CC84FF04040C24907F09E
:1015100067FC80468946C1480CC84FF02040C0494E
:1015200007F05EFCCDE90001B7480CC84FF0604001
:10153000BC4907F055FC8246DDE9002307F01AF9A3
:1015400042464B46CDE9020100E02AE007F012F9DD
:10155000064622462B4607F00DF90022B24BCDE994
:10156000040107F0C3F9CDE90801B349D1E900410D
:1015700081F000410022B14B204607F031FCCDE95B
:101580000601DDE9082307F06BFDCDE90A0107F04C
:1015900041FBA6490862A549098C08B200F0F0FD9C
:1015A00090E0A74AA74B9D4903C907F019FC0446E0
:1015B0000022A54B07F09AF9A44A03C2A04AA14B06
:1015C0008F4903C907F00CFC044600229E4B07F02C
:1015D0008DF99F4A03C29D4903C906F0BFFF8246A9
:1015E00000229C4B07F03CFD064600229A4B07F078
:1015F000F7FB04460D4696480CC80020974907F0B3
:10160000EFFB064692480CC8304607F0E9FB8046DF
:1016100022462B4607F0AEF8914A03C28B4903C914
:1016200006F09CFF06468A480CC8304607F0D8FBF7
:1016300004460022134607F0D1FC0FD28849D1E9B5
:10164000006181F000410022864B304607F0C8FB64
:10165000044607F0DFFA754908622EE07B4903C9AA
:1016600006F07CFF06467A480CC8304607F0B8FB07
:1016700004460022134607F077FB0BD20022794B79
:10168000774903C907F0ACFB044607F0C3FA674982
:10169000086212E06D4903C906F060FF06466C4817
:1016A0000CC8304607F09CFB04460022134607F0A6
:1016B00075FA02D100205D4908625C49098C08B2C4
:1016C00000F05EFD6848007818B300206649087095
:1016D00002F084FE654908700846007802280FD0A1
:1016E000222807D0C22813D100F028FD012060492C
:1016F00008700DE000F022FD1B205D49087007E036
:1017000000214D4A1160516000205A49087000BF05
:1017100000BF5948007801280DD1002056490870B3
:10172000544908700021554A11605160424A1160C5
:10173000516000F030FC0DB0BDE8F08F70B500F0E6
:10174000BCFD10B3642000F0B5FD00F09DFF044621
:1017500000223D4B07F00EF8304A03C200F094FE21
:10176000044600223F4B07F03BFB254A03C202F030
:101770000DF9254A03C201F0D8FF04464FF0333279
:101780003F4B07F02DFB234A03C200F0A0FD0028C9
:1017900033D04CF2503000F097FD02F034FB1F487C
:1017A00038A10CC83A4805F067F8394A01210520EC
:1017B00002F0B1FC124837A10CC8354805F05CF8BE
:1017C000334A0121072002F0A6FC0F4833A10CC8C0
:1017D0002F4805F051F82E4A0121084602F09BFCE3
:1017E0000C4831A10CC82A4805F046F8284A0121C6
:1017F000032002F090FC00F0E3FB70BD00003E40CF
:101800005800002000409F40380000200040664003
:10181000DF4F234060000020AA2F22C0400000209C
:10182000459A5B4002A922C00000144098050020A0
:101830007B14AE47E17A843F8800002000003240EC
:101840007F36CD960724094000806640480000207E
:10185000500000200000F03F00A07E400000084043
:101860009800002000001840650500205C0500205D
:1018700018000020310000206605002080000020B4
:101880003333E33F616C7068613A25660000000005
:10189000D026002056613A25660000007468657401
:1018A000613A2566000000005674686561743A2547
:1018B000660000007047704770B500F0FEFC00281D
:1018C0002FD0642000F0F6FC01F02FFF044606F054
:1018D0001FFFF949C860F9480068B0F57A7F0CDA53
:1018E000C86807F0F7FDF649F44A126841F822008B
:1018F000F2480068401CF1490860EF4AD1689068DE
:1019000007F0FCFE0646EF4901F0D2F8044607F066
:1019100081F9E9490862098C08B200F031FC00F055
:1019200064FBE948007840B30020E749087002F002
:1019300055FDE649087008460078A82804D0C2285A
:1019400012D0E02818D107E0DB498868E04907F0A9
:101950009DFCD94988600FE0D7498868DC4907F0C9
:10196000CDFED549886007E000F0E8FB00F01DFCE3
:101970000020D849087000BF00BF70BD2DE9F04FAE
:1019800087B000F09AFCE8B1642000F093FC01F00D
:10199000CCFE044606F0BCFEC749C8600A46D168C2
:1019A000906807F0ABFE0646C64901F081F8044690
:1019B00007F030F9C0490862098C08B200F0E0FB7A
:1019C00000F013FB00F06FFC002867D04FF47A7032
:1019D00000F066FCB9490968C1EB0111480007F045
:1019E00048F98046BC4ABD4B07F0FAF9824600220E
:1019F000BB4B06F07BFF064606F006FE04460022BF
:101A0000B84B07F0EDF9AC4AC2E90401AB480068F5
:101A1000B0F57A7F18DA1146C86807F05BFDA8496F
:101A2000A64A126841F82200A348D0E906211046D0
:101A300007F0F0F8AC49A14A126841F822009F482B
:101A40000068401C9D49086001F0A0FF9A4AC2E965
:101A500006011046A54AD0E90431184601F046F9BE
:101A6000804689469448D0E906432246D0E904617D
:101A7000304607F0F5FACDE9000106F049FE9C4931
:101A8000039000F0C8FF824642464B4606F072FEC5
:101A9000CDE9040106F03CFE874988608A48007859
:101AA00098B100208849087002F098FC87490870B6
:101AB00008460078C22807D100F040FB00F075FB13
:101AC00000208449087000BF00BF07B0BDE8F08F58
:101AD00010B500F0FCFB88B14CF2503000F0F4FB84
:101AE00002F091F983A20121052002F014FB854A3E
:101AF0000121072002F00FFB00F062FA8248007813
:101B000058B10020804908708048027880A17D4843
:101B100004F0B2FE0A2002F019FE6B48007878B19A
:101B200000206949087002F059FC684908700846AD
:101B3000027877A1734804F09FFE724804F090FE8B
:101B400010BD70B5642400F0B8FB80B1642000F0D3
:101B5000B1FB01F0EAFD054606F0DAFD5649C86022
:101B600000F051FD054606F0D3FD6A49C86000F05B
:101B70009AFB68B14FF47A7000F092FB01F006FF17
:101B80004D4AC2E9060100F07FFD624AC2E9060142
:101B900000F09DFB002842D04CF2503000F094FB46
:101BA00002F031F94448D0E906532A465AA1554873
:101BB00004F062FE534A0121052002F0ACFA3E49CE
:101BC000C86807F037FB05462A460B46AFF23C31A2
:101BD0004C4804F051FE4B4A0121072002F09BFAC9
:101BE0004C48D0E906532A464DA1464804F044FE2D
:101BF000444A0121084602F08EFA4649C86807F0B7
:101C000019FB05462A460B4647A13E4804F034FE20
:101C10003C4A0121032002F07EFA00F0D1F93A4853
:101C2000007838B300203849087038480078042814
:101C30001AD004DC012807D002281AD108E00928AC
:101C40000AD00A2815D10BE0C82000F07EFA10E077
:101C5000C82000F0B1FA0CE0C82000F09EFA08E0BD
:101C6000C82000F0CBFA04E000F068FA00F09DFA1A
:101C700000BF00BF14480078E0B10020124908708E
:101C800002F0ACFB1149087008460078A82856D02D
:101C900004DC18284CD0302860D104E0C22858D089
:101CA000E0285BD150E0A0B200F04FFAA0B200F003
:101CB00083FA53E053E00000980500202C00002038
:101CC00090070020E8050020650500205C05002045
:101CD00000002041180000207F36CD9607240940DF
:101CE00000408F4000003E40301700205007002089
:101CF00078060020B0B4BCFCD3EBBAECCDE2B2E283
:101D0000CAD40000D02600201101002012010020BA
:101D100025640000C005002050613A2566000000DF
:101D200050623A256600000056623A2566000000BF
:101D3000A0B200F032FAA0B200F060FA0EE0643413
:101D4000A0B200F002FA09E0643CA0B200F0FDF994
:101D500004E000F0F3F900F028FA00BF00BF70BD06
:101D600010B500F096FA38B14CF2503000F08EFA0F
:101D700000F011F900F024F910BD10B500F0A7FA39
:101D800040B14CF2503000F09FFA02F03CF84D4860
:101D900002F064F810BD10B500F0A3FA20B10120E4
:101DA00000F09CFA00F021F910BD2DE9F04100F09F
:101DB0008EFA002839D04CF2503000F085FA02F04B
:101DC00022F802F01BFC0446002C13DA604204B235
:101DD000204607F09BFB80463B4907F0B9FA0546D1
:101DE00007F028FA064632460B4638A13A4804F076
:101DF00043FD10E0204607F089FB8046324907F09A
:101E0000A7FA054607F016FA064632460B4633A1F6
:101E1000314804F031FD34A20121084602F000FAF5
:101E20002D4A0221084602F0FBF9BDE8F08170B5A9
:101E300000F043FAD8B1642000F03CFA01F075FCE0
:101E4000044606F065FC2C49C8602C480068B0F5D3
:101E50007A7F0CDAC86807F03DFB2949274A1268E7
:101E600041F8220025480068401C244908602548A4
:101E7000007830B300202349087002F0AFFA2249FD
:101E800008700846007890281AD100201B49086085
:101E900010E01B481949096850F821201BA10E4881
:101EA00004F0EAFC0C4804F0DBFC14480068401C19
:101EB0001249086011480068B0F57A7FE9DB00BF7D
:101EC00000BF70BD5801002000002041543A2D256C
:101ED000332E3266202E4300D0260020543A25337C
:101EE0002E3266202E430000544553545F44533134
:101EF0003842323000000000980500202C000020FD
:101F000090070020650500205C05002025640A007C
:101F100008B50121082003F081F90120ADF8000087
:101F200010208DF8030003208DF8020069463A481E
:101F300002F0B8FE0121384802F061FF01212020A3
:101F400003F06CF90420ADF8000010208DF80300B8
:101F500003208DF802006946304802F0A3FE0421F8
:101F60002E4802F04CFF0121042003F057F94FF4F2
:101F70000040ADF8000010208DF8030003208DF81C
:101F800002006946264802F08DFE4FF400412448C5
:101F900002F035FF08BD20480C30006880F00100D9
:101FA0001D490C310860704710B501211A4802F034
:101FB00028FF10BD10B50121174802F020FF10BD09
:101FC00016480C30006880F0040014490C31086099
:101FD000704710B50421114802F013FF10BD10B571
:101FE00004210E4802F00BFF10BD0D480C300068B4
:101FF00080F400400A490C310860704710B54FF476
:102000000041074802F0FDFE10BD10B54FF400413D
:10201000034802F0F4FE10BD000C01400014014022
:1020200000080140F0B589B00027002400250026F3
:102030000121042003F0FFF80121042003F0EEF851
:102040000121092003F0EAF84FF47070ADF8200088
:1020500018208DF8230003208DF8220008A96B4872
:1020600002F020FE02206A4908804FF47A70ADF831
:10207000180008460088ADF814000020ADF81A00DA
:10208000ADF8160005A9634803F086FB6020ADF8A3
:1020900004000120ADF80600ADF80A700020ADF88C
:1020A0000C0001A95B4803F0B4FB0821594803F078
:1020B000FFFFADF80A4001A9564803F0ECFB0821E8
:1020C000544803F0FEFFADF80A5001A9514803F04F
:1020D0002FFC08214F4804F001F8ADF80A6001A96F
:1020E0004C4803F070FC08214A4804F000F8012134
:1020F000484803F0ADFF0121464803F0A9FE09B0AE
:10210000F0BD08B50121082003F088F82020ADF8C3
:10211000000010208DF8030003208DF802006946AE
:102120003A4802F0BFFD2021384802F06AFEFFF76E
:1021300079FF2021354802F062FE08BD00203549B4
:1021400034310880091D088070470021314A34323B
:102150001180111D088070470A2800DA0020002134
:102160002C4A38321180111F088070470A2800DA83
:1021700000200021274A34321180111D0880704749
:1021800000B50346002B03DB98B2FFF7EFFF03E037
:10219000594288B2FFF7E0FF00BD1E493431088084
:1021A00000211C4A383211807047002019493C3107
:1021B0000880091D088070470021164A3C321180B2
:1021C000111D088070470021124A40321180111FF2
:1021D0000880704700210F4A3C321180111D088091
:1021E000704700B50346002B03DB98B2FFF7F2FF00
:1021F00003E0594288B2FFF7E6FF00BD05493C31D4
:1022000008800021034A403211807047000C0140D1
:10221000A80000200008004030B54C4800684C4A37
:10222000B0FBF2F1B1F1807F01D301201DE021F07C
:102230007F40401E4FF0E022506150170F220028CF
:1022400007DA13071D0E434B00F00F04241F1D5522
:1022500003E013071C0E404B1C5400BF00204FF03E
:10226000E022906107201061002008B100BFFEE766
:102270004FF0E020006940F001004FF0E0210861DC
:102280000846006940F00200086130BD334908800B
:1022900070473248008808B9012070470020FCE7E9
:1022A0002F49088070472E48008808B901207047E0
:1022B0000020FCE72B49088070472A48008808B9AD
:1022C000012070470020FCE7274908807047264816
:1022D000008808B9012070470020FCE723490880E6
:1022E00070472248008808B9012070470020FCE7A9
:1022F0001F480068401E1E4908601C48008820B125
:102300001A480088401E194908801648008820B1E4
:1023100014480088401E134908801148008820B1E5
:102320000F480088401E0E4908800C48008820B1E4
:102330000A480088401E094908800B48008820B1DF
:1023400009480088401E08490880704700000020A6
:10235000A086010018ED00E000E400E0B0000020DD
:10236000AC000020AE000020B2000020B40000202D
:10237000B8000020002006E00022F14B03EBC00370
:102380001A605A60401C0728F6D30121ED4A1160FB
:10239000704700B589B00121084602F04CFF0121C9
:1023A000042002F03BFF02A802F007FD0320ADF875
:1023B000080004208DF80B0002A9E34802F072FC2B
:1023C0001C208DF8040001208DF8050000208DF8F8
:1023D000060001208DF8070001A802F00CFB4FF069
:1023E000804003F005F90020ADF8180040F69F701A
:1023F000ADF81C000020ADF81E00ADF81A0006A9CB
:102400004FF0804003F0C8F900231A4603214FF033
:10241000804003F0D0FD03A803F0FDFC0620ADF8DA
:10242000140003A94FF0804003F049FC0420ADF8EC
:102430000C0003A9000703F042FC0121880703F008
:10244000CDFF01221146900703F01DFD00204FF043
:1024500080418884FFF78EFF0021BC4A11605160E3
:10246000BB4A116051600020BA490870BA4908801F
:102470000120B44908600020B8490860012188079C
:1024800003F0E6FC09B000BD2DE9F04F89B0AD487E
:10249000006800287DD1B048B0F800A04FF080401F
:1024A000808C0790AC48B0F800B04FF08040808C32
:1024B00006900020A84908804FF08041888C06F0E3
:1024C00040FC04460D46A448008848B14FF08041C6
:1024D000888C06F036FC04460D4600209E49088094
:1024E000DA4502D006980790DA464FF0804000881F
:1024F00000F0100010281BD14FF47A610AFB01F0A4
:1025000006F0B7FBCDE90401079806F01AFCCDE907
:1025100000018E4802684368009806F0A1FDCDE9ED
:102520000201DDE9042306F09BFD804689461AE09E
:102530004FF47A610AFB01F006F09BFBCDE9040140
:10254000079806F0FEFBCDE9000180480268436869
:10255000009806F085FDCDE90201DDE9042306F0CF
:1025600009F98046894600227D4B4046494606F0DF
:1025700037FCCDE9040107F037F906460F464FF462
:1025800016714FF0000C3246A2FB010E07FB01E171
:1025900000E014E006FB0C1706464FF47A620023B5
:1025A0003046394604F037F906460F46012200232B
:1025B0003046394604F02FF906460F4619E0002050
:1025C0006049086000263746634908804FF0804123
:1025D000888C06F0B6FB04460D465F48008840B183
:1025E0006049088806F0ADFB04460D4600205A49B4
:1025F00008805648046045603046394606F050FB76
:1026000009B0BDE8F08F2DE9F041FFF73DFF04462A
:102610000D464B484F49097800EBC10214605560E4
:102620004C480078401C4B49087008460078072841
:1026300001D1002008700024254600260CE0404807
:1026400000EBC600076843683A462046294606F074
:1026500091F804460D46761C072EF0D30022424B1B
:102660002046294606F042F904460D46384A1460D1
:1026700055601046016840683C4A1160506034491A
:1026800008684968BDE8F0812DE9F0414FF08040CD
:1026900003F095FE31490968890001EB4102C2EB64
:1026A000C11100EBC104204606F0E3FA05460E46D0
:1026B00000222F4B2846314606F092FB07460022A7
:1026C0002C4B06F013F9BDE8F08110B50121880705
:1026D00003F084FE204800884FF6FF71884204D042
:1026E0001D480088401C1C4908801C4800686FF089
:1026F0000041884201D1012000E00020174909680B
:10270000B1F1004F01D1012100E00021084390B94F
:102710004FF08040008800F01000102805D10F48CD
:102720000068401E0D49086008E00C480068401C25
:102730000A49086002E000200849086010BD000056
:10274000E0260020C000002000080140C800002052
:10275000D0000020D8000020DA000020DC0000209B
:1027600000F08E402404004000001C40F0000020D7
:102770000080564000408F404FF07E50F84908607E
:10278000F848486000208860C8600021F44A11635E
:102790005163F549C2E90E01F449C2E910019061A3
:1027A000D061F349F348C2E908100020F249C2E9B8
:1027B0000A01F248F249086000204860F148886048
:1027C0000020C8600021EE4A11635163EE48C2E95F
:1027D0000E10EE48C2E910109161D161E448E5495C
:1027E000C2E908010021E448C2E90A104FF07F5015
:1027F000E749086000204860E349E54AC2E90C0166
:102800000021E248C2E90E10704700228261C261D5
:1028100070472DE9F34F85B00C46059806F029FA6C
:102820000746D4E906532A4605F0A4FFC4E9060189
:10283000D4E908532A46D4E90671384606F0CEFB9F
:1028400004D2D4E90801C4E906010CE0D4E90A5332
:102850002A46D4E90671384606F086FA03D2D4E94E
:102860000A01C4E90601606806F0E4FC0746D4E901
:1028700006532A4606F0B4FACDE90201059806F09F
:1028800045FE0646216806F06DFE054606F0D2FCC0
:10289000CDE90001DDE9022305F06CFF824606F078
:1028A000B9F98146484606F0E4F90746D4E90E53E3
:1028B0002A4606F093FB06D2D4E90E21104606F014
:1028C000A9F981460FE0484606F0D3F90746D4E956
:1028D00010532A4606F048FA05D2D4E910211046D2
:1028E00006F098F98146484607B0BDE8F08F2DE91B
:1028F000F34F85B00C46059806F0BBF90746D4E9BE
:1029000006532A4605F036FFC4E90601D4E9085308
:102910002A46D4E90671384606F060FB04D2D4E9B1
:102920000801C4E906010CE0D4E90A532A46D4E9B7
:102930000671384606F018FA03D2D4E90A01C4E950
:102940000601606806F076FC0746D4E906532A467D
:1029500006F046FACDE90201059806F0D7FD0646D5
:10296000216806F0FFFD054606F064FCCDE9000194
:10297000DDE9022305F0FEFE824606F04BF98146B2
:10298000484606F076F90746D4E90E532A4606F083
:1029900025FB06D2D4E90E21104606F03BF981460C
:1029A0000FE0484606F065F90746D4E910532A4679
:1029B00006F0DAF905D2D4E91021104606F02AF91A
:1029C0008146484607B0BDE8F08F2DE9F0478146C3
:1029D0000E464846316806F0C5FD074606F02AFC5B
:1029E00004460D46D6E90E733A462046294606F0BF
:1029F000F5FA02D2D6E90E4509E0D6E910733A4657
:102A00002046294606F0B0F901D2D6E91045204605
:102A10002946BDE8F0872DE9F04F89B083468A4604
:102A20005846DAF8001006F09DFD064606F002FC56
:102A3000CDE90601584606F0FDFB8046DAE90C6355
:102A4000324606F00DFBCDE90201DAF8080006F087
:102A5000F1FBCDE90001DDE9022306F0C1F9CDE982
:102A60000401584606F0E6FBCAE90C01DDE904233F
:102A7000DDE9060105F07EFE04460D46DAE90E6347
:102A800032462046294606F0A9FA02D2DAE90E4576
:102A900009E0DAE9106332462046294606F064F977
:102AA00001D2DAE910452046294609B0BDE8F08F89
:102AB0002DE9F34F83B08A46039806F0BBFBCDE9BE
:102AC0000001DAE906B35A4605F054FECAE90601E8
:102AD000DAE908B3DAE906015A46CDE9000106F061
:102AE0007DFA04D2DAE90801CAE906010DE0DAE963
:102AF0000AB3DAE906015A46CDE9000106F034F9D5
:102B000003D2DAE90A01CAE90601DAF8040006F09C
:102B100091FBCDE90001DAE906B35A4606F060F907
:102B200080468946DAF80010039806F01BFD8346BC
:102B300006F080FB06460F4632463B464046494675
:102B400005F018FE04460D46DAE90EB35A46204653
:102B5000294606F043FA1DD2DAE90E4524E00000CA
:102B6000E8050020CDCC4C3D00388F4000388FC0A8
:102B70000000C0FFFFFFDF410000E0C10000F041A6
:102B8000780600200000A0400020AC400020ACC02F
:102B900050070020DAE910B35A462046294606F0CD
:102BA000E3F801D2DAE910452046294605B0BDE830
:102BB000F08F2DE9F34F89B08A46DAF8100006F05D
:102BC00039FBCDE90401099806F034FBCDE9000199
:102BD00001F0DCFECDE90201DDE9042306F0C4F8D2
:102BE0000BD2099806F026FBCDE90401DAE906B319
:102BF0005A4605F0BFFDCAE90601DAE908B3DAE989
:102C000006015A46CDE9040106F0E8F904D2DAE9F2
:102C10000801CAE906010DE0DAE90AB3DAE90601BA
:102C20005A46CDE9040106F09FF803D2DAE90A0119
:102C3000CAE90601DAF80010099806F093FC834609
:102C400006F0F8FA06460F46DAF8040006F0F2FA43
:102C5000CDE90401DAE906B35A4606F0C1F8804628
:102C60008946099806F0E6FACDE90001DAE90CB3E5
:102C70005A4606F0F5F9CDE90401DAF8080006F045
:102C8000D9FACDE90201DDE9042306F0A9F8CDE97E
:102C90000601099806F0CEFACAE90C0142464B46F5
:102CA0003046394605F066FDCDE90401DDE906232D
:102CB00005F060FD04460D46DAE90EB35A4620469B
:102CC000294606F08BF902D2DAE90E4509E0DAE985
:102CD00010B35A462046294606F046F801D2DAE9F2
:102CE0001045204629460BB0BDE8F08F2DE9F04F86
:102CF00087B006460F469246DAE9068342463046DA
:102D0000394606F0ADF9CAE90201DAE90A8342461A
:102D1000DAE902B1584606F0A3F9CAE90401CAE9A2
:102D20000667DAE90201CAE90A01DAF8040006F0E6
:102D300081FACDE90001DAE90483424606F050F851
:102D4000CDE90401DAF8000006F074FACDE90001DB
:102D5000DAE90283424606F043F8CDE90201DDE9F3
:102D6000042305F007FD04460D46DAE90C834246CC
:102D70002046294606F032F902D2DAE90C4509E08C
:102D8000DAE90E8342462046294605F0EDFF01D2DE
:102D9000DAE90E452046294607B0BDE8F08F00006D
:102DA00010B588B047240121C80202F037FA01218A
:102DB000042002F033FA4FF46060ADF80400042000
:102DC0008DF8070003208DF8060001A9654801F081
:102DD00069FF1B208DF8000000208DF80100012004
:102DE0008DF802008DF80300684601F004FE1920FA
:102DF0008DF8000000208DF8010002208DF80200FF
:102E000001208DF80300684601F0F5FD4FF6FF70D4
:102E1000ADF81800ADF814400020ADF81A00ADF878
:102E2000160005A9504802F0B7FC012221464E4881
:102E300003F0B5F80420ADF808000020ADF80A0052
:102E40000120ADF80C000020ADF80E00ADF8100028
:102E500002A9454802F033FF0820ADF80800002021
:102E6000ADF80A000120ADF80C000020ADF80E000E
:102E7000ADF8100002A93C4802F021FF0C20ADF88B
:102E800008000020ADF80A000120ADF80C00002079
:102E9000ADF80E00ADF8100002A9334802F00FFFA4
:102EA00001221146304802F0EEFF01221C212E487B
:102EB00002F0E9FF01212C4802F0CAFF08B010BD62
:102EC00010B50821284803F08CFA01281AD10022F5
:102ED0000221254802F0D7FF0821234803F092FA87
:102EE000214803F065FA21490968C1EB0141084412
:102EF0001F4908601F480078401C1E490870FFF7F2
:102F00004AF81FE00421184803F06BFA012819D190
:102F10000421154803F076FA00220421124802F039
:102F2000B2FF114803F041FA10490968C1EB0141B1
:102F30000844114908600F480078401C0D4908708A
:102F4000FFF73EF801200D49086010BD10B50121C2
:102F5000054803F057FA05480068401C034908601B
:102F600010BD000000080140002C0140FC000020C2
:102F7000080100201001002004010020F8000020BA
:102F80001FB50121534801F05EFF0121112002F01D
:102F900045F90120ADF80C0048208DF80F0003A979
:102FA0004D4801F07FFE0021022001F091FF012039
:102FB000019000208DF808000C208DF809000120F8
:102FC0008DF80A0001A801F08DFD06208DF80000A3
:102FD00002208DF8010001208DF802008DF8030019
:102FE000684601F008FD1FBD10B53C480068D0B927
:102FF00000F0BFFA3A49087008460078FF2801D06F
:10300000012000E000203649097809B1012100E0E3
:103010000021084010B101203249087000BF2F483C
:1030200000680028FBD0012001F0D3FD10BD33B5AE
:1030300081B00446012002AB0246214600903820B0
:1030400000F05EF9054628463EBDF8B504460D463B
:1030500001202B46024621460090382000F0A8F9B6
:1030600006463046F8BD7CB504460D468DF8044052
:103070008DF80550022001AB012207210090382075
:1030800000F03EF9064630467CBD70B504460D465C
:1030900004F03F060DB146F0800631460120FFF7EF
:1030A000E2FF70BD2DE9F04705460E4617469846EB
:1030B00005F00F0949F0600908F01F040EB144F053
:1030C00080040FB144F0400421464846FFF7CBFF8F
:1030D000BDE8F087000230000010014000012242EC
:1030E000120100201101002008B50121102002F07A
:1030F00095F84FF40060ADF8000010208DF8030043
:1031000003208DF802006946D94801F0CBFD4FF449
:103110000061D74801F073FE4FF48050ADF8000015
:1031200010208DF8030003208DF802006946D04876
:1031300001F0B8FD4FF48051CD4801F060FE08BDAC
:1031400010B5CB48406820F47040C9494860084633
:10315000406840F4405048600120C64908603C2067
:1031600001F016FB0120C449C1F8B0013C2001F078
:103170000FFB0020BF4908603C2001F009FB002044
:10318000BD49C1F8B0013C2001F002FB10BD70B593
:1031900004460825B648406820F47040B4494860A9
:1031A0000846406840F44050486000BFE009B1491B
:1031B00008606006040E0120AF49C1F8B0013C2050
:1031C00001F0E6FA0020AB49091D08603C2001F03F
:1031D000DFFA681EC0B20500E8D170BD70B50825E1
:1031E000A348406820F47040A14948600846406800
:1031F00040F40040486000BF01209E49091D08605E
:103200003C2001F0C5FA6006040E9B48D0F82C0162
:1032100008B144F0010400209649091D08603C20D3
:1032200001F0B6FA681EC0B20500E5D1204670BDB7
:1032300010B58F48406820F470408D4948600846BA
:10324000406840F4004048603C2001F0A1FA0120B1
:103250008849091D08603C2001F09AFA8648D0F898
:103260002C01C4B200208349091D08603C2001F0F4
:103270008FFA204610BD10B504467D48406820F402
:1032800070407B4948600846406840F440504860C0
:10329000784804603C2001F07BFA01207649C1F8AF
:1032A000B0013C2001F074FA00207249091D086049
:1032B0003C2001F06DFA10BD10B56D48406820F457
:1032C00070406B4948600846406840F44050486090
:1032D0000020684908603C2001F05AFA0120664944
:1032E000C1F8B0013C2001F053FA012061490860A7
:1032F0003C2001F04DFA4FF4167001F049FA10BD70
:103300002DE9F84381460D4614461F46DDF820801E
:10331000B8F1000F02D10020BDE8F8834FEA496000
:10332000000E8DF80000022C00DD022424B1012CD7
:1033300003D0022C0CD104E00BE0E8B28DF80100C0
:1033400007E028128DF80100E8B28DF8020000E0D5
:1033500000BF00BF601CC4B2FFF7F2FE00260CE005
:103360001DF80600FFF713FFFFF762FF18B1FFF724
:10337000A3FF0120D0E7701CC6B2A642F0DB00BF5D
:1033800017F8010BFFF703FFFFF752FF00B105E04D
:10339000A8F1010080B25FEA0008F1D100BFFFF799
:1033A0008BFFB8F1000F01D10020B5E70120B3E792
:1033B0002DE9F84380460D4614461F46DDF820905F
:1033C000B9F1000F02D10020BDE8F8834FEA486050
:1033D000000E8DF80000022C00DD022404B3012C45
:1033E00003D1E8B28DF8010005E028128DF8010044
:1033F000E8B28DF80200601CC4B2FFF7A1FE0026FF
:103400000CE01DF80600FFF7C2FEFFF711FF18B130
:10341000FFF752FF0120D7E7701CC6B2A642F0DBCF
:10342000FFF78EFE9DF80010491CC8B2FFF7AFFEF3
:10343000FFF7FEFE18B1FFF73FFF0120C4E700BF12
:10344000FFF7CCFE07F8010BA9F1010080B25FEA9B
:10345000000903D10120FFF70EFF03E00020FFF772
:103460000AFFEDE700BFFFF727FF0020ACE70000F1
:1034700000100140AC0122420000224210B500249D
:1034800007E01F23002211462046FFF70BFE601CB9
:10349000C4B2082CF5DB10BD10B5FFF725FE4FF4C4
:1034A000967001F053F9FFF7E9FFFFF769FD10BDD2
:1034B00070B504460E46002C08DB042C06DCA00682
:1034C000050E31462846FFF7E0FD05E0E006050E53
:1034D00031462846FFF7D9FD70BD70B505460C464C
:1034E0000A2094FBF0F0C6B233460022114628466B
:1034F000FFF7D8FD06EB8600A4EB4000C6B2691CBE
:10350000C8B2334600221146FFF7CCFD70BD70B53E
:1035100006460C462046E11704EB1171C1F307156E
:103520002B46002211463046FFF7BCFDA4EB0510E8
:10353000C5B2711CC8B22B4600221146FFF7B2FD7E
:1035400070BD00BF1E4800780028FBD000201C4939
:1035500008701C4801780020FFF7BFFF1A48017867
:103560000320FFF7D4FF194801780620FFF7CFFFAB
:10357000E8E710B516490120FFF767FD1249022060
:10358000FFF763FD11490320FFF75FFD1048007846
:1035900010B10F48007810BD0C480078FF2801D00A
:1035A000012000E000200949097809B1012100E06B
:1035B0000021084010B105480078ECE70020EAE758
:1035C000110100201201002014010020150100202B
:1035D00013010020002006E00022FE4B03EBC00395
:1035E0001A605A60401C0728F6D30121FA4A11607C
:1035F000704700B589B00121022001F01CFE0121B5
:10360000102001F00BFE0121084601F007FE012108
:10361000F24801F018FC0121F14801F014FC02A865
:1036200001F0CBFBC020ADF8080004208DF80B00A2
:1036300002A9EC4801F036FB1D208DF804000120A2
:103640008DF8050000208DF8060001208DF8070098
:1036500001A801F0D0F9E44801F0CAFF0020ADF85C
:10366000180040F28F10ADF81C000020ADF81E00CD
:10367000ADF81A0006A9DC4802F08EF800231A46BD
:103680000321D94802F097FC03A802F0C4FB0620EE
:10369000ADF8140003A9D44802F011FB0420ADF8E2
:1036A0000C0003A9D04802F00AFB0121CE4802F029
:1036B00095FE01221146CC4802F0E5FB00204FF0B8
:1036C00080418884FFF786FF0021C84A116051605D
:1036D000C74A116051600020C6490870C649088079
:1036E0000120BD4908600021C44A116051600121D8
:1036F000BD4802F0ADFB09B000BD2DE9F041BA486C
:1037000002F05DFE804605F01CFB06464FF080424D
:10371000BB4B05F065FB04460D460022B94B204625
:10372000294605F0E3F8BDE8F0812DE9F04F89B0B6
:10373000A948006800287DD1AF48B0F800A0AA4889
:10374000243000880790AC48B0F800B0A648243078
:10375000008806900020A8490880A34924310888E1
:1037600005F0EFFA06460F46A348008848B19E4987
:103770002431088805F0E5FA06460F4600209E49E8
:103780000880DA4502D006980790DA469648008805
:1037900000F0100010281BD14FF4C8710AFB01F093
:1037A00005F067FACDE90401079805F0CAFACDE9FA
:1037B00000018E4802684368009805F051FCCDE98D
:1037C0000201DDE9042305F04BFC804689461AE03E
:1037D0004FF4C8710AFB01F005F04BFACDE9040182
:1037E000079805F0AEFACDE9000180480268436809
:1037F000009805F035FCCDE90201DDE9042304F071
:10380000B9FF8046894600227F4B4046494605F075
:10381000E7FA04460D4600227C4B2046294605F077
:10382000DFFA04460D460022794B2046294605F072
:103830005DF800E00BE004460D464FF08042754B0A
:103840002046294605F052F804460D461AE00020AD
:10385000614908600024254667490880624924318F
:10386000088805F06EFA06460F466348008848B19E
:103870005D492431088805F064FA06460F460020A9
:103880005D4908805948066047602046294609B0CE
:10389000BDE8F08F2DE9F041FFF747FF04460D46E4
:1038A0004C485449097800EBC102146055605148F6
:1038B0000078401C4F49087008460078072801D15D
:1038C000002008700024254600260CE0414800EB4B
:1038D000C600076843683A462046294604F04AFF76
:1038E00004460D46761C072EF0D300224A4B204694
:1038F000294604F0FBFF04460D463D4A146055601E
:10390000104601684068454A1160506038490868AF
:103910004968BDE8F0812DE9FE4F334802F04FFDC4
:10392000054605F00BFE04463D4905F011FD0290E9
:103930003C49029805F016FE80463B4905F008FD1B
:1039400007463A4905F004FD064605F073FC0022DF
:10395000374BCDE9000129490868496805F040FA6C
:1039600080460022334B04F0C1FF06460022324B52
:1039700004F0BCFF0446DDE9002304F0FBFE8246B0
:103980008B465046594603B0BDE8F08F2DE9F05FF5
:10399000154802F014FD804605F0D3F904460D46A3
:1039A0000022264B15490868496805F019FA804637
:1039B0000022234B05F014FA064622462B4604F05B
:1039C000D9FE82468B4600221E4B5046594605F0D2
:1039D00007FA39E018270020180100200002300003
:1039E000000C1A00001001400004004020010020DB
:1039F0002801002030010020320100203801002081
:103A0000E17A64410000F04000F08E4000C0824046
:103A1000000079401DD4314000001C4050010020BE
:103A20000000C8430080F74400001C4400000C4222
:103A300000F09E4000808340008041400000104024
:103A4000000059400080564004464FF04042434B2E
:103A500004F04CFFBDE8F09F70B5FFF797FF404AB8
:103A6000106051603F48026843683D4908684968F2
:103A700005F0F6FA04460D4600223B4B2046294647
:103A800005F0AEF904460D460022384B2046294683
:103A900005F0A6F904460D464FF08042344B20460F
:103AA000294604F023FF04460D462D49086849685D
:103AB0002C4A106051602046294670BD2D4802688E
:103AC000436810461946704710B501212A4802F094
:103AD00085FC2A4800884FF6FF71884204D02748A9
:103AE0000088401C25490880254A264B2149086842
:103AF000496805F053F801D1012400E000240022B8
:103B0000214B1C490868496805F048F801D101209B
:103B100000E000200443DCB91748008800F01000E2
:103B200010280AD10022194B12490868496805F08B
:103B300097FA104A106051600EE00022134B0D49B5
:103B40000868496804F016FE0A4A1060516003E0F4
:103B50000020084A1060506010BD00006DDB9B40E3
:103B6000480100204001002000F08E4000004E403F
:103B70001DD43140380100200004004032010020F3
:103B80000000C0FFFFFFDF410000E0C10000F03F88
:103B900000B587B00121082001F040FB18208DF806
:103BA0001B004FF40050ADF8180003208DF81A00E8
:103BB00006A9F74801F076F818208DF81B004FF49D
:103BC0008040ADF8180003208DF81A0006A9F048CF
:103BD00001F068F818208DF81B004FF40040ADF894
:103BE000180003208DF81A0006A9E94801F05AF8D8
:103BF00010208DF81B008001ADF8180003208DF80F
:103C00001A0006A9E24801F04DF810208DF81B00BB
:103C1000C001ADF8180003208DF81A0006A9DC4891
:103C200001F040F810208DF81B000220ADF81800BC
:103C300003208DF81A0006A9D54801F033F81020AA
:103C40008DF81B000002ADF8180003208DF81A0053
:103C500006A9CF4801F026F84FF40061CC4801F0E6
:103C6000CEF80121880301F0E6FACA4801F03AFBD8
:103C70000020ADF804004FF48270ADF8060000207B
:103C8000ADF808000220ADF80A000120ADF80C00E4
:103C90004002ADF80E001020ADF810000020ADF885
:103CA00012000720ADF8140001A9BA4801F040FB4A
:103CB0000121B84801F0E1FB07B000BD00BF0100E1
:103CC000A0F10100FBD1704710B504464FF48051BC
:103CD000AF4801F096F84FF40061AD4801F091F85B
:103CE00000BF0221AB4801F04CFC0028F9D021466E
:103CF000A84801F0F3FB00BF0121A64801F041FCF8
:103D00000028F9D0A34801F0EBFB4FF40061A04874
:103D100001F075F810BD10B504464FF480519C4871
:103D200001F06DF84FF40061994801F06AF800BFA6
:103D30000221984801F025FC0028F9D02146954839
:103D400001F0CCFB00BF0121924801F01AFC0028D1
:103D5000F9D0904801F0C4FB4FF400618C4801F0A9
:103D60004EF810BD10B5FFF713FF4FF400618848FF
:103D700001F047F84FF40061854801F040F8022156
:103D8000834801F03EF86420FFF798FF0221804845
:103D900001F035F86420FFF791FFE220FFF794FF70
:103DA0003220FFF78BFF2C20FFF78EFF3220FFF72A
:103DB00085FF2E20FFF788FF3220FFF77FFF2F209F
:103DC000FFF782FF3220FFF779FF2420FFF77CFF07
:103DD0008120FFF779FF1A20FFF776FFA220FFF777
:103DE00073FFC820FFF770FFA020FFF76DFF602072
:103DF000FFF76AFFAF20FFF767FF4FF400616448E9
:103E000000F0FDFF10BD70B54FF40061604800F098
:103E1000F8FF4FF400615E4800F0F1FF002415E068
:103E200004F1B001C8B2FFF74FFF1020FFF74CFFBD
:103E30000020FFF749FF002504E00020FFF76BFF9B
:103E4000681CC5B2842DF8DB601CC4B2092CE7DB0A
:103E50004FF400614E4800F0D2FF70BD2DE9F041F3
:103E600007464FF400614A4800F0CBFF4FF4006171
:103E7000474800F0C4FF00241FE02546042D02DA65
:103E8000281DC5B201E0281FC5B205F1B001C8B2B6
:103E9000FFF71AFF1020FFF717FF0020FFF714FFAE
:103EA000002606E006EBC411785CFFF734FF701CB7
:103EB000C6B2802EF6DB601CC4B2082CDDDB4FF4EA
:103EC0000061334800F09BFFBDE8F0812DE9F05F11
:103ED00007460C46154607F1AF0000F0FF0904F055
:103EE0000F0AC4F3031000F1100B4FF400612848CF
:103EF00000F087FF4FF40061254800F080FF0026A6
:103F00001AE009EB0601C8B2FFF7DEFE5846FFF7DC
:103F1000DBFE5046FFF7D8FE4FF0000807E0287898
:103F2000FFF7F9FE6D1C08F1010000F0FF08B8F181
:103F3000100FF4DB701CC6B2022EE2DB4FF40061FE
:103F4000134800F05CFFBDE8F09F2DE9F05F0746E5
:103F50000C4615464FF400610D4800F052FF07F182
:103F6000AF0000F0FF0904F00F0A102000EB141B53
:103F700000261EE009EB0601C8B2FFF7A5FE584671
:103F8000FFF7A2FE5046FFF79FFE4FF000080BE040
:103F9000000C0140003800402878FFF7BCFE6D1C83
:103FA00008F101001FFA80F8B8F1080FF4DB701C6B
:103FB00086B2022EDEDB4FF40061BE4800F01FFF28
:103FC000BDE8F09F2DE9F04706460C46154606F180
:103FD000AF0000F0FF084FF40061B64800F00FFF9B
:103FE00004F00F09102000EB141A4046FFF76CFE96
:103FF0005046FFF769FE4846FFF766FE002705E0DA
:104000002878FFF788FE6D1C781C87B2082FF7DB35
:104010004FF40061A74800F0F2FEBDE8F08710B54C
:10402000044600BF0221A44801F0ABFA0028F9D0F1
:104030002146A14801F052FA00BF01219E4801F03B
:10404000A0FA0028F9D09C4801F04AFA6420FFF752
:1040500035FE10BD10B54FF40051964800F0CFFE6C
:104060006420FFF72BFE4FF40051924800F0C9FE88
:1040700000BF0221904801F084FA0028F9D0FF2106
:104080008D4801F02BFA00BF01218B4801F079FA2D
:104090000028F9D0884801F023FAC4B26420FFF761
:1040A0000DFE4FF40051834800F0A9FE204610BDDC
:1040B0002DE9F04780460D4616461F46DDF8209054
:1040C0004FF480617B4800F09CFE4FF4006179481A
:1040D00000F095FE4FF40051764800F092FE032068
:1040E000FFF79DFF4046FFF79AFF2846FFF797FF2F
:1040F0003046FFF794FF002404E0FFF7ABFF38558C
:10410000601CC4B24C45F8DB4FF48061694800F094
:1041100076FEBDE8F0872DE9F0478EB006460F46E3
:104120001546002476E0285DB0283DDB285DF728A1
:104130003ADA601C285CA12836DB601C285CA138B8
:10414000295DB039C1EB011202EB411100EB4100D6
:1041500000F24E3040015949086008460068C0F33B
:10416000074808460088C0F30729084690F800A0D1
:10417000202006AB5246494600904046FFF798FF84
:10418000052E05DA06AA3946301DFFF79FFE05E029
:10419000311F88B206AA3946FFF798FEA01CC4B2A8
:1041A00007F11000C7B235E0285D202830DB285D1C
:1041B0007E282DDC285D2038414901EB00103F4965
:1041C000086008460068C0F3074808460088C0F346
:1041D0000729084690F800A0102002AB5246494635
:1041E00000904046FFF764FF052E05DA02AA394623
:1041F000301DFFF7AAFE05E0311F88B202AA39463A
:10420000FFF7A3FE601CC4B207F10800C7B201E0CB
:10421000601CC4B2285D002885DC0EB0BDE8F087C4
:104220002DE9FE4F06460F46154600243CE0285D6A
:10423000202837DB285D7E2834DC285D20381F49A4
:10424000086008460068C0000860084600681D490C
:1042500008441A49086008460068C0F30748084641
:104260000088C0F30729084690F800A0082001AB99
:104270005246494600904046FFF71AFF052E05DAE0
:1042800001AA3946301DFFF79DFE05E0311F88B2B7
:1042900001AA3946FFF796FE601CC4B207F1080078
:1042A000C7B201E0601CC4B2285D0028BFDCBDE8D5
:1042B000FE8F0000000C014000380040580500202F
:1042C000C0B70300C0BF03001FB50121052000F0E7
:1042D000A5FF0420ADF80C0048208DF80F00032046
:1042E0008DF80E0003A94C4800F0DCFC02210020F0
:1042F00000F0EEFD0420009000208DF804000C205A
:104300008DF8050001208DF80600684600F0EAFBF4
:1043100008208DF8080002208DF8090001208DF892
:104320000A008DF80B0002A800F065FB1FBD10B558
:10433000002408E0601CC4B2112000F029FAFA2C15
:1043400001D1204610BD354800680028F2D1204632
:10435000F8E770B5002400250026FDF7EFFE37E0F2
:104360002E480068002833D0FFF7E1FF0446FA2CFE
:1043700000D12EE0C82C03DBFA2C01DA01251AE06B
:10438000552C0DDBC82C0BDA012025490870254877
:104390000078401C23490870C82000F0D7F918E0C5
:1043A000322C03DB552C01DA012604E00A2C02DB57
:1043B000322C00DA00265DB11B48006840001A4923
:1043C00008600846006830440860002015490870FD
:1043D000C6E700BF04201549086070BD1248006898
:1043E000010E11480068C0F3074200200C4B187002
:1043F000D043C0B288420CD159B90B480088C0F3F1
:10440000072109480278D043C0B2884201D108464A
:1044100070470020FCE7000000080140080121422D
:10442000650500206405002060050020140401409B
:1044300010B59448006820F00F00924908600846C3
:10444000006840F00300086000208F49086040F2D7
:10445000EE2000F09DF901208C49C1F880010F2069
:1044600000F096F910BD10B500248648006820F0D1
:104470000F00844908600846006840F008000860A2
:1044800004E0601CC4B2012000F082F97E4880384C
:10449000006808B1C82CF4DBC82C01DB012010BD7A
:1044A000002404E0601CC4B2012000F071F97648D9
:1044B0008038006808B9F02CF4DBF02C01DB012017
:1044C000EDE70020EBE710B56E48006820F00F0024
:1044D0006C4908600846006840F00300086000204E
:1044E00069490860022000F053F901206749C1F8CA
:1044F00080016448006820F00F00624908600846A7
:10450000006840F0080008600C2000F041F95E48A7
:104510008038006808B1012400E00024322000F057
:1045200037F9204610BD70B50026012508E0FFF7D9
:10453000CAFF0446E00140EA6600C6B2681CC5B284
:10454000082DF4DD304670BD70B504464D48006856
:1045500020F00F004B4908600846006840F0030057
:104560000860012520E004F0010664106EB100200F
:1045700045490860022000F00BF901204349C1F8C9
:1045800080013C2000F004F90CE000203E49086066
:104590003C2000F0FDF801203C49C1F880010220D8
:1045A00000F0F6F8681CC5B2082DDCDD70BD10B552
:1045B000FFF73EFFFFF757FFCC20FFF7C5FF442072
:1045C000FFF7C2FF10BD08B50121042000F026FE50
:1045D0000120ADF8000010208DF8030003208DF8B5
:1045E00002006946274800F05DFB0121254800F0E4
:1045F00006FCFFF71DFFFFF736FF08BD2DE9F84F5A
:10460000FFF7D5FFFFF714FFFFF72DFFCC20FFF7D3
:104610009BFFBE20FFF798FFFFF785FF8346FFF75C
:1046200082FF0446072C08DDE043C4B26FEA0B00AA
:1046300000F0FF0B4FF0000A01E04FF0010AA14625
:104640004FEA09200FFA80F909EB0B000FFA80F905
:10465000484604F05BFF009004F0ECFD07460022A2
:104660000B4B04F0BDFB054604F0D4FA0FFA80F9B9
:10467000BAF1000F02D04846BDE8F88FC9F100003A
:1046800000B2F9E700080140800121420000214208
:104690000000E43F1FB50121042000F0BFFD102001
:1046A000ADF80C0004208DF80F0003A9184800F0A5
:1046B000F9FA0121084600F0B1FD0421002000F0C4
:1046C00007FC1020019000208DF808000C208DF8C8
:1046D000090001208DF80A0001A800F003FA0A2061
:1046E0008DF8000002208DF8010000208DF80200F6
:1046F00001208DF80300684600F07DF91FBD10B55C
:10470000012004490870102000F063FA10BD000079
:10471000000801406605002010B504466FF0040053
:1047200000F0B3F9E11704EB5171C1F3C701294A55
:1047300011701046007800EB4001C1EBC0104FF63D
:10474000FF7101EAC0002449088010BD70B505461C
:104750004820FFF7E1FF2048008868434FF0E02140
:104760004861002088610120086100BF4FF0E0200F
:10477000046904F0010018B104F480300028F5D079
:1047800000204FF0E02108618861FDF745FD70BD14
:1047900070B505464820FFF7BFFF0E480078684314
:1047A0004FF0E0214861002088610120086100BFCE
:1047B0004FF0E020046904F0010018B104F48030E7
:1047C0000028F5D000204FF0E02108618861FDF756
:1047D00023FD70BD680500206A050020014600BF6A
:1047E000704700BF614A128802F04002002AF9D0E7
:1047F000C2B25E4B1B1D1A80704710B586B00446CE
:10480000012144F2050000F009FD4FF40070ADF8FD
:10481000140003208DF8160018208DF8170005A944
:10482000534800F03FFA4FF48060ADF814000420C4
:104830008DF8170005A94E4800F034FA25208DF8B0
:10484000000003208DF801008DF8020001208DF892
:104850000300684600F0CFF801940020ADF808008E
:10486000ADF80A00ADF80C00ADF810000C20ADF862
:104870000E0001A93D4801F00CFE012240F2255135
:104880003A4801F09EFE0121384801F08EFE06B044
:1048900010BD2DE9F04140F22551344801F076FF7A
:1048A000002861D0314801F0F1FEC4B2A4F130001B
:1048B000C1B23048304A127881542F480078401CE9
:1048C0002D4908703B2C4FD108460078092848D163
:1048D0002849C87804F032FE0646264909784FF484
:1048E0007A725143234A527802EBC20303EB02125D
:1048F00001EB82011F4A927802EB820201EB420037
:1049000004F004FE0746314604F0C0FC05461B488F
:104910000168284604F0BAFC194908601549C879AD
:1049200004F00CFE0546134909794FF47A7251439D
:10493000104A527902EBC20303EB021201EB82012F
:104940000C4A927902EB820201EB420004F0DEFD98
:104950000646294604F09AFC0A49086001200A49E3
:104960000870002004490870BDE8F081003801405B
:104970000008014050270020750500208005002018
:10498000780500207C0500206C05002070B50446E9
:104990000D46002213462046294604F01FFB01D98C
:1049A00085F000452046294670BD00000948804733
:1049B00009480047FEE7FEE7FEE7FEE7FEE7FEE701
:1049C000FEE7FEE7FEE7FEE704480549054A064B19
:1049D00070470000CF040008ED000008F027002019
:1049E000F02D0020F0290020F0290020314901435A
:1049F000314A1160704770B5002100230F22C4783E
:104A000004B32D4C246804F4E064C4F5E064210A86
:104A1000C1F10403CA40447804FA03F184781440D5
:104A200021430901254C0678A155047804F01F059F
:104A30000124AC4005786D11AD0005F1E025C5F805
:104A4000004109E0047804F01F050124AC401C4D2E
:104A50000678761145F8264070BD1A4A0A4002438E
:104A6000154B1B1F1A60704739B1134A121D12688B
:104A70000243114B1B1D1A6006E00F4A121D1268FB
:104A800082430D4B1B1D1A607047042808D14FF05C
:104A9000E021096941F004014FF0E022116107E0D3
:104AA0004FF0E021096921F004014FF0E02211618B
:104AB000704700000000FA050CED00E000E400E0A3
:104AC00080E100E080FFFF1F002044490860091DCD
:104AD0000860091D0860091D086041483F491431FC
:104AE0000860704700213D498279002A3AD00A4681
:104AF000126803689A430B461A600A1D126803681D
:104B00009A430B1D1A60027911440A6803681A431C
:104B10000A60324A0832126803689A432F4B0833FE
:104B20001A601A1D126803689A432C4B0C331A60E2
:104B30004279102A0ED11A1F126803681A43274BB4
:104B400008331A601A1D126803681A43234B0C338A
:104B50001A600DE02149427911440A6803681A433A
:104B60000A6005E0027911440A6803689A430A6002
:104B700070470021016001710C2141710021817198
:104B800070471649103109680143144A1032116008
:104B9000704701460020114A143212680A400AB1D7
:104BA000012000E0002070470C4914310860704774
:104BB000014600200022094B1B6803EA0102074B53
:104BC00014331B680B4013B10AB1012000E0002030
:104BD000704702491431086070470000000401402A
:104BE000FFFF0F0010B50446CC48844208D10121D4
:104BF000042000F02DFB0021042000F029FB46E0FA
:104C0000C748844208D10121082000F021FB00217F
:104C1000082000F01DFB3AE0C248844208D101217F
:104C2000102000F015FB0021102000F011FB2EE0F9
:104C3000BD48844208D10121202000F009FB002159
:104C4000202000F005FB22E0B848844208D1012171
:104C5000402000F0FDFA0021402000F0F9FA16E0B3
:104C6000B348844208D10121802000F0F1FA0021EC
:104C7000802000F0EDFA0AE0AE48844207D101211D
:104C8000801500F0E5FA0021A01500F0E1FA10BD52
:104C900010B50121084600F0DBFA0021012000F0E8
:104CA000D7FA10BD2DE9F04102460025002600206C
:104CB00000230024002791F803C00CF00F0591F8A1
:104CC00003C00CF0100CBCF1000F03D091F802C02F
:104CD0004CEA050591F800C0BCF1000F31D0146812
:104CE00000202BE04FF0010C0CFA00F3B1F800C0EB
:104CF0000CEA03069E4220D183004FF00F0C0CFA01
:104D000003F7BC4305FA03FC4CEA040491F803C022
:104D1000BCF1280F06D14FF0010C0CFA00FCC2F8D0
:104D200014C00AE091F803C0BCF1480F05D14FF060
:104D3000010C0CFA00FCC2F810C0401C0828D1D3AA
:104D40001460B1F800C0BCF1FF0F34DD54680020DE
:104D50002EE000F1080C4FF0010808FA0CF3B1F84E
:104D600000C00CEA03069E4221D183004FF00F0CD5
:104D70000CFA03F7BC4305FA03FC4CEA040491F86F
:104D800003C0BCF1280F05D100F1080C08FA0CF89B
:104D9000C2F8148091F803C0BCF1480F07D100F1AC
:104DA000080C4FF0010808FA0CF8C2F81080401CFB
:104DB0000828CED35460BDE8F0814FF6FF71018022
:104DC000022181700421C17070470246002093685F
:104DD0000B400BB1012000E00020704701468868BD
:104DE00080B2704702460020D3680B400BB101200F
:104DF00000E0002070470146C86880B2704701613A
:104E00007047416170470AB1016100E0416170473C
:104E1000C16070474FF480320A43826181618261D0
:104E200082698269704702460020434B18684FF63A
:104E30008073184040EA021008433F4B18607047E7
:104E40003E49C8617047F0B50A460023002400219E
:104E5000002500F00046B6F1004F02D1364EF16950
:104E600001E0354E7168C0F3034583B200F440168B
:104E7000B6F5401F08D121F070612F4E766826F0FC
:104E800070662D4F7E6012E000F48016B6F5801F2C
:104E900006D1032606FA05F4A14341F0706106E04D
:104EA000460D360103FA06F6B14341F0706122B1B6
:104EB000460D360103FA06F6314300F00046B6F11E
:104EC000004F02D11C4EF16101E01B4E7160F0BD3C
:104ED00030B500228B071C0F0F2303FA04F2164B88
:104EE00008338C1053F824309343134C08348D103E
:104EF00044F8253023468C1053F824308C07240FB7
:104F000000FA04F423430C4C08348D1044F8253087
:104F100030BD0A49DC3108607047000000080140DC
:104F2000000C014000100140001401400018014035
:104F3000001C014000200140000001400000204210
:104F4000DF48006840F00100DD490860084640681D
:104F5000DC490840DA49486008460068DA490840F8
:104F6000D74908600846006820F480200860084699
:104F7000406820F4FE0048604FF41F0088607047CE
:104F8000CF49096821F48031CD4A11601146096882
:104F900021F480211160B0F5803F03D0B0F5802F5F
:104FA0000ED106E0C649096841F48031C44A116057
:104FB00007E0C349096841F4A021C14A116000E03B
:104FC00000BF00BF704710B501460022002300203B
:104FD0004A11012A02D1BA4C236806E0022A02D102
:104FE000B74C236A01E0B64C636A01F01F0201244A
:104FF00094401C400CB1012000E0002010BD38B5E9
:10500000002000900024002500BF3120FFF7DBFFC7
:1050100005460098401C00900098B0F5A06F01D0A4
:10502000002DF2D03120FFF7CEFF08B1012400E0BF
:105030000024204638BD01460020A14A106820F017
:10504000F80040EAC10010607047A049086070474E
:10505000024600209A4B586820F47C1042EA010373
:105060001843974B58607047984908667047014647
:105070000020934A506820F00300084350607047B6
:105080008F48406800F00C007047014600208C4AB1
:10509000506820F0F000084350607047014600203F
:1050A000874A506820F4E06008435060704701462A
:1050B0000020834A506820F4605040EAC1005060EC
:1050C000704729B17E4A527A02437D4B5A7204E0FE
:1050D0007B4A527A82437A4B5A7270477B49D83165
:1050E0000860704701460020754A506820F440402F
:1050F0000843506070470021714A20321170704A95
:1051000082F82010012802D004280AD104E00121ED
:105110006B4A2032117005E00521694A2032117076
:1051200000E000BF00BF70476949086070476449EC
:10513000096A0143624A116270476549443908604F
:10514000704730B500210022002400235C4D6D68BB
:1051500005F00C0121B1042905D0082923D105E06F
:105160005C4D056022E05B4D05601FE0544D6D68AD
:1051700005F47012524D6D6805F48034022505EB7C
:1051800092421CB9544D554305600BE04C4D6D687F
:1051900005F400351DB1504D5543056002E04D4DFD
:1051A0005543056002E04B4D056000BF00BF444D14
:1051B0006D6805F0F0010909484D6B5C0568DD403C
:1051C00045603F4D6D6805F4E061090A434D6B5C35
:1051D0004568DD4085603A4D6D6805F46051C90A47
:1051E0003E4D6B5C4568DD40C560354D6D6805F42E
:1051F0004041890B3A4D6B5CC568B5FBF3F5056121
:1052000030BD29B12E4A526902432D4B5A6104E048
:105210002B4A526982432A4B5A61704729B1284A66
:1052200092690243264B9A6104E0254A92698243BF
:10523000234B9A61704729B1214AD2690243204B1E
:10524000DA6104E01E4AD26982431D4BDA6170477D
:1052500029B11B4AD2680243194BDA6004E0184AAC
:10526000D2688243164BDA60704729B1144A12693A
:105270000243134B1A6104E0114A12698243104B36
:105280001A61704712494039086070470F49C86475
:1052900070470B49C87170470948406A40F08070F8
:1052A00007494862704701460020054A92680A4053
:1052B0000AB1012000E00020704701498872704760
:1052C000001002400000FFF8FFFFF6FE000042421F
:1052D0008004424200127A0000093D00840500204B
:1052E0009405002010B50446BE48844208D101212F
:1052F0008014FFF7ADFF0021A014FFF7A9FF16E00F
:10530000B948844208D101210014FFF7AEFF002103
:105310002014FFF7AAFF0AE0B448844207D1012114
:10532000C013FFF7A2FF0021E013FFF79EFF10BD9F
:1053300010B50022028802F441520B884C882343A6
:105340008C882343CC8823430C8923434C892343F3
:105350008C892343CC8923431A430280838B4FF2E9
:10536000FF74234083830B8A038210BD2DE9F04F25
:1053700085B005460C464FF0000902274FF00008A3
:105380004FF0010B0026B246A88B4FF240010840B7
:10539000A88302202884B5F81C90A068022801D1B7
:1053A00000BF38E0A08810B94FF0010B01E04FF0CA
:1053B000020B8D48854200D100E000BF6846FFF730
:1053C000C0FEDDF800A0E088B0F5007F0AD14FEA0A
:1053D0001A2000EB80004000A168B0FBF1F0401DF6
:1053E00086B20BE04FEA4B10BAFBF0F000EB800006
:1053F0004000A168B0FBF1F0401D86B20A20B6FB68
:10540000F0F606F00108A6EB0800C0F34F074FF6D0
:10541000FF7000EA0828022F01DBFF2F02DD0227C0
:105420004FF00008E08840EA080038432884A0884C
:10543000A1890843618808432188084340F400603B
:1054400040EA0909A5F81C9005B0BDE8F08F0021DD
:10545000018041808180C180018141818181C18140
:105460000721018270470021018041808180C18035
:105470000221816000218181704721B1028842F0C0
:105480004002028004E002884FF6BF731A40028097
:10549000704721B1828B42F48062828304E0828B68
:1054A0004FF6FF331A408283704730B50024002343
:1054B0000C110125A540ABB21AB185881D4385802A
:1054C00002E085889D43858030BD1AB183880B43F7
:1054D000838002E083888B4383807047818170479B
:1054E0000146888970474FF6FF62914204D00288D6
:1054F00042F48072028004E002884FF6FF631A4093
:105500000280704721B1828842F00402828004E068
:1055100082884FF6FB731A408280704702884FF2F0
:10552000FF731A40028002880A4302807047018894
:1055300041F480510180704721B1028842F4005249
:10554000028004E002884DF6FF731A400280704723
:1055500002460020012901D0108B00E0908A70479C
:105560000146088A7047B1F5804F04D1028842F4A1
:105570008042028004E002884BF6FF731A400280EA
:1055800070470246002013890B400BB1012000E058
:1055900000207047CA4302817047F0B502460020E0
:1055A00000240023002501F00F070126BE40B4B2FD
:1055B0000B1101269E40B3B2968806EA03051689B0
:1055C000264016B10DB1012000E00020F0BD10B55D
:1055D000002201F00F040123A3409AB2D3430381B8
:1055E00010BD00000030014000380040003C004089
:1055F00010B50446FE48844208D10121C014FFF7CB
:1056000027FE0021E014FFF723FEC4E0B4F1804F31
:1056100008D101210846FFF728FE00210120FFF7ED
:1056200024FEB8E0F348844208D101210220FFF7AC
:105630001CFE00210220FFF718FEACE0EE48844279
:1056400008D101210420FFF710FE00210420FFF7FC
:105650000CFEA0E0E948844208D101210820FFF7B0
:1056600004FE00210820FFF700FE94E0E448844295
:1056700008D101211020FFF7F8FD00211020FFF7CD
:10568000F4FD88E0DF48844208D101212020FFF7A3
:10569000ECFD00212020FFF7E8FD7CE0DA488442A1
:1056A00008D101214014FFF7D3FD00216014FFF75A
:1056B000CFFD70E0D548844209D10121C804FFF72D
:1056C000C7FD00214FF40020FFF7C2FD63E0D04882
:1056D000844209D101210805FFF7BAFD00214FF4EA
:1056E0008010FFF7B5FD56E0CA48844209D1012178
:1056F0004805FFF7ADFD00214FF40010FFF7A8FDAE
:1057000049E0C548844208D101214020FFF7ADFDA2
:1057100000214020FFF7A9FD3DE0C048844208D1A8
:1057200001218020FFF7A1FD00218020FFF79DFDD2
:1057300031E0BB48844208D101218015FFF795FD77
:105740000021A015FFF791FD25E0B648844209D15C
:1057500001210804FFF77CFD00214FF48030FFF7A2
:1057600077FD18E0B048844209D101214804FFF7D1
:105770006FFD00214FF40030FFF76AFD0BE0AB48EE
:10578000844208D101218804FFF762FD00214FF413
:105790008020FFF75DFD10BD00220288944B9842E7
:1057A0000ED0994B98420BD0B0F1804F08D0914B5E
:1057B000984205D0904B984202D0904B984204D129
:1057C0004FF68F731A404B881A438D4B984207D07F
:1057D0008C4B984204D04FF6FF431A40CB881A43B3
:1057E00002808B8883850B880385814B98420BD080
:1057F000854B984208D08B4B984205D08A4B9842F3
:1058000002D08A4B984201D10B7A0386012383820E
:10581000704770B5002400220023058C4FF6FE76F9
:1058200035400584028C8388048B4FF68F752C409D
:10583000B51E2C400D882C43751E2A400D892A4325
:105840004D882A436A4DA8420BD06F4DA84208D01C
:10585000744DA84205D0744DA84202D0734DA842A1
:1058600013D14FF6F7752A404D892A434FF6FB7541
:105870002A408D882A434FF6FF652B404FF6FF558F
:105880002B408D892B43CD892B4383800483CD8886
:105890008586028470BD70B5002400220023058C2B
:1058A0004FF6EF7635400584028C8388048B48F6EA
:1058B000FF752C404FF6FF452C400D884FF6FF76C4
:1058C00006EA05252C434FF6DF752A400D8906EAC6
:1058D00005152A434D8806EA05152A43444DA8427A
:1058E00002D0494DA8421DD14FF67F752A404D89FF
:1058F0004FF6FF7606EA05152A434FF6BF752A4094
:105900008D8806EA05152A434FF6FF352B404FF2E6
:10591000FF752B408D8906EA85052B43CD8906EA64
:1059200085052B4383800483CD880587028470BD61
:1059300070B5002400220023058C4FF6FF66354029
:105940000584028C8388848B4FF68F752C404FF62C
:10595000FC752C400D882C434FF6FF552A400D89CD
:105960004FF6FF7606EA05252A434D8806EA052507
:105970002A431F4DA84202D0234DA8421DD14FF209
:10598000FF752A404D894FF6FF7606EA05252A4322
:105990004FF6FF352A408D8806EA05252A434EF644
:1059A000FF752B404DF6FF752B408D8906EA0515D6
:1059B0002B43CD8906EA05152B4383808483CD884C
:1059C0008587028470BD70B5002200230024058CF9
:1059D0004EF6FF7635400584038C8488828B48F62A
:1059E000FF752A404FF6FF452A400D8820E0000051
:1059F000002C01400004004000080040000C004062
:105A0000001000400014004000340140004C0140F0
:105A1000005001400054014000180040001C0040AC
:105A20000020004000400140004401400048014087
:105A30004FF6FF7606EA05252A434DF6FF752B4003
:105A40000D8906EA05352B434D8806EA05352B43BB
:105A5000FA4DA84202D0FA4DA84208D14BF6FF7584
:105A60002C408D894FF6FF7606EA85152C438480FD
:105A70008283CD88A0F84050038470BD828B4FF2A2
:105A8000FF331A408283828B4FF6FF7303EA0123B0
:105A90001A4382837047F0B50C4615460022002158
:105AA0000026078C4EF6FF7C07EA0C070784828BE2
:105AB000018C4FF6FF7707EA043640F6FF473A407D
:105AC0004FF6FF7707EA05273A434FF6FF7707EAD5
:105AD00003373A43D94FB8420ED0D94FB8420BD012
