:020000040800F2
:1000000000060020F5360008FD360008FF3600081F
:10001000013700080337000805370008000000001A
:10002000000000000000000000000000073700088A
:1000300009370008000000000B3700080D370008E2
:100040000F3700080F3700080F3700080F37000878
:100050000F3700080F3700080F3700080F37000868
:100060000F3700080F3700080F3700080F37000858
:100070000F3700080F3700080F3700080F37000848
:100080000F3700080F3700080F3700080F37000838
:100090000F3700080F3700080F3700080F37000828
:1000A0000F3700080F3700080F3700080F37000818
:1000B0000F3700080F3700080F3700080F37000808
:1000C0000F3700080F3700080F3700080F370008F8
:1000D0000F370008490D0008790D0008E50D0008EC
:1000E0000F3700080F3700080F3700080F370008D8
:1000F0000F3700080F3700080F3700080F370008C8
:100100000F3700080F3700085B0400080F3700089E
:10011000FF0D0008190E00080F3700080F37000800
:100120000F3700080F3700080F3700080F37000897
:10013000DFF80CD003F006FB00480047450100083B
:100140000006002000F012FC08E03948018839A0C0
:1001500003F00AFB4FF4FA7000F07FFBF5E708B5F7
:100160000121382002F05EF84FF48060ADF8000005
:1001700010208DF8030003208DF8020069463148F5
:1001800001F09AFD4FF40060ADF8000010208DF8EA
:10019000030003208DF8020069462A4801F08CFD17
:1001A0000120ADF8000010208DF8030003208DF829
:1001B00002006946244801F07FFD0220ADF80000EE
:1001C00010208DF8030003208DF8020069461E48B8
:1001D00001F072FD4FF48050ADF8000048208DF81A
:1001E00003006946194801F067FD4FF40050ADF86F
:1001F000000048208DF803006946144801F05CFDBA
:100200004FF48040ADF8000048208DF803006946A7
:100210000E4801F051FD4FF40040ADF800004820B9
:100220008DF803006946094801F046FD08BD00004D
:10023000E8010020746865206E756D2069733A25A9
:10024000640D0A00000C0140001001400014014040
:1002500070B586B006460C4615462EBBA0B2ADF86A
:100260000400A8B2ADF800000020ADF80600ADF81B
:1002700002006946FE4802F011F90020ADF80C00BA
:10028000ADF80E000120ADF810000020ADF812000E
:10029000ADF8140003A9F64802F093FB01220321F4
:1002A000F34802F072FC79E0012E26D1A0B2ADF83D
:1002B0000400A8B2ADF800000020ADF80600ADF8CB
:1002C00002006946EA4802F0E9F80420ADF80C00A3
:1002D0000020ADF80E000120ADF810000020ADF8B0
:1002E0001200ADF8140003A9E14802F06AFB0122F4
:1002F0000521DF4802F049FC50E0022E26D1A0B2D1
:10030000ADF80400A8B2ADF800000020ADF806007A
:10031000ADF802006946D64802F0C0F80820ADF8F2
:100320000C000020ADF80E000120ADF810000020F8
:10033000ADF81200ADF8140003A9CD4802F041FB5E
:1003400001220921CA4802F020FC27E0032E25D112
:10035000A0B2ADF80400A8B2ADF800000020ADF8DE
:100360000600ADF802006946C14802F097F80C207B
:10037000ADF80C000020ADF80E000120ADF8100023
:100380000020ADF81200ADF8140003A9B84802F03F
:1003900018FB01221121B64802F0F7FB0121B448F5
:1003A00002F0D8FB06B070BD38B504460121082024
:1003B00001F045FF0121042001F034FF74B9012050
:1003C000ADF8000028208DF803006946A94801F027
:1003D00073FC0121A74801F01CFD31E0012C0ED176
:1003E0000220ADF8000028208DF803006946A148DE
:1003F00001F062FC02219F4801F00BFD20E0022C7D
:100400000ED10420ADF8000028208DF803006946C5
:10041000984801F051FC0421964801F0FAFC0FE0E5
:10042000032C0DD10820ADF8000028208DF8030022
:100430006946904801F040FC08218E4801F0E9FC33
:1004400038BD10B504462046FFF7AEFF47224FF6F1
:10045000FF712046FFF7FCFE10BD10B586480078FE
:1004600010F0800F4CD10121814802F03CFED0B148
:100470008148007810F0400F15D07F48007800F0D8
:100480003F003F280AD17C48007840F080007A493C
:1004900008704FF6FF707949086004E076480078EC
:1004A000401C754908700221714802F01CFE38B3E7
:1004B0007148007810F0400F0FD06F48007840F07E
:1004C00080006D4908706A4802F0EEFD6B490860D3
:1004D0000021674802F0F0FC12E000206649087035
:1004E000664908600021624802F0C8FD6248007851
:1004F00040F040006049087002215D4802F0DCFCD9
:100500005F48007810F0800F4CD10121584802F06C
:10051000EAFDD0B15A48007810F0400F15D0584885
:10052000007800F03F003F280AD15548007840F09D
:100530008000534908704FF6FF705249086004E08C
:100540004F480078401C4E4908700421484802F08A
:10055000CAFD38B34A48007810F0400F0FD0484821
:10056000007840F0800046490870414802F09FFD45
:100570004449086000213E4802F0B0FC12E000202F
:100580003F4908703F4908600021394802F076FD74
:100590003B48007840F04000394908700221344857
:1005A00002F09CFC3848007810F0800F4CD10121FB
:1005B0002F4802F098FDD0B13348007810F0400F7A
:1005C00015D03148007800F03F003F280AD12E486E
:1005D000007840F080002C4908704FF6FF702B49DE
:1005E000086004E028480078401C2749087008216A
:1005F0001F4802F078FD38B32348007810F0400F10
:100600000FD02148007840F080001F49087018483A
:1006100002F050FD1D4908600021154802F078FCE9
:1006200012E000201849087018490860002110489D
:1006300002F024FD1448007840F040001249087090
:1006400002210B4802F064FC1148007810F0800F82
:100650005FD10121064802F046FD38B30C4800780E
:1006600010F0400F28D00A48007800F03F0011E059
:10067000000C0040000801400000002004000020A1
:100680000100002008000020020000200C000020D3
:10069000030000203F280AD14B48007840F080003A
:1006A000494908704FF6FF704849086004E0464821
:1006B0000078401C444908701021454802F013FDA1
:1006C00038B34148007810F0400F0FD03E48007812
:1006D00040F080003C4908703D4802F0EEFC3B4988
:1006E000086000213A4802F02DFC12E00020364953
:1006F0000870364908600021354802F0BFFC3248D6
:10070000007840F04000304908700221304802F083
:1007100019FC1F212E4802F0F7FC10BD02460021F3
:1007200032B1012A16D0022A26D0032A48D135E058
:100730002848007810F0800F0AD02648007800F092
:100740003F0109042448006801440020214B18702F
:10075000084670472148007810F0800F0AD01F48E3
:10076000007800F03F0109041D48006801440020A2
:100770001A4B18700846ECE71A48007810F0800F02
:100780000AD01848007800F03F01090416480068B4
:1007900001440020134B18700846DAE70A48007835
:1007A00010F0800F0AD00848007800F03F010904DB
:1007B0000648006801440020034B18700846C8E74B
:1007C0004FF0FF30C5E700000300002010000020BC
:1007D000000C004000000020040000200100002068
:1007E00008000020020000200C00002010B56FF06F
:1007F000040000F093FE2A4800682A49B0FBF1F09B
:1008000029490870084600784FF47A71484327490F
:10081000086010BD0146244A12784A434FF0E02395
:100820005A6100229A611A46126942F001021A6165
:1008300000BF4FF0E022106910F0010F02D010F459
:10084000803FF6D04FF0E022126922F001024FF013
:10085000E0231A6100229A6170470146134A126828
:100860004A434FF0E0235A6100229A611A46126906
:1008700042F001021A6100BF4FF0E022106910F04F
:10088000010F02D010F4803FF6D04FF0E022126941
:1008900022F001024FF0E0231A6100229A617047B2
:1008A0004000002000127A001400002018000020F0
:1008B00008B54FF4C06000F0E1FD32208DF8000073
:1008C00001208DF8010000208DF8020001208DF834
:1008D0000300684600F0D7FD25208DF800000120B8
:1008E0008DF801008DF802008DF80300684600F0D5
:1008F000CAFD26208DF8000001208DF8010002209D
:100900008DF8020001208DF80300684600F0BBFD61
:1009100027208DF8000001208DF8010003208DF8BC
:10092000020001208DF80300684600F0ACFD342081
:100930008DF8000001208DF8010004208DF80200E0
:1009400001208DF80300684600F09DFD35208DF8EC
:10095000000001208DF8010005208DF80200012023
:100960008DF80300684600F08EFD08BD10B502F05A
:1009700041FEFFF73BFF00F06CFD002000F059F94D
:10098000FFF796FF00F091FA10BD000000B585B0AA
:100990000121312001F046FC0121080501F04FFC46
:1009A0004FF48050ADF8000003208DF802001820AD
:1009B0008DF803006946FC4801F07EF90420ADF88B
:1009C000000003208DF8020004208DF80300694622
:1009D000F64801F071F94FF4165001900020ADF87F
:1009E0000800ADF80A00ADF80C00ADF810000C20BE
:1009F000ADF80E0001A9EE4802F0CDFB012240F255
:100A00002551EB4802F05FFC0121E94802F04FFC60
:100A100005B000BD00B585B00121112001F002FC38
:100A20000121C80401F00BFC4FF48060ADF8000018
:100A300003208DF8020018208DF803006946DA487B
:100A400001F03AF94FF40060ADF8000003208DF892
:100A5000020004208DF803006946D34801F02CF908
:100A60004FF4165001900020ADF80800ADF80A00D0
:100A7000ADF80C00ADF810000C20ADF80E0001A987
:100A8000CC4802F088FB012240F22551C94802F00F
:100A90001AFC0121C74802F00AFC05B000BD00B5F0
:100AA00085B00121092001F0BDFB0121880401F07E
:100AB000C6FB4FF48060ADF8000003208DF8020003
:100AC00018208DF803006946BB4801F0F5F84FF493
:100AD0000060ADF8000003208DF8020004208DF8BE
:100AE00003006946B44801F0E7F84FF4165001904E
:100AF0000020ADF80800ADF80A00ADF80C00ADF824
:100B000010000C20ADF80E0001A9AC4802F043FB28
:100B1000012240F22551A94802F0D5FB0121A74846
:100B200002F0C5FB05B000BD00B585B00121052070
:100B300001F078FB0121480401F081FB0420ADF8AD
:100B4000000003208DF8020018208DF8030069468C
:100B50009B4801F0B1F80820ADF8000003208DF8A3
:100B6000020004208DF803006946954801F0A4F8BE
:100B70004FF4E13001900020ADF80800ADF80A0014
:100B8000ADF80C00ADF810000C20ADF80E0001A976
:100B90008C4802F000FB012240F22551894802F006
:100BA00092FB0121874802F082FB05B000BD00B531
:100BB00085B0012144F2050001F034FB4FF40070D0
:100BC000ADF8000003208DF8020018208DF8030016
:100BD00069467B4801F070F84FF48060ADF8000082
:100BE00003208DF8020004208DF803006946744844
:100BF00001F062F84FF4E13001900020ADF80800F8
:100C0000ADF80A00ADF80C00ADF810000C20ADF8FE
:100C10000E0001A96C4802F0BEFA012240F22551F3
:100C2000694802F050FB0121674802F040FB05B023
:100C300000BD10B50446052C13D2DFE804F003060E
:100C4000090C0F00FFF7B3FF0BE0FFF76DFF08E0A3
:100C5000FFF725FF05E0FFF7DDFE02E0FFF796FE58
:100C600000BF00BF10BD70B504460D46E1B2564846
:100C700002F08AFB00BF8021534802F0F3FB0028FA
:100C8000F9D0204670BD70B504460D462946204671
:100C900002F07AFB00BF8021204602F0E3FB00282F
:100CA000F9D08021204602F0EAFB70BD70B5054600
:100CB0000C4604E021782846FFF7E5FF641C207805
:100CC0000028F7D170BD08B54FF4E06000F0D6FB06
:100CD00025208DF8000000208DF8020001208DF8FD
:100CE0000300684600F0CFFB26208DF800000120AD
:100CF0008DF802008DF80300684600F0C4FB272041
:100D00008DF8000002208DF8020001208DF803000C
:100D1000684600F0B8FB34208DF8000003208DF801
:100D2000020001208DF80300684600F0ACFB35207E
:100D30008DF8000004208DF8020001208DF80300DA
:100D4000684600F0A0FB08BD10B540F225511E48D2
:100D500002F09EFB78B11C4802F01AFB1B49087098
:100D6000084600781A491B4A1268885419480068D6
:100D7000401C1849086010BD10B540F225511148BB
:100D800002F086FB78B10F4802F002FB12490870AE
:100D9000084600781149124A1268885410480068C1
:100DA000401C0F49086010BD0010014000140140B4
:100DB00000500040004C0040000C01400048004042
:100DC0000008014000440040003801401C000020A1
:100DD00058000020240000201D00002020010020D9
:100DE0002800002010B540F225511C4802F050FBAD
:100DF00020B11A4802F0CCFA1949087010BD10B59C
:100E000040F22551174802F043FB20B1154802F08B
:100E1000BFFA1549087010BD10B540F225511348AE
:100E200002F036FB20B1114802F0B2FA1049087006
:100E300010BD70B5054600E0641C2021284602F074
:100E400011FB0028F8D0B4F5FA6FF5D02021284620
:100E500002F015FB284602F09BFA70BD00480040E6
:100E60001E000020004C00401F00002000500040E9
:100E70002000002008B50420ADF8000048208DF8BF
:100E800003006946864800F017FF08BD08B5042036
:100E9000ADF8000010208DF8030003208DF802004B
:100EA00069467F4800F008FF08BD08B5012104200D
:100EB00001F0B8F90C20ADF8000010208DF8030007
:100EC00003208DF802006946754800F0F5FE08BD64
:100ED00010B5FFF7DBFF0421714800F098FF0821EF
:100EE0006F4800F094FF0420FFF794FC04216C4845
:100EF00000F08FFF0520FFF78DFC0821684800F007
:100F000088FF10BD10B5FFF7C1FF0821644800F04D
:100F100080FF0421624800F07CFF0420FFF77AFC88
:100F200008215F4800F073FF04215D4800F06FFF67
:100F30000420FFF76FFC10BD10B50024FFF79AFFE7
:100F40000421574800F063FF0120FFF763FC0821EC
:100F5000534800F05CFF0120FFF75CFC07E0601CD9
:100F6000C4B2FA2C03DDFFF7CDFF002010BD042131
:100F70004B4800F032FF0028F1D10821484800F02A
:100F800048FF0120F2E770B50546FFF77FFF082113
:100F9000434800F03EFF00241DE005FA04F010F085
:100FA000800F04D004213E4800F031FF03E004210B
:100FB0003B4800F02EFF0220FFF72CFC08213848A8
:100FC00000F025FF0220FFF725FC0821344800F03F
:100FD00020FF601CC4B2082CDFDB70BD70B5FFF7CA
:100FE00049FF002400251CE008212D4800F011FFD6
:100FF0000220FFF70FFC0821294800F008FF01201C
:10100000FFF708FC6006040E0421254800F0E5FE09
:10101000012801D1601CC4B20220FFF7FBFB681C51
:10102000C5B2082DE0DB204670BD10B5044608218E
:101030001B4800F0EEFEFFF729FF24B904211848F1
:1010400000F0E7FE03E00421154800F0E0FE032075
:10105000FFF7E0FB0821124800F0D9FE0420FFF75B
:10106000D9FB08210E4800F0D4FE0220FFF7D2FB86
:1010700010BD10B500240821094800F0C8FE052065
:10108000FFF7C8FB0421064800F0A7FE044608212C
:10109000034800F0BEFE0520FFF7BCFB204610BD54
:1010A0000008014000B58BB0EE4800F07DFCEE4832
:1010B0000090EE480190002002900C200390002048
:1010C000049080200590400006908000079020202A
:1010D00008900002099000200A906946E14800F05B
:1010E00005FD0121DF4800F02CFD0BB000BD00B56F
:1010F00085B00020009001208DF804008DF80500D7
:101100004FF460200290002003900C208DF8100016
:101110006946D5484C3800F046FA072301220021E1
:10112000D1484C3800F0D7FA072302220121CE48DB
:101130004C3800F0D0FA072303220221CA484C3869
:1011400000F0C9FA072304220321C7484C3800F0F5
:10115000C2FA072305220421C3484C3800F0BBFA29
:10116000072306220521C0484C3800F0B4FA0723B3
:101170001A460621BC484C3800F0ADFA0723082275
:101180001946B9484C3800F0A6FA0723092208216D
:10119000B5484C3800F09FFA07230A220921B248CB
:1011A0004C3800F098FA07230B220A21AE484C383D
:1011B00000F091FA07230C220B21AB484C3800F0C9
:1011C0008AFA0121A8484C3800F019FA0121A648F2
:1011D0004C3800F01FFAA4484C3800F032FA00BF37
:1011E000A1484C3800F032FA0028F9D19E484C381A
:1011F00000F036FA00BF9C484C3800F036FA002860
:10120000F9D1012198484C3800F039FA05B000BDF9
:10121000964A1288642302FB03F1CA1701EB1252AB
:10122000121302EB42120280904A528802FB03F131
:10123000CA1701EB1252121302EB421242808B4A80
:10124000928802FB03F1CA1701EB1252121302EB50
:1012500042128280854AD28802FB03F1CA1701EB51
:101260001252121302EB4212C280804A128902FB10
:1012700003F1CA1701EB1252121302EB4212028160
:101280007A4A528902FB03F1CA1701EB1252121378
:1012900002EB42124281754A928902FB03F1CA179E
:1012A00001EB1252121302EB421282816F4AD28971
:1012B00002FB03F1CA1701EB1252121302EB4212A6
:1012C000C2816A4A128A02FB03F1CA1701EB125269
:1012D000121302EB42120282644A528A02FB03F1A9
:1012E000CA1701EB1252121302EB421242825F4AFA
:1012F000928A02FB03F1CA1701EB1252121302EB9E
:1013000042128282594AD28A02FB03F1CA1701EBC8
:101310001252121302EB4212C282704708B5012129
:1013200040F2092000F07EFF0121084600F06DFF29
:101330000121142000F076FF0120ADF8000000200C
:101340008DF8030069464A4800F0B6FC0220ADF86B
:10135000000000208DF803006946454800F0ACFC11
:101360000420ADF8000000208DF8030069464048D5
:1013700000F0A2FC0820ADF8000000208DF803006A
:1013800069463B4800F098FC1020ADF800000020B2
:101390008DF803006946364800F08EFC0220ADF857
:1013A000000000208DF803006946314800F084FCFD
:1013B0002020ADF8000000208DF8030069462C487D
:1013C00000F07AFC4020ADF8000000208DF803000A
:1013D0006946274800F070FC8020ADF8000000202E
:1013E0008DF803006946224800F066FC0120ADF844
:1013F000000000208DF8030069461E4800F05CFCE8
:101400000220ADF8000000208DF80300694619485D
:1014100000F052FC0120ADF8000000208DF8030020
:101420006946154800F048FC0220ADF80000002095
:101430008DF803006946104800F03EFC0420ADF82A
:10144000000000208DF8030069460B4800F034FCD2
:1014500008BD10B5FFF762FFFFF724FEFFF747FE58
:1014600010BD0000080002404C240140E8010020AB
:1014700000080140000C01400010014031490143C7
:10148000314A1160704770B5002100230F22C478E3
:101490000CB32D4C246804F4E064C4F5E064210A24
:1014A000C1F10403CA40447804FA03F1847814407B
:1014B00021430901254C0678A155047804F01F0545
:1014C0000124AC4005786D114FF0E02606EB850550
:1014D000C5F8004109E0047804F01F050124AC4080
:1014E0001B4D0678761145F8264070BD194A0A4012
:1014F0000243154B1B1F1A60704739B1124A121D67
:1015000012680243104B1B1D1A6006E00E4A121DA2
:10151000126882430C4B1B1D1A607047042808D1C7
:101520004FF0E021096941F004014FF0E022116120
:1015300007E04FF0E021096921F004014FF0E022BB
:10154000116170470000FA050CED00E000E400E0D6
:1015500080E100E080FFFF1F10B50446FA48844296
:1015600008D10121401500F077FE0021601500F040
:1015700073FE17E0F548844208D10121001500F000
:101580006BFE0021201500F067FE0BE0F04884425E
:1015900008D10121C80300F05FFE00214FF4004094
:1015A00000F05AFE10BD30B50246002000235068FE
:1015B000E84C20400D790C6844EA05242043506033
:1015C0009068E54C2040D1E902542C434D7944EA1F
:1015D000450420439060D06A20F470000C7C641EA7
:1015E000E4B2234340EA0350D06230BD00210160E1
:1015F000017141718160C16001210174704721B1A5
:10160000826842F00102826003E0826822F00102F7
:101610008260704721B1826842F48072826003E088
:10162000826822F480728260704710B50023CBB2CA
:101630001AB144681C43446002E044689C4344601F
:1016400010BD816841F008018160704701460020AB
:101650008A6812F0080F01D0012000E000207047D6
:10166000816841F0040181607047014600208A686A
:1016700012F0040F01D0012000E00020704721B1DA
:10168000826842F4A002826003E0826822F4A00231
:1016900082607047014600208A6812F4800F01D0F2
:1016A000012000E00020704710B50A460021002309
:1016B000416821F46041531E41EA4331416010BD4D
:1016C00021B1426842F40062426003E0426822F4C1
:1016D000006242607047F0B504460D4600200021CC
:1016E000092D11DDE068A5F10A0606EB460707267D
:1016F00006FA07F18843A5F10A0606EB460603FA47
:1017000006F10843E0600CE0206905EB4507072679
:1017100006FA07F1884305EB450603FA06F108438C
:101720002061072A0FDA606B561E06EB86071F261C
:1017300006FA07F18843561E06EB860605FA06F1FF
:101740000843606322E00D2A0FDA206BD61F06EBF8
:1017500086071F2606FA07F18843D61F06EB860682
:1017600005FA06F10843206310E0E06AA2F10D06D5
:1017700006EB86071F2606FA07F18843A2F10D063D
:1017800006EB860605FA06F10843E062F0BD21B1DA
:10179000826842F48012826003E0826822F4801240
:1017A000826070470146C86C80B2704766484C3012
:1017B0000068704721B1426842F48062426003E0F1
:1017C000426822F480624260704721B1426842F46C
:1017D0008052426003E0426822F4805242607047C7
:1017E0000A460021816821F4E0411143816070477D
:1017F00021B1826842F40042826003E0826822F4F0
:1018000000428260704721B1826842F40212826015
:1018100003E0826822F402128260704701460020D1
:101820008A6812F4001F01D0012000E000207047F8
:10183000F0B504461546002000220026092911DDD6
:10184000E068A1F10A0707EB470C072707FA0CF23B
:101850009043A1F10A0707EB470703FA07F2104389
:10186000E0600CE0206901EB410C072707FA0CF25D
:10187000904301EB410703FA07F210432061A06B8C
:10188000C0F30156EF1C06F1010CA7EB0C0707EBA8
:10189000870C1F2707FA0CF29043EF1C06F1010C8E
:1018A000A7EB0C0707EB870701FA07F21043A063C9
:1018B000F0BD10B50A4600210023816B21F44011D0
:1018C000531E41EA0351816310BD08B50023009304
:1018D0000090009B0B440093009B1A6008BD08B564
:1018E000024600200090009201F12800009B18445D
:1018F00000900098006880B208BD0A460021416847
:10190000164B194011434160704741628262704733
:101910000A460021416821F01F01114341607047D0
:1019200040B109490831096841F40001064A08320A
:10193000116007E004490831096821F40001024AF6
:101940000832116070470000002401400028014067
:10195000003C0140FFFEF0FFFDF7F1FFFFFD3FFF00
:101960000246002013680B4201D0012000E0002055
:101970007047CA430260704770B5024600200023DA
:1019800000240B125568CEB205EA060415681D4204
:1019900002D00CB1012000E0002070BD00220A122C
:1019A000D34303607047000001684FF6FE72114098
:1019B00001600021016041608160C1608C49884202
:1019C00008D18B490839496841F00F01884A083A23
:1019D00051608AE086491431884208D18449083927
:1019E000496841F0F001824A083A51607DE080493F
:1019F0002831884208D17E490839496841F470612C
:101A00007B4A083A516070E079493C31884208D1FC
:101A100077490839496841F47041754A083A51607C
:101A200063E073495031884208D1714908394968E7
:101A300041F470216E4A083A516056E06C496431B5
:101A4000884208D16A490839496841F47001684AF6
:101A5000083A516049E066497831884208D16449C2
:101A60000839496841F07061614A083A51603CE0C8
:101A70006049884206D1011F096841F00F01021F29
:101A8000116032E05B491431884208D15949091F7D
:101A9000096841F0F001574A121F116025E05549CD
:101AA0002831884208D15349091F096841F47061FF
:101AB000504A121F116018E04E493C31884208D14B
:101AC0004C49091F096841F470414A4A121F1160CC
:101AD0000BE048495031884207D14649091F09683F
:101AE00041F47021434A121F1160704710B5002263
:101AF000026847F6F0739A430C6A8B6823430C69BB
:101B000023434C6923438C692343CC6923434C6AA8
:101B100023438C6A23431A430260CB6843600B68FB
:101B200083604B68C36010BD00210160416081602B
:101B3000C160016141618161C16101624162816293
:101B4000704721B1026842F00102026004E00268BD
:101B50004FF6FE731A40026070471AB103680B43D8
:101B6000036002E003688B43036070474160704785
:101B70000146486880B2704701460020002211F0FB
:101B8000805F03D01B4B083B1A6802E0184B083BF0
:101B90001A680A4201D0012000E00020704710F0CE
:101BA000805F03D01349091F086002E0104908391B
:101BB0004860704701460020002211F0805F03D08A
:101BC0000C4B083B1A6802E0094B083B1A680A42B2
:101BD00001D0012000E00020704710F0805F03D0AA
:101BE0000449091F086002E001490839486070474C
:101BF000080002400804024010B50446CA48844266
:101C000008D10121042000F027FB0021042000F06E
:101C100023FB46E0C548844208D10121082000F09A
:101C20001BFB0021082000F017FB3AE0C04884426B
:101C300008D10121102000F00FFB0021102000F03E
:101C40000BFB2EE0BB48844208D10121202000F08C
:101C500003FB0021202000F0FFFA22E0B648844276
:101C600008D10121402000F0F7FA0021402000F0C7
:101C7000F3FA16E0B148844208D10121802000F037
:101C8000EBFA0021802000F0E7FA0AE0AC48844239
:101C900007D10121801500F0DFFA0021A01500F026
:101CA000DBFA10BD10B50121084600F0D5FA00217D
:101CB000012000F0D1FA10BD2DE9F04102460025C7
:101CC0000026002000230024002791F803C00CF018
:101CD0000F0591F803C01CF0100F03D091F802C05B
:101CE0004CEA050591F800C0BCF1000F31D0146832
:101CF00000202BE04FF0010C0CFA00F3B1F800C00B
:101D00000CEA03069E4220D183004FF00F0C0CFA20
:101D100003F7BC4305FA03FC4CEA040491F803C042
:101D2000BCF1280F06D14FF0010C0CFA00FCC2F8F0
:101D300014C00AE091F803C0BCF1480F05D14FF080
:101D4000010C0CFA00FCC2F810C0401C0828D1D3CA
:101D50001460B1F800C0BCF1FF0F34DD54680020FE
:101D60002EE000F1080C4FF0010808FA0CF3B1F86E
:101D700000C00CEA03069E4221D183004FF00F0CF5
:101D80000CFA03F7BC4305FA03FC4CEA040491F88F
:101D900003C0BCF1280F05D100F1080C08FA0CF8BB
:101DA000C2F8148091F803C0BCF1480F07D100F1CC
:101DB000080C4FF0010808FA0CF8C2F81080401C1B
:101DC0000828CED35460BDE8F0814FF6FF71018042
:101DD000022181700421C17070470246002093687F
:101DE0000B4201D0012000E00020704701468868C6
:101DF00080B2704702460020D3680B4201D0012018
:101E000000E0002070470146C86880B27047016159
:101E10007047416170470AB1016100E0416170475C
:101E2000C16070474FF480320A43826181618261F0
:101E300082698269704702460020424B18684FF65B
:101E40008073184040EA021008433E4B1860704708
:101E50003D49C8617047F0B50A46002300240021BF
:101E6000002500F00046B6F1004F02D1354EF16971
:101E700001E0344E7168C0F3034583B200F44016AC
:101E8000B6F5401F08D121F070612E4E766826F01D
:101E900070662C4F7E6012E000F48016B6F5801F4D
:101EA00006D1032606FA05F4A14341F0706106E06D
:101EB000460D360103FA06F6B14341F0706122B1D6
:101EC000460D360103FA06F6314300F00046B6F13E
:101ED000004F02D11B4EF16101E01A4E7160F0BD5E
:101EE00030B500228B071C0F0F2303FA04F2154BA9
:101EF00008338C1053F824309343124C08348D105F
:101F000044F8253023468C1053F824308C07240FD6
:101F100000FA04F423430B4C08348D1044F82530A8
:101F200030BD0A490860704700080140000C0140BC
:101F3000001001400014014000180140001C014045
:101F4000002001400000014000002042DC0020424F
:101F5000DD48006840F00100DB4908600846406841
:101F6000DA490840D849486008460068D84908401E
:101F7000D54908600846006820F4802008600846BB
:101F8000406820F4FE0048604FF41F0088607047EE
:101F9000CD49096821F48031CB4A116011460968A6
:101FA00021F480211160B0F5803F03D0B0F5802F7F
:101FB0000ED106E0C449096841F48031C24A11607B
:101FC00007E0C149096841F4A021BF4A116000E05F
:101FD00000BF00BF704710B501460022002300205B
:101FE0004A11012A02D1B84C236806E0022A02D124
:101FF000B54C236A01E0B44C636A01F01F0201246E
:1020000094401C4201D0012000E0002010BD38B5F2
:10201000002000900024002500BF3120FFF7DBFFE7
:1020200005460098401C00900098B0F5A06F01D0C4
:10203000002DF2D03120FFF7CEFF08B1012400E0DF
:102040000024204638BD014600209F4A106820F039
:10205000F80040EAC100106070479E490860704770
:1020600002460020984B586820F47C1042EA010395
:102070001843954B5860704796490866704701466B
:102080000020914A506820F00300084350607047D8
:102090008D48406800F00C007047014600208A4AD5
:1020A000506820F0F000084350607047014600205F
:1020B000854A506820F4E06008435060704701464C
:1020C0000020814A506820F4605040EAC10050600E
:1020D000704729B17C4A527A02437B4B5A7204E022
:1020E000794A527A8243784B5A7270477A4908602B
:1020F000704701460020744A506820F4404008436D
:10210000506070470021754A11706F4A82F82010A4
:10211000012802D0042808D103E001216F4A117080
:1021200004E005216D4A117000E000BF00BF704758
:102130006B49086070476449096A0143624A116249
:102140007047674944390860704730B50021002264
:10215000002400235C4D6D6805F00C0121B10429B9
:1021600005D0082923D105E05E4D056022E05D4DD4
:1021700005601FE0544D6D6805F47012524D6D6896
:1021800005F48034022505EB92421CB9564D5543A7
:1021900005600BE04C4D6D6815F4003F03D0524DC7
:1021A0005543056002E04F4D5543056002E04D4D3B
:1021B000056000BF00BF444D6D6805F0F0010909DE
:1021C0004A4D6B5C0568DD4045603F4D6D6805F428
:1021D000E061090A454D6B5C4568DD4085603A4D1C
:1021E0006D6805F46051C90A404D6B5C4568DD407F
:1021F000C560354D6D6805F44041890B3C4D6B5C05
:10220000C568B5FBF3F5056130BD29B12E4A5269A9
:1022100002432D4B5A6104E02B4A526982432A4BF8
:102220005A61704729B1284A92690243264B9A6144
:1022300004E0254A92698243234B9A61704729B191
:10224000214AD2690243204BDA6104E01E4AD26976
:1022500082431D4BDA61704729B11B4AD2680243A1
:10226000194BDA6004E0184AD2688243164BDA60F0
:10227000704729B1144A12690243134B1A6104E0F2
:10228000114A12698243104B1A6170471449403950
:10229000086070470F49C86470470B49C8717047A0
:1022A0000948406A40F0807007494862704701461B
:1022B0000020054A92680A4201D0012000E0002077
:1022C0007047014988727047001002400000FFF813
:1022D000FFFFF6FE00004242D800424220100240BA
:1022E0008004424200127A0000093D002C000020C8
:1022F0003C00002010B50446FE48844208D101216C
:10230000C014FFF7A9FF0021E014FFF7A5FFC4E008
:10231000B4F1804F08D101210846FFF7AAFF002140
:102320000120FFF7A6FFB8E0F348844208D101215D
:102330000220FFF79EFF00210220FFF79AFFACE08A
:10234000EE48844208D101210420FFF792FF0021CA
:102350000420FFF78EFFA0E0E948844208D1012164
:102360000820FFF786FF00210820FFF782FF94E096
:10237000E448844208D101211020FFF77AFF0021B0
:102380001020FFF776FF88E0DF48844208D1012162
:102390002020FFF76EFF00212020FFF76AFF7CE07E
:1023A000DA48844208D101214014FFF755FF00218B
:1023B0006014FFF751FF70E0D548844209D1012134
:1023C000C804FFF749FF00214FF40020FFF744FF46
:1023D00063E0D048844209D101210805FFF73CFFA2
:1023E00000214FF48010FFF737FF56E0CA488442BF
:1023F00009D101214805FFF72FFF00214FF40010FC
:10240000FFF72AFF49E0C548844208D10121402056
:10241000FFF72FFF00214020FFF72BFF3DE0C048D2
:10242000844208D101218020FFF723FF0021802072
:10243000FFF71FFF31E0BB48844208D1012180151E
:10244000FFF717FF0021A015FFF713FF25E0B6489F
:10245000844209D101210804FFF7FEFE00214FF458
:102460008030FFF7F9FE18E0B048844209D101211D
:102470004804FFF7F1FE00214FF40030FFF7ECFEB7
:102480000BE0AB48844208D101218804FFF7E4FE49
:1024900000214FF48020FFF7DFFE10BD00220288EC
:1024A000944B98420ED0994B98420BD0B0F1804F8C
:1024B00008D0914B984205D0904B984202D0904B57
:1024C000984204D14FF68F731A404B881A438D4BB4
:1024D000984207D08C4B984204D04FF6FF431A40E5
:1024E000CB881A4302808B8883850B880385814BB8
:1024F00098420BD0854B984208D08B4B984205D020
:102500008A4B984202D08A4B984201D10B7A0386BB
:1025100001238382704770B5002400220023058CBC
:102520004FF6FE7635400584028C8388048B4FF687
:102530008F752C40B51E2C400D882C43751E2A40EB
:102540000D892A434D882A436A4DA8420BD06F4D0E
:10255000A84208D0744DA84205D0744DA84202D0BC
:10256000734DA84213D14FF6F7752A404D892A437F
:102570004FF6FB752A408D882A434FF6FF652B40A6
:102580004FF6FF552B408D892B43CD892B438380FC
:102590000483CD888586028470BD70B50024002236
:1025A0000023058C4FF6EF7635400584028C838836
:1025B000048B48F6FF752C404FF6FF452C400D88E4
:1025C0004FF6FF7606EA05252C434FF6DF752A40C5
:1025D0000D8906EA05152A434D8806EA05152A43A2
:1025E000444DA84202D0494DA8421DD14FF67F75F7
:1025F0002A404D894FF6FF7606EA05152A434FF625
:10260000BF752A408D8806EA05152A434FF6FF3527
:102610002B404FF2FF752B408D8906EA85052B4331
:10262000CD8906EA85052B4383800483CD88058701
:10263000028470BD70B5002400220023058C4FF683
:10264000FF6635400584028C8388848B4FF68F7536
:102650002C404FF6FC752C400D882C434FF6FF554F
:102660002A400D894FF6FF7606EA05252A434D8854
:1026700006EA05252A431F4DA84202D0234DA84251
:102680001DD14FF2FF752A404D894FF6FF7606EABD
:1026900005252A434FF6FF352A408D8806EA052591
:1026A0002A434EF6FF752B404DF6FF752B408D8962
:1026B00006EA05152B43CD8906EA05152B438380D1
:1026C0008483CD888587028470BD70B50022002385
:1026D0000024058C4EF6FF7635400584038C8488F3
:1026E000828B48F6FF752A404FF6FF452A400D8839
:1026F00020E00000002C01400004004000080040E1
:10270000000C004000100040001400400034014064
:10271000004C0140005001400054014000180040AE
:10272000001C0040002000400040014000440140E7
:10273000004801404FF6FF7606EA05252A434DF68C
:10274000FF752B400D8906EA05352B434D8806EAB7
:1027500005352B43FA4DA84202D0FA4DA84208D1C4
:102760004BF6FF752C408D894FF6FF7606EA8515EE
:102770002C4384808283CD88A0F84050038470BDB0
:10278000828B4FF2FF331A408283828B4FF6FF73A6
:1027900003EA01231A4382837047F0B50C461546BD
:1027A000002200210026078C4EF6FF7C07EA0C076A
:1027B0000784828B018C4FF6FF7707EA043640F6D8
:1027C000FF473A404FF6FF7707EA05273A434FF6AF
:1027D000FF7707EA03373A43D94FB8420ED0D94FB3
:1027E000B8420BD0B0F1804F08D0D74FB84205D0D7
:1027F000D64FB84202D0D64FB84206D14DF6FF7739
:10280000394046F48057394305E047F6FF573940D1
:1028100044F48057394382830184F0BD828B4FF6A4
:10282000F3731A408283828B0A4382837047F0B528
:102830000C461546002200210026078C4FF6FF6C3F
:1028400007EA0C070784828B018C4FF6FF7707EAB3
:1028500004264FF60C773A404FF6FF7707EA031746
:102860002F433A43B64FB8420ED0B64FB8420BD0C2
:10287000B0F1804F08D0B44FB84205D0B34FB84242
:1028800002D0B34FB84206D14FF6FF57394046F455
:102890008077394305E04FF2FF57394044F48077A1
:1028A000394382830184F0BD028B4FF2FF331A401B
:1028B0000283028B4FF6FF7303EA01231A4302835C
:1028C0007047F0B50C461546002200210026078C03
:1028D0004FF6EF7C07EA0C070784028B018C4FF65A
:1028E000FF7707EA041640F6FF473A404FF6FF77B6
:1028F00007EA03373A434FF6FF7707EA05273A43DB
:102900008F4FB8420ED08F4FB8420BD0B0F1804FEE
:1029100008D08D4FB84205D08C4FB84202D08C4FB2
:10292000B84206D14FF6DF77394046F010073943F9
:1029300005E04FF65F77394044F0100739430283D2
:102940000184F0BD028B4FF6F3731A400283028BB1
:102950000A4302837047F0B50C4615460022002159
:10296000068C4FF6FE773E400684028B018C4FF6B4
:102970000C7632407E1C06EA03162E433243704E1C
:10298000B0420ED06F4EB0420BD0B0F1804F08D0A5
:102990006D4EB04205D06D4EB04202D06C4EB0428A
:1029A00006D14FF6FD76314044F00106314305E093
:1029B0004FF6F576314044F001063143028301843D
:1029C000F0BD70B505460C465D4885420ED05D48A9
:1029D00085420BD0B5F1804F08D05B48854205D0C9
:1029E0005A48854202D05A48854200D100E000BFD3
:1029F000208850B92389A28861882846FFF7ABFF59
:102A0000E1882846FFF79EFF25E0208804280AD1A8
:102A10002389A28861882846FFF753FFE18828466A
:102A2000FFF742FF17E0208808280AD12389A288EF
:102A300061882846FFF7FBFEE1882846FFF7EEFE97
:102A400009E02389A28861882846FFF7A6FEE1886D
:102A50002846FFF795FE70BD2DE9F04105460C466E
:102A600000260127608808B9022600E00026A08819
:102A7000012801D1022700E001272088A0B923897D
:102A8000A28861882846FFF766FFE1882846FFF79D
:102A900059FF23893A4631462846FFF712FFE1885D
:102AA0002846FFF701FF13E02389A28861882846A2
:102AB000FFF707FFE1882846FFF7F6FE23893A462D
:102AC00031462846FFF747FFE1882846FFF73AFFDF
:102AD000BDE8F0810A884B881A438B881A43CB885B
:102AE0001A430B891A434B891A438B891A43A0F85E
:102AF000442070474FF6FF71818000210180C18022
:102B00004180017270470021018041808180C18035
:102B1000018141818181C181704700210180418013
:102B2000012181800021C180018170470021018045
:102B300041808180C1800181418181817047000095
:102B4000002C014000340140000400400008004017
:102B5000000C004021B1028842F00102028004E032
:102B600002884FF6FE731A400280704731B1B0F808
:102B7000442042F40042A0F8442005E0B0F844208C
:102B8000C2F30E02A0F8442070471AB183890B43A8
:102B9000838102E083898B43838170478182704700
:102BA00041EA0203A0F8483070471AB183890B4309
:102BB000838102E083898B438381704701894FF6CB
:102BC000F8721140018170470A46002101894FF6D1
:102BD0008F73194011430181704730B504460D468B
:102BE00029462046FFF7F0FF208940F007002081AA
:102BF00030BD2DE9F04104460D4616461F46602DB6
:102C000006D13B46012231462046FFF75AFE05E039
:102C10003B46012231462046FFF79DFE29462046CD
:102C2000FFF7D2FF208940F007002081BDE8F08146
:102C300030B50C4600210189C9B24FF6FF7505EA8F
:102C40000325154325432943018130BD2DE9F0417A
:102C500005460E4617469846002443463A463146F6
:102C60002846FFF7E5FF2C894FF6F870044044F042
:102C700007044FF68F70044044F070042C81BDE8C7
:102C8000F081F0B504460D4616461F463B463246D7
:102C900029462046FFF7CCFF208940F48040208160
:102CA000F0BD0185828270470A46002101884FF6F7
:102CB0008F731940114301807047F0B50C461546DB
:102CC0001E460021002200230189028B038C4FF64F
:102CD000F877394021434FF6FC473A4040F201175C
:102CE0003A434FF6DD773B404FF6FF7707EA06178A
:102CF0002F433B43018102830384F0BD0A46002138
:102D0000018B4FF68F7319401143018370470A46B8
:102D10000021018B48F6FF7319404FF6FF7303EA59
:102D200002231943018370470A460021818B4FF625
:102D30008F7319401143818370470A460021818BAC
:102D400048F6FF7319404FF6FF7303EA0223194355
:102D50008183704721B1028842F08002028004E042
:102D600002884FF67F731A400280704721B1828833
:102D700042F00402828004E082884FF6FB731A401E
:102D80008280704721B1828842F00802828004E08C
:102D900082884FF6F7731A408280704721B182888B
:102DA00042F00102828004E082884FF6FE731A40EE
:102DB000828070470A460021018B4FF6F773194055
:102DC0001143018370470A460021018B4FF2FF73C4
:102DD00019404FF6FF7303EA02231943018370473A
:102DE0000A460021818B4FF6F77319401143818306
:102DF00070470A460021818B4FF2FF7319404FF64E
:102E0000FF7303EA02231943818370470A460021B6
:102E1000018B4FF6FB7319401143018370470A463B
:102E20000021018B4FF6FF3319404FF6FF7303EA81
:102E300002231943018370470A460021818B4FF614
:102E4000FB7319401143818370470A460021818B2F
:102E50004FF6FF3319404FF6FF7303EA022319437D
:102E6000818370470A460021018B4FF67F7319401A
:102E70001143018370470A460021018BC1F30E0103
:102E80004FF6FF7303EA02231943018370470A4692
:102E90000021818B4FF67F73194011438183704766
:102EA0000A460021818BC1F30E014FF6FF7303EA3E
:102EB00002231943818370470A460021018C4FF693
:102EC000FD7319401143018470470A460021018CAB
:102ED0004FF6F77319401143018470470A460021E9
:102EE000018C4FF6DF7319404FF6FF7303EA0213AC
:102EF0001943018470470A460021018C4FF67F7305
:102F000019404FF6FF7303EA021319430184704717
:102F10000A460021018C4FF6FF5319404FF6FF730C
:102F200003EA02231943018470470A460021018CF9
:102F30004FF2FF7319404FF6FF7303EA0223194360
:102F4000018470470A460021018C4DF6FF73194039
:102F50004FF6FF7303EA023319430184704730B51B
:102F6000002301248C40A3B2048C9C430484048C71
:102F700002FA01F5ADB22C43048430BD30B5002314
:102F800004248C40A3B2048C9C430484048C02FA75
:102F900001F5ADB22C43048430BD70B5034600206A
:102FA00000241846183001258D40ACB21D8CA54375
:102FB0001D8409B1082909D100EB6100056825F0DD
:102FC000700505600568154305600EE00D1FC5F32B
:102FD0004E052844056825F4E045056005684FF670
:102FE000FF7606EA02263543056070BD21B10288EE
:102FF00042F00202028004E002884FF6FD731A409C
:103000000280704721B1028842F00402028004E08D
:1030100002884FF6FB731A400280704721B1828804
:1030200042F08002828004E082884FF67F731A406B
:103030008280704702884FF6F7731A400280028838
:103040000A430280704782884FF68F731A4082804D
:1030500082880A438280704702894FF6F8731A40CB
:10306000028102890A430281704702894FF67F7309
:103070001A40028102890A430281704781847047A5
:1030800081857047818670470187704781877047C7
:10309000A0F84010704702884FF6FF431A400280A4
:1030A00002880A43028070470146888E70470146B5
:1030B000088F70470146888F70470146B1F840007D
:1030C00070470146888C70470146088D704702465C
:1030D0000020138A0B4201D0012000E0002070473D
:1030E000CA430282704730B5024600200023002404
:1030F000158A05EA0103958905EA010413B10CB1AB
:10310000012000E0002030BDCA4302827047000069
:1031100010B50446FB48844209D101218803FFF71A
:103120009BF800214FF48040FFF796F832E0F64814
:10313000844209D101214804FFF79BF800214FF494
:103140000030FFF796F825E0F048844209D10121CC
:103150008804FFF78EF800214FF48020FFF789F8EC
:1031600018E0EB48844209D10121C804FFF781F837
:1031700000214FF40020FFF77CF80BE0E548844283
:1031800008D101210805FFF774F800214FF48010E1
:10319000FFF76FF810BD2DE9F04786B005460E46E3
:1031A0000024A24600BFA1460027B08900B100BF9D
:1031B0002F462C8A4CF6FF700440F08804432C8282
:1031C000AC894EF6F3100440B08831890843718908
:1031D00008430443AC81AC8A4FF6FF400440B089F9
:1031E0000443AC8201A8FEF7B0FFC648874202D173
:1031F000DDF810A001E0DDF80CA0A88910F4004F64
:1032000008D00AEBCA0000EB0A1031684900B0FB95
:10321000F1F807E00AEBCA0000EB0A1031688900F8
:10322000B0FBF1F86420B8FBF0F004012009642140
:1032300001FB1089A88910F4004F08D0322000EB60
:10324000C900B0FBF1F000F00700044308E03220B1
:1032500000EB09106421B0FBF1F000F00F00044313
:103260002C8106B0BDE8F0874FF4165101600021B3
:103270008180C18001810C214181002181817047C1
:1032800010B502460020108A4FF2FF0318400B8849
:103290004C8823438C882343CC88234318431082D3
:1032A00010BD0021018041808180C180704721B123
:1032B000828942F40052828104E082894DF6FF73D4
:1032C0001A4082817047F0B503460024002600258D
:1032D0000020A1F510676A3F00D100BF1846C1F376
:1032E000421401F01F06012707FA06F5012C01D14F
:1032F0000C3004E0022C01D1103000E014301AB17F
:1033000007682F43076002E00768AF430760F0BD1E
:103310001AB1838A0B43838202E0838A8B438382C0
:103320007047028A4FF6F0731A400282028A0A43FB
:103330000282704782894FF2FF731A40828182892C
:103340000A438281704721B1828942F00202828160
:1033500004E082894FF6FD731A4082817047028A29
:103360004FF6DF731A400282028A0A4302827047D4
:1033700021B1028A42F48042028204E0028A4BF6C2
:10338000FF731A4002827047C1F3080282807047BF
:1033900001468888C0F308007047818941F0010127
:1033A00081817047028BD2B20283028B42EA0122F2
:1033B00002837047028B02F47F420283028B0A432E
:1033C0000283704721B1828A42F02002828204E0A7
:1033D000828A4FF6DF731A408282704721B1828A57
:1033E00042F01002828204E0828A4FF6EF731A40A4
:1033F0008282704721B1828A42F00802828204E010
:10340000828A4FF6F7731A408282704721B182890F
:1034100042F40042828103E08289C2F30E0282817B
:10342000704721B1828A42F40062828204E0828A7B
:103430004FF2FF731A4082827047828A4FF6FB7305
:103440001A408282828A0A438282704721B1828A2C
:1034500042F00202828204E0828A4FF6FD731A4033
:103460008282704702460020B1F5007F00D100BF84
:1034700013880B4201D0012000E00020704701F4C6
:103480000072B2F5007F00D100BFCA4302807047CE
:1034900070B502460024002300250020A1F5106627
:1034A0006A3E00D100BFC1F3421501F01F0301269F
:1034B00006FA03F3012D02D19689334006E0022D6E
:1034C00002D1168A334001E0968A33400C1201265D
:1034D00006FA04F41688344013B10CB1012000E060
:1034E000002070BD10B500220023A1F510646A3CD5
:1034F00000D100BF0A1201249440A3B2DC4304802F
:1035000010BD000000380140004400400048004069
:10351000004C0040005000400CB50020019000908D
:103520006B48006840F480306949086000BF684813
:10353000006800F4003000900198401C0190009851
:1035400018B90198B0F5A06FF1D16148006810F486
:10355000003F02D00120009001E000200090009880
:10356000012842D15B48006840F0100059490860CA
:103570000846006820F0030008600846006840F034
:103580000200086052484068514948600846406857
:1035900048600846406840F48060486008464068DB
:1035A00020F47C1048600846406840F4E810486009
:1035B0000846006840F08070086000BF444800681A
:1035C00010F0007FFAD04248406820F003004049E4
:1035D00048600846406840F00200486000BF3C4830
:1035E000406800F00C000828F9D10CBD10B5FFF7B9
:1035F00093FF10BD10B53648006840F00100344913
:103600000860084640683449084031494860084627
:103610000068324908402E4908600846006820F4D6
:10362000802008600846406820F4FE0048604FF49F
:103630001F008860FFF7DAFF4FF00060284908603C
:1036400010BD10B5002100200022214B5B6803F063
:103650000C0121B1042906D0082928D107E0214B0B
:10366000214C236027E01F4B1F4C236023E0184BA5
:103670005B6803F47010164B5B6803F4803202231E
:1036800003EB904022B9194B4343174C23600DE0E4
:103690000F4B5B6813F4003F04D0144B4343124CB0
:1036A000236003E00F4B43430F4C236003E00D4BBB
:1036B0000D4C236000BF00BF054B5B68C3F30313D1
:1036C0000B4CE15C084B1B68CB40074C236010BDE2
:1036D00000100240002002400000FFF8FFFFF6FE4D
:1036E00008ED00E000127A004000002000093D00D3
:1036F000440000200648804706480047FEE7FEE7F2
:10370000FEE7FEE7FEE7FEE7FEE7FEE7FEE7FEE791
:10371000F53500083101000830B50B4601460020A0
:103720002022012409E021FA02F59D4205D303FA83
:1037300002F5491B04FA02F52844151EA2F1010204
:10374000F1DC30BD064C074D06E0E06840F00103B7
:1037500094E8070098471034AC42F6D3FCF7ECFC31
:10376000FC3800081C3900080FB4054B10B503A93C
:10377000044A029800F018F810BC5DF814FB000031
:10378000670C00085400002002E008C8121F08C19E
:10379000002AFAD170477047002001E001C1121FD2
:1037A000002AFBD1704700002DE9FF4F89B09B46EE
:1037B0000446002597E0252833D10027641C4E4994
:1037C000B84601222378203B02FA03F0084202D0D7
:1037D0000743641CF6E720782E2819D114F8010F4E
:1037E00047F004072A280ED06FF02F022078A0F1AE
:1037F000300109290CD808EB880102EB410100EBEC
:103800000108641CF2E70A98641C50F8048B0A90C3
:10381000207800286BD0642808D0692806D0752845
:1038200020D05A460B9990476D1C5BE00A994FF0E7
:103830000A0901C90A91002804DAC0F100004FF01A
:103840002D0102E0390504D52B218DF8201001212E
:1038500003E0F90704D02021F7E78A4608AE0EE01E
:103860000021FAE70A994FF00A0901C90A91F7E71E
:103870004946FFF751FF01F1300106F8011D00280C
:10388000F6D1ADEB060000F12009780701D44FF026
:103890000108C84502DDA8EB090000E000208046D1
:1038A000002706E008A85A46C05D0B9990476D1C9A
:1038B0007F1C5745F6DB04E030205A460B999047B1
:1038C0006D1CB8F10001A8F10108F5DC05E016F85F
:1038D000010B5A460B9990476D1CB9F10001A9F1F3
:1038E0000109F4DC641C207800287FF464AF0DB07B
:1038F0002846BDE8F08F0000092801001C390008A7
:1039000000000020580000008837000874390008C3
:1039100058000020A80500009837000800000000AB
:103920000000000000000000000000000000000097
:103930000000000000000000000000000000000087
:10394000000000000000000000000000010203046D
:1039500001020304060708090204060800A24A043B
:10396000000000000000000001020304060708092F
:043970000000000053
:0400000508000131BD
:00000001FF
