:020000040800F2
:1000000030150020297B00088D0300088F030008AD
:1000100093030008970300089B03000800000000FA
:100020000000000000000000000000009F03000826
:10003000A103000800000000A3030008417B0008A2
:10004000437B0008437B0008437B00087F210008B6
:10005000437B0008437B0008437B0008437B000888
:10006000437B0008437B0008437B0008437B000878
:10007000437B0008437B0008437B0008437B000868
:10008000437B0008437B0008437B0008437B000858
:10009000437B0008437B0008437B0008437B000848
:1000A000437B0008437B0008437B0008437B000838
:1000B000437B0008437B000815760008437B00085B
:1000C000437B0008437B0008437B0008437B000818
:1000D000437B00089F7A0008437B0008437B0008AD
:1000E000437B0008437B0008437B0008437B0008F8
:1000F000437B0008437B0008437B0008437B0008E8
:10010000437B0008437B0008437B0008437B0008D7
:10011000437B0008437B0008437B0008E31D000885
:10012000437B0008437B0008437B0008437B0008B7
:1001300000F002F800F06FF80AA090E8000C82448A
:100140008344AAF10107DA4501D100F064F8AFF267
:10015000090EBAE80F0013F0010F18BFFB1A43F0A5
:1001600001031847680601008806010010F8013BEA
:100170000A4413F0030408BF10F8014B1D1108BF17
:1001800010F8015B641E05D010F8016B641E01F8C5
:10019000016BF9D1002D15D010F8014B03F00C03C1
:1001A0000C2BA1EB04040ABF10F8013BA4EB831451
:1001B000A4EB032405F1010314F8016B5B1E01F8A5
:1001C000016BF9D5914238BF10F8013BD1D370478C
:1001D0000023002400250026103A28BF78C1FBD850
:1001E000520728BF30C148BF0B60704764290AF02E
:1001F0000D8775290AF00A8778290AF04187632953
:100200000BF07D8173290BF08281002070471FB5B0
:100210001FBD10B510BD0BF0FFF91146FFF7F7FF3A
:1002200000F008F80BF01DFA03B4FFF7F2FF03BC6F
:1002300007F0DAFB1CB505F00EFC00F0A3FD00F0A2
:10024000C7FD00F025FE0CE047A010210B46C82298
:10025000CDE90010A021142006F024FBC82007F0EF
:1002600096FB05F0C3F90028EED14FF478404249DF
:10027000088042A010210B46C822CDE90010B4210D
:10028000142006F00FFB6DE0002001F0DEFA0446BA
:10029000002C67D00A2007F07AFB102005232246A5
:1002A000DC210090562006F0B3FA4FF6FF7007F0FD
:1002B0001DF900F08DFD00F050FE51E0002001F02E
:1002C000C4FA0446002C4BD0012C0AD14FF6FF7023
:1002D00007F00CF900F07CFD00F0ECFE00F0D0F926
:1002E0003EE0022C0AD14FF6FF7007F0FFF800F055
:1002F0006FFD00F04EFF00F057FB31E0032C0AD1F8
:100300004FF6FF7007F0F2F800F062FD01F093F88D
:1003100000F024FC24E0042C0AD14FF6FF7007F013
:10032000E5F800F055FD01F0D7F800F05AFC17E0B1
:10033000052C0AD14FF6FF7007F0D8F800F048FD01
:1003400001F039F900F0C4FC0AE00A2C08D14FF69C
:10035000FF7007F0CBF800F03BFD01F07CF900E006
:10036000ACE700BF90E700004D50553630353020E7
:100370004572726F72000000700C00204D505536AF
:10038000303530202020204F4B000000704700BF48
:10039000FEE700BFFEE700BFFEE700BFFEE77047D5
:1003A000704770470CB50020019000906C480068C1
:1003B00040F480306A49086000BF6948006800F472
:1003C000003000900198401C0190009818B90198E5
:1003D000B0F5A06FF1D16248006800F4003010B1B0
:1003E0000120009001E0002000900098012843D1F6
:1003F0005C48006840F010005A49086008460068F0
:1004000020F0030008600846006840F00200086021
:10041000534840685249486008464068486008466A
:10042000406840F4806048600846406820F47C10D2
:1004300048600846406840F4E81048600846006894
:1004400040F08070086000BF4548006800F0007010
:100450000028F9D04248406820F003004049486035
:100460000846406840F00200486000BF3C484068D1
:1004700000F00C000828F9D10CBD10B5FFF792FF71
:1004800010BD10B53648006840F0010034490860DE
:1004900008464068344908403149486008460068C9
:1004A000324908402E4908600846006820F4802040
:1004B00008600846406820F4FE0048604FF41F00C2
:1004C0008860FFF7DAFF4FF000602949086010BD2F
:1004D00010B5002100200022214B5B6803F00C01C5
:1004E00021B1042906D0082928D107E0214B224C4C
:1004F000236027E01F4B204C236023E0184B5B68F0
:1005000003F47010164B5B6803F48032022303EB94
:10051000904022B9194B4343174C23600DE0104B18
:100520005B6803F4003323B1144B4343124C236044
:1005300003E0104B4343104C236003E00D4B0E4C83
:10054000236000BF00BF064B5B68C3F303130C4C72
:10055000E15C094B1B68CB40074C236010BD0000D9
:1005600000100240002002400000FFF8FFFFF6FEEE
:1005700008ED00E000127A000000002000093D00B4
:10058000040000201CB50024FCA010210B46C8224A
:10059000CDE900101146962006F084F90120F949B2
:1005A00008604FF47A7007F0F2F90020F649C1F8BC
:1005B000A0014FF47A7001F03FFB4FF4E17007F0B7
:1005C000E6F900BF10E04FF47A7001F029FB40F229
:1005D000523007F0DCF94FF47A7001F02DFB40F255
:1005E000523007F0D4F9641C052CECDB4FF47A7020
:1005F00001F016FB4FF4C87007F0C9F901F040FB99
:100600000120E04908604FF47A7007F0C0F900203B
:10061000DD49C1F8A001DDA010210B46C822CDE9BB
:100620000010B421A02006F03DF91CBD86B00024C6
:10063000002500BFD1A010210B46C822CDE9001033
:100640001146962006F02EF90120CE4908604FF49D
:100650007A7007F09CF90020CB49C1F8A0010EE0A8
:1006600003AA04A905A805F00EF804980CF060FE92
:10067000C5B2A54203DC4FF47A7001F0D1FAEFE77E
:1006800070B58AB0F2E0002001F0DFF804468CB1CA
:100690000A2007F07CF90A2C08D14FF6FF7006F00B
:1006A00025FF00F095FB00F058FCE0E0062C01D19E
:1006B000FFF768FF07AA08A909A804F0E4FF60B9DA
:1006C00001F01BFF054604AA05A906A801F068FF72
:1006D00001AA02A903A801F03BFF002D13DB0020B3
:1006E00010232022C82100904E2005F0E2FF642054
:1006F00095FBF0F6102003233246C82100905620C7
:1007000006F086F819E0002010232D22C821009061
:100710004E2005F0CEFF099880F0004630460CF0E0
:10072000EBFD05B2642095FBF0F610200323324662
:10073000C8210090562006F06BF8002109980CF0B3
:1007400043FF14D8002010232022DC2100904E20EB
:1007500005F0AFFF09980CF0EBFD064610200323CF
:100760003246DC210090562006F052F817E00020B7
:1007700010232D22DC2100904E2005F09AFF0998CD
:1007800080F00040099009980CF0D2FD0646102038
:1007900003233246DC210090562006F039F8002170
:1007A00008980CF011FF14D8002010232022F0210B
:1007B00000904E2005F07DFF08980CF0B9FD06462C
:1007C000102003233246F0210090562006F020F836
:1007D00017E0002010232D22F02100904E2005F07C
:1007E00068FF089880F00040089008980CF0A0FD81
:1007F0000646102003233246F0210090562006F0D2
:1008000007F8BDF91000002816DB00201023202275
:100810004FF4827100904E2005F04BFF07980CF0CA
:1008200087FD06461020032332464FF48271009064
:10083000562005F0EDFF19E0002010232D224FF483
:10084000827100904E2005F034FF079880F0004040
:10085000079007980CF06CFD0646102003233246E3
:100860004FF482710090562005F0D2FF0BE700BFD5
:100870000AB070BD70B5A0B0054600244FF47A767A
:100880007822454902A80AF017FD44A010210B4622
:10089000C822CDE900101146962006F003F8012089
:1008A00038490860304607F072F800203649C1F830
:1008B000A001A5F11E0002A931F8200086B200BFF8
:1008C00010E04FF47A7001F0ABF94FF4527007F07A
:1008D0005EF84FF47A7001F0AFF94FF4527007F000
:1008E00056F8641C042CECDB00240EE0304601F0CA
:1008F00097F94FF4527007F04AF8304601F09CF92E
:100900004FF4527007F043F8641C0A2CEEDB00240D
:1009100010E04FF47A7001F08FF94FF4527007F045
:1009200036F84FF47A7001F07BF94FF4527007F00B
:100930002EF8641C032CECDB4FF47A7001F07CF988
:100940004FF4C87007F023F801F09AF901200D491F
:1009500008604FF47A7007F01AF800200A49C1F8CD
:10096000A0010AA010210B46C822CDE90010B42135
:10097000A02005F097FF20B070BD00007374617275
:1009800074000000A081214200802142636F6D70DD
:100990006C6574656400000008D8000874776F20E7
:1009A000737461727400000038B52D252EE00020AC
:1009B00000F04BFF04460CB30A2006F0E8FF0A2CB7
:1009C00008D14FF6FF7006F091FD00F001FA00F03B
:1009D000C4FA1CE0082C05D13C2D01DB1E2508E0E3
:1009E0006D1C06E0092C04D11E2D01DC3C2500E025
:1009F0006D1E062C02D1E8B2FFF73CFF1020042345
:100A00002A46C82100904A2005F002FFCFE700BF28
:100A100038BD2DE9F04FC7B083464FF0000A4FF4C0
:100A20007A70469000BFCA49CA4842914390CA486A
:100A30003F907822C94921A80AF03EFC7822C74994
:100A4000783103A80AF038FCC5A010210B46C82253
:100A5000CDE900101146962005F024FF0120C3497E
:100A600008604FF47A7006F092FF0020C049C1F888
:100A7000A00158460BF0C2FF8046439B429A0BF000
:100A8000D1FF06460022BB4B0BF01AFE04460D4672
:100A9000204629460BF02EFC06460BF02FFD419018
:100AA000204629460BF0ACFC06460BF027FD409093
:100AB00046980CF075FC074641990CF0B9FC0646C7
:100AC0000CF036FC80B2459046980CF069FC074665
:100AD00040990CF0ADFC06460CF02AFC80B2449024
:100AE00000BF15E0459801F09BF8449801F0B0F87C
:100AF0004FF4527006F04BFF459801F09DF8449872
:100B000001F0A6F84FF4527006F041FF0AF1010A15
:100B1000BAF10C0FE6DB4FF47A7001F08DF84FF468
:100B2000C87006F034FF01F0ABF801208F4908606F
:100B30004FF47A7006F02BFF00208D49C1F8A00118
:100B4000AFF2B81010210B46C822CDE90010B42135
:100B5000A02005F0A7FE47B0BDE8F08F38B500250E
:100B6000102005236F22F0210090562005F050FE42
:100B700032E0002000F069FE04461CB30A2006F0B3
:100B800006FF0A2C08D14FF6FF7006F0AFFC00F00C
:100B90001FF900F0E2F920E0082C06D1242D01DB3A
:100BA00024250AE0681CC5B207E0092C05D1002DF8
:100BB00001DC002501E0681EC5B2062C02D12846E2
:100BC000FFF727FF1020009005EB8500420004236B
:100BD000C8214A2005F01CFECBE700BF38BD00BF8E
:100BE000FEE710B516E0002000F02FFE04468CB1A1
:100BF0000A2006F0CCFE0A2C08D14FF6FF7006F052
:100C000075FC00F0E5F800F0A8F904E0062C01D12D
:100C1000FFF7E5FFE7E700BF10BD7CB506460024FF
:100C20004FF47A7554A010210B46C822CDE900106C
:100C30001146962005F036FE01204C4908602846F2
:100C400006F0A5FE00204A49C1F8A00100BF24E03B
:100C500001F024F8284600F0E3FF4FF4D27006F0CC
:100C600096FE01F01BF8284600F0F2FF4FF4D27018
:100C700006F08DFE01F012F8284600F0DDFF4FF47B
:100C8000D27006F084FE01F009F8284600F0ECFF6F
:100C90004FF4D27006F07BFE641C782CD8DB00F099
:100CA000FDFF0120314908604FF47A7006F06FFEB5
:100CB00000202F49C1F8A001AFF2303010210B46BF
:100CC000C822CDE90010B421A02005F0EBFD7CBDC9
:100CD00038B5192538E0002000F0B7FD04465CB3B4
:100CE0000A2006F054FE0A2C08D14FF6FF7006F0D9
:100CF000FDFB00F06DF800F030F926E01020052330
:100D00002246F0210090562005F082FD082C06D1E5
:100D1000232D01DB0F250AE0681CC5B207E0092C72
:100D200005D10F2D01DC232501E0681EC5B2062C7C
:100D300002D12846FFF771FF102004232A46C8215C
:100D400000904A2005F064FDC5E700BF38BD0000F3
:100D500044174154FB2109400000204280D800087C
:100D6000746872656520737461727400A081214299
:100D7000008021420080664073697820737461723C
:100D80007400000010B506F0C5FD4FF4A06006F039
:100D9000EBFE4FF4E13006F036FE00F0F9FC00F017
:100DA00023FD01F08CF906F099FD40F2CF210920D6
:100DB00000F0A4FF054841684820884701F009FB7E
:100DC00000F0F5FE00F079FE10BD0000F40C0020EC
:100DD0001CB51F20FE490880FEA010210B46C8222A
:100DE000CDE9001014210A2005F05CFDFBA01021C4
:100DF0000B46C822CDE900103C210A2005F052FD27
:100E0000F8A010210B46C822CDE9001064210A2069
:100E100005F048FD4FF47840ED490880F3A010211B
:100E20000B46C822CDE900102821142005F03AFD18
:100E3000F5A010210B46C822CDE900105021142046
:100E400005F030FDF4A010210B46C822CDE90010BA
:100E50007821142005F026FD0020DD4908808C2330
:100E6000EB221946052006F09CFA0A23EB221946CC
:100E7000052006F096FA8C2305220A21104606F07A
:100E800090FA8C23EB220A21104606F08AFA1CBD48
:100E90001CB51F20CE490880E5A010210B46C822B2
:100EA000CDE90010A0210A2005F0FCFCE2A01021F1
:100EB0000B46C822CDE900104FF482710A2005F0DC
:100EC000F1FC4FF47840C2490880DDA010210B46A8
:100ED000C822CDE900101146142005F0E3FCDCA087
:100EE00010210B46C822CDE90010DC21142005F0AA
:100EF000D9FCDBA010210B46C822CDE90010F0215F
:100F0000142005F0CFFCDAA010210B46C822CDE951
:100F100000104FF48C71142005F0C4FC0020AC4983
:100F200008804FF49B73EB221946052006F039FA2E
:100F30009623EB221946052006F033FA4FF49B73F3
:100F400005229621104606F02CFA4FF49B73EB22F3
:100F50009621104606F025FA1CBD1CB51F209C49A1
:100F60000880CAA010210B46C822CDE90010A0219C
:100F7000642005F097FCC7A010210B46C822CDE9DC
:100F80000010B421142005F08DFCC3A010210B46E5
:100F9000C822CDE900101146142005F083FCBFA043
:100FA00010210B46C822CDE90010DC21142005F0E9
:100FB00079FCBBA010210B46C822CDE90010F0211E
:100FC000142005F06FFCB7A010210B46C822CDE914
:100FD00000104FF48271142005F064FCB2A01021BF
:100FE0000B46C822CDE900104FF48C71142005F097
:100FF00059FC4FF4784076490880ACA010210B468C
:10100000C822CDE90010B421282005F04BFCACA08B
:1010100010210B46C822CDE900101146282005F00A
:1010200041FCACA010210B46C822CDE90010DC2108
:10103000282005F037FCB2A010210B46C822CDE9CC
:101040000010F021282005F02DFCB8A010210B463F
:10105000C822CDE900104FF48271282005F022FC4F
:10106000BAA010210B46C822CDE900104FF48C71B4
:10107000142005F017FC0020554908804FF49B739D
:10108000EB221946052006F08CF99623EB2219462F
:10109000052006F086F94FF49B7305229621104631
:1010A00006F07FF94FF49B73EB229621104606F071
:1010B00078F91CBD1CB51F2045490880A5A010214A
:1010C0000B46C822CDE90010A021502005F0EAFB14
:1010D000A3A010210B46C822CDE90010B421142092
:1010E00005F0E0FBA2A010210B46C822CDE90010BC
:1010F0004FF48C71142005F0D5FB4FF4784034493F
:101100000880A1A010210B46C822CDE9001011468D
:101110001E2005F0C7FB9EA010210B46C822CDE97A
:101120000010DC211E2005F0BDFB9BA010210B460A
:10113000C822CDE90010F0211E2005F0B3FB98A0D5
:1011400010210B46C822CDE900104FF482711E20F9
:1011500005F0A8FB00201E4908804FF49B73EB228A
:101160001946052006F01DF99623EB2219460520A5
:1011700006F017F94FF49B7305229621104606F0EE
:1011800010F94FF49B73EB229621104606F009F9F3
:101190001CBD1CB51F200E49088083A010210B46E2
:1011A000C822CDE90010A021502005F07BFB81A0D2
:1011B00010210B46C822CDE90010B421142005F0FF
:1011C00071FB4FF47840024908807DA01021FFE0B8
:1011D000700C00205343484F4F4C3A005449544C34
:1011E000453A000054494D453A00000057754368A0
:1011F000616E672053686F75596920556E69766511
:10120000727369747900000057696E642070656EAE
:1012100064756C756D000000323031352F382F3118
:1012200032202D20323031352F382F31350000005B
:10123000535441544500000050524F4D505200004D
:10124000524F4D4F544520202020204F4B0000008E
:101250004C4D3239382020202020204F4B200000D8
:101260004E524632344C30312020204F4B0000008B
:10127000707265737320616E79206B657920746F6D
:1012800020706572666F726D200000004D454E55EE
:1012900000000000313A0000323A0000333A00000A
:1012A000343A0000353A0000363A00004472617763
:1012B0002061206C696E65207365676D656E7400D2
:1012C0005365742061206C696E65207365676D6578
:1012D0006E740000447261772061206C696E652035
:1012E0007365676D656E7420646972656374696F98
:1012F0006E2063616E2062652073657400000000DB
:10130000456C6920707574207468652077696E6417
:10131000732070656E64756C756D207265616368AD
:101320002064697361626C656400000044726177D7
:10133000206120636972636C6520726164697573F2
:101340002063616E206265207365740042524541DE
:101350004B3A000042415345544153543100000080
:101360004D5055363035302D53544154453A0000D8
:10137000425245414B28507265737320616E79204B
:101380006B6579293A00000054656D70203A0000C1
:1013900050697463683A0000526F6C6C203A000028
:1013A00059617720203A000042415345544153543B
:1013B00032000000534554204C454E4754483A00F3
:1013C0006C656E6774683A20202020636D00000011
:1013D0000B46C822CDE900101146142005F062FA30
:1013E000AFF2980010210B46C822CDE900104FF44F
:1013F0008C71142005F056FA0020B44908804FF48F
:101400009B73EB221946052005F0CBFF9623EB22B8
:101410001946052005F0C5FF4FF49B730522962160
:10142000104605F0BEFF4FF49B73EB229621104649
:1014300005F0B7FF1CBD1CB51F20A4490880A4A05F
:1014400010210B46C822CDE90010A021502005F044
:1014500029FAA2A010210B46C822CDE90010B42120
:10146000142005F01FFA4FF47840984908809EA098
:1014700010210B46C822CDE900101146142005F0BA
:1014800011FAAFF2381010210B46C822CDE9001036
:101490004FF48C71142005F005FA00208B49088068
:1014A0004FF49B73EB221946052005F07AFF962333
:1014B000EB221946052005F074FF4FF49B730522BB
:1014C0009621104605F06DFF4FF49B73EB22962199
:1014D000104605F066FF1CBD1CB51F207B49088027
:1014E00084A010210B46C822CDE90010A021502075
:1014F00005F0D8F982A010210B46C822CDE90010D2
:10150000B421142005F0CEF97FA010210B46C8228B
:10151000CDE90010F021142005F0C4F97DA01021C0
:101520000B46C822CDE900104FF48C71142005F051
:10153000B9F94FF478406549088078A010210B462E
:10154000C822CDE900101146322005F0ABF979A090
:1015500010210B46C822CDE90010DC21142005F033
:10156000A1F978A010210B46C822CDE900104FF454
:101570008271322005F096F90020544908804FF41A
:101580009B73EB221946052005F00BFF9623EB22F7
:101590001946052005F005FF4FF49B73052296219F
:1015A000104605F0FEFE4FF49B73EB229621104689
:1015B00005F0F7FE1CBD1CB51F204449088065A03E
:1015C00010210B46C822CDE90010A021502005F0C3
:1015D00069F963A010210B46C822CDE90010B4219F
:1015E000142005F05FF962A010210B46C822CDE956
:1015F00000101146142005F055F9AFF2B02010216B
:101600000B46C822CDE900104FF48C71142005F070
:1016100049F94FF478402D490880002008804FF4A4
:101620009B73EB221946052005F0BBFE9623EB22A7
:101630001946052005F0B5FE4FF49B73052296214F
:10164000104605F0AEFE4FF49B73EB229621104638
:1016500005F0A7FE1CBD1CB51F201C49088048A032
:1016600010210B46C822CDE90010A021642005F00E
:1016700019F944A010210B46C822CDE90010DC2145
:10168000502005F00FF94FF47840104908800020F1
:1016900008804FF49B73EB221946052005F081FE6C
:1016A0009623EB221946052005F07BFE4FF49B7331
:1016B00005229621104605F074FE4FF49B73EB2231
:1016C0009621104605F06DFE1CBD0000700C002038
:1016D0004241534554415354330000005345542074
:1016E000414E4745523A0000616E6765723A2020CC
:1016F00020202000424153455441535434000000FF
:101700005245515552453A004E4F5720535441547B
:10171000453A0000425245414B00000050756C6C48
:10172000207468652070656E64756C756D20746FCB
:10173000200000003330202D20343520646567728E
:10174000656573004E6F7420636F6D706C657465B2
:101750006400000045584552545441535431000030
:1017600053455420544845205241444955530000A4
:101770005241444955533A20202020636D00000017
:10178000454E44005448414E4B20594F55000000EF
:1017900008B501214FF4907007F076F84FF400502F
:1017A000ADF8000010208DF8030003208DF8020032
:1017B00069460B4806F0ACFD4FF40051084806F0AE
:1017C00054FE4FF48040ADF800006946054806F02D
:1017D0009FFD4FF48041034806F047FE08BD00001E
:1017E000001401400020014008B501214FF4B870F9
:1017F00007F04AF84FF40050ADF8000048208DF88B
:10180000030069467C4806F083FD3C20ADF80000EB
:1018100048208DF803006946784806F079FD4FF4BA
:101820007060ADF8000048208DF8030069467448E8
:1018300006F06EFD0120ADF8000048208DF8030091
:101840006946704806F064FD08BD10B5044614B141
:1018500001206D4908706C480078002871D008217B
:10186000664806F0E8FD90B32021644806F0E3FDE9
:1018700068B30421614806F0DEFD40B310215F48E3
:1018800006F0D9FD18B34FF400515B4806F0D3FDC4
:10189000E8B14FF400715A4806F0CDFDB8B14FF4ED
:1018A0000061574806F0C7FD88B14FF48071544875
:1018B00006F0C1FD58B14FF48061514806F0BBFD00
:1018C00028B101214F4806F0B6FD002851D10A2069
:1018D00006F05DF800204C4908700821474806F0E2
:1018E000AAFD08B9012010BD2021444806F0A3FD3F
:1018F00008B90220F7E70421404806F09CFD08B92A
:101900000320F0E710213D4806F095FD08B90420BA
:10191000E9E74FF40051384806F08DFD08B905207D
:10192000E1E74FF40071364806F085FD08B908205C
:10193000D9E74FF40061324806F07DFD10B9092067
:10194000D1E716E04FF480712D4806F074FD08B918
:101950000620C8E74FF48061294806F06CFD08B9FD
:101960000720C0E70121274806F065FDF0BB0A20EB
:10197000B9E70821214806F05EFD012839D1202170
:101980001E4806F058FD012833D104211B4806F0FB
:1019900052FD01282DD11021184806F04CFD0128D8
:1019A00027D14103144806F046FD012821D1410208
:1019B000134806F040FD01281BD1C102104806F073
:1019C0003AFD012815D101020D4806F034FD012829
:1019D0000FD181020A4806F02EFD012809D101210C
:1019E000084806F028FD012803D100E001E006497F
:1019F0000870002077E7000000100140002001403F
:101A000000080140001801401400002030B589B0E2
:101A1000002500240121082006F043FF01210820B1
:101A200006F032FF0121052006F02EFF0C20ADF854
:101A3000200018208DF8230003208DF8220008A92B
:101A4000A94806F065FC0020A84908804FF47A7088
:101A5000ADF818000220ADF814000020ADF81A000F
:101A6000ADF8160005A9A24807F04AFA6020ADF8C3
:101A700004000120ADF806000020ADF80C00ADF820
:101A80000A5001A99A4807F007FB0821984807F077
:101A9000D9FEADF80A4001A9954807F048FB082196
:101AA000934807F0D8FE0121914807F085FE0121F7
:101AB0008F4807F081FD09B030BDF0B589B000272F
:101AC0000024002500260121022006F0EAFE012163
:101AD000022006F0D9FE01210D2006F0D5FEC0201F
:101AE000ADF8200018208DF8230003208DF8220087
:101AF00008A97D4806F00CFC0320ADF82000182052
:101B00008DF8230003208DF8220008A9794806F0FB
:101B1000FFFB0020754908804FF47A70ADF818007B
:101B20000220ADF814000020ADF81A00ADF8160040
:101B300005A9714807F0E4F96020ADF80400012020
:101B4000ADF806000020ADF80C00ADF80A7001A950
:101B5000694807F012FA0821674807F05DFEADF802
:101B60000A4001A9644807F04AFA0821624807F0D0
:101B70005CFEADF80A5001A95F4807F08DFA082114
:101B80005D4807F05FFEADF80A6001A95A4807F00A
:101B9000CEFA0821584807F05EFE0121564807F0AA
:101BA0000BFE0121544807F007FD09B0F0BD08B550
:101BB0000121082006F068FE2020ADF8000010206A
:101BC0008DF8030003208DF802006946494806F0AD
:101BD0009FFB2021474806F04AFCFFF76EFFFFF706
:101BE00015FF2021434806F040FC08BD10B5202118
:101BF000404806F03CFC10BD10B520213D4806F0E1
:101C000034FC10BD00203C49343108807047B0F5E9
:101C10007A7F01DD40F2E730374934310880704780
:101C2000B0F57A7F01DD40F2E7300021324A3832E8
:101C30001180111F08807047B0F57A7F01DD40F2F6
:101C4000E73000212C4A34321180111D0880704782
:101C5000B0F57A7F01DD40F2E7300021244A4032BE
:101C60001180111F08807047B0F57A7F01DD40F2C6
:101C7000E73000211E4A3C321180111D0880704758
:101C800000201D4934310880091D0880704700205C
:101C900017493C310880091D08807047002016490B
:101CA00034310880091D088011493C310880091D24
:101CB0000880704700B50346002B03DB98B2FFF79E
:101CC000AFFF03E0594288B2FFF7B6FF00BD00B591
:101CD0000346002B03DB98B2FFF7BAFF03E059423B
:101CE00088B2FFF7C1FF00BD0008014016000020C8
:101CF000000C0040000C0140000400407FB5054688
:101D00000C460121202006F0CCFDADF80850ADF8BE
:101D100004400020ADF80A00ADF8060001A94248D1
:101D200007F0EEF8012211463F4807F060FC37202B
:101D30008DF8000000208DF8010003208DF80200CE
:101D400001208DF80300684605F013FF0121364895
:101D500007F032FC7FBD3549088070473348008862
:101D600008B9012070470020FCE73149088070471E
:101D70002F48008808B9012070470020FCE72D4952
:101D8000088070472B48008808B901207047002060
:101D9000FCE72949088070472748008808B90120D6
:101DA00070470020FCE725490880704723480088D9
:101DB00008B9012070470020FCE7214A10807047D5
:101DC0001F48008808B9012070470020FCE71D4A21
:101DD000108070471B48008808B901207047002018
:101DE000FCE710B50121104807F0AFFED8B1012182
:101DF0000D4807F0BBFE1048008820B10E4800884F
:101E0000401E0D4908800948008820B10748008815
:101E1000401E064908800948008820B1074800880C
:101E2000401E0649088010BD001400401E0000201E
:101E30002600002028000020300000202000002084
:101E4000320000203400002008B503208DF8000087
:101E500000208DF801008DF8020001208DF80300AC
:101E6000684605F086FE08BDF0B503460C461546EB
:101E7000642093FBF0F0C6B2642093FBF0F700FB04
:101E80001730C1B2132E02DD01F16400C1B2084661
:101E9000CF1701EB977701EBA707BAB2072092FBA8
:101EA000F0F700FB172082B25719601EDFF8D4C389
:101EB0001CF80000384482B2CF1701EB9777BF10AF
:101EC000A1EB87071FB9032C01DA501E82B207204D
:101ED00092FBF0F700FB1720C0B2F0BD0146CA1715
:101EE00001EB92729210A1EB820292B9642091FBF5
:101EF000F0F200FB121050B94FF4C87091FBF0F2F1
:101F000000FB121008B9012070470020FCE70120F7
:101F1000FAE70020F8E770B500260024002507F056
:101F200011FF0646D848B6FBF0F4D8480088A04216
:101F30003CD0D6490C8040F2B27510E02846FFF73D
:101F4000CDFF40B1B4F5B77F02D3A4F5B77404E078
:101F5000681C85B206E0A4F26D14681C85B2B4F565
:101F6000B67FEBD800BFCA488580002516E0C84977
:101F70008888FFF7B3FF30B1012D04D11D2C01D3A8
:101F80001D3C09E00CE0C348405DA04203D8C148B5
:101F9000405D241A00E003E0681C85B21C2CE6D2E8
:101FA00000BF681CBA498871601CC871B648B6FB8E
:101FB000F0F100FB11644FF46160B4FBF0F0B44940
:101FC00008704FF46160B4FBF0F100FB11403C215C
:101FD000B0FBF1F0AE4948704FF46160B4FBF0F132
:101FE00000FB11403C21B0FBF1F201FB1200A849BB
:101FF00088700B46DA7999799888FFF735FFA449FC
:102000000872002070BD2DE9F05F06460F4690462D
:102010009946DDE90AAB002440F2B270864203DB48
:1020200040F63300864202DD0120BDE8F09F40F219
:10203000B2750AE02846FFF751FF10B196480444F4
:1020400001E096480444681C85B2B542F2DB781E74
:10205000C7B2002510E08F48405D40F2A3214843FD
:1020600004EBC0143046FFF739FF18B1012D01D140
:1020700085480444681C85B2BD42ECDBA8F1010030
:1020800040F2A321484304EBC014C9EB4910C0EB54
:10209000092004EB0014CAEB0A1004EB80045C4432
:1020A00001214FF0C05006F0FCFB012007F0CFFDEE
:1020B000204607F050FE07F081FE0020B5E71CB572
:1020C000002401214FF0C05006F0EBFB012007F087
:1020D000BEFD042007F083FD45F25001884240D048
:1020E00007F048FD012006F03CFB04E0601CC4B290
:1020F0000A2005F04CFC412006F09BFA08B9FA2CA6
:10210000F4DBFA2C01DB01201CBD4FF4807006F0DB
:1021100044FB012006F047FB07F050FE07F057FE96
:102120000121084607F0EEFD07F048FE07F0F7FD35
:1021300047F6FF7007F01CFE07F040FE37202A210B
:1021400011230E22CDE90010012140F2DF70FFF7CC
:102150005AFF07F0EDFD45F25001042007F033FD72
:1021600007E007F034FE0121084607F0CBFD07F039
:1021700025FEFFF769FEFFF7CEFE0020C4E70EB58F
:10218000012007F049FE08B1FFF7C5FE022007F065
:1021900043FEA0B1022007F04FFEFFF7BCFE3C4813
:1021A00080783B4949783A4A1278CDE9002102907B
:1021B0003748C3798279818839A008F0CBFE0520A1
:1021C00007F03AFE07F0FAFD0EBD2DE9F05F064676
:1021D0000F4690469946DDE90AAB002440F2B27002
:1021E000864203DB40F63300864202DD0120BDE873
:1021F000F09F40F2B2750AE02846FFF76FFE10B17B
:102200002548044401E025480444681C85B2B542D1
:10221000F2DB781EC7B2002510E01E48405D40F298
:10222000A321484304EBC0143046FFF757FE18B112
:10223000012D01D114480444681C85B2BD42ECDB79
:10224000A8F1010040F2A321484304EBC014C9EBFC
:102250004910C0EB092004EB0014CAEB0A1004EB90
:1022600080045C4401214FF0C05006F01AFB0120AD
:1022700007F0EDFC204607F089FD07F09FFD0020E8
:10228000B5E7000070D90008805101003600002039
:10229000E80D00207CD900080085E2018033E101CF
:1022A000416C61726D2054696D653A25642D256419
:1022B0002D25642025643A25643A25640A0000002F
:1022C00070B505460C4600F0EDF9D02000F094FA08
:1022D00000F025FA18B100F003FA012070BD28467D
:1022E00000F08AFA00F01BFA204600F085FA00F0B0
:1022F00016FA18B100F0F4F90120EFE700F0F0F958
:102300000020EBE770B504460025BC2C01DB01255D
:1023100010E0622C01DB02250CE02A2C01DB0325F6
:1023200008E0142C01DB042504E00A2C01DB052560
:1023300000E0062529461A20FFF7C2FF70BD70B5E0
:102340000446B4F57A7F01DD4FF47A74042C00DA88
:1023500004244FF47A7090FBF4F0401EC5B2294675
:102360001920FFF7ADFF0546264604EBD671C1F3F1
:102370004F00FFF7C7FF70BD70B5044600F092F93B
:10238000D02000F039FA00F0CAF9204600F034FA03
:1023900000F0C5F900F086F9D12000F02DFA00F028
:1023A000BEF9002000F051FA054600F099F92846E0
:1023B00070BD10B50446E006010E1C20FFF780FF3B
:1023C00010BD10B50446E006010E1B20FFF778FF94
:1023D00010BD38B50121084606F056FA0121042047
:1023E00006F052FA4FF40040ADF8000010208DF8CE
:1023F000030003208DF802006946954805F088FF28
:102400000121944806F055F800209349086000F037
:1024100032F980216B20FFF753FF642005F0B7FAF3
:1024200000216B20FFF74CFF0320FFF7CAFF0020BD
:10243000FFF7BFFF3220FFF782FF00213820FFF7B0
:102440003FFF00216A20FFF73BFF00212320FFF719
:1024500037FF80213720FFF733FF7520FFF78CFF10
:102460000446682C0BD101216B20FFF729FF0021C6
:102470006C20FFF725FF3220FFF761FF01E001200C
:1024800038BD0020FCE72DE9F04106460F46144612
:102490001D4600F007F9002141EA4601C8B200F0EC
:1024A000ABF900F03CF920B100F01AF90120BDE8C9
:1024B000F081384600F0A0F900F031F900F0F2F8B0
:1024C000012101EB4601C8B200F096F900F027F9AE
:1024D0000DE0012C04D1002000F0B7F9287003E0D2
:1024E000012000F0B2F92870601EC4B26D1C002CEF
:1024F000EFD100F0F5F80020D9E72DE9F84F6B4651
:10250000022241216820FFF7BEFF9DF801009DF8DF
:10251000001040EA01200FFA80FA50460AF057FAFC
:10252000804600224D4B0AF0CBF806464C4A4D4BF4
:102530000AF016F8044609F0E1FF83464A49584676
:102540000AF076FF04460AF0D7FE00B2BDE8F88F25
:102550002DE9FC4104460D4616466B4606224321F2
:102560006820FFF790FF0746BFB99DF801009DF86E
:10257000001040EA012000B220809DF803009DF881
:10258000021040EA012000B228809DF805009DF865
:10259000041040EA012000B230803846BDE8FC81DA
:1025A0002DE9FC4104460D4616466B4606223B21AA
:1025B0006820FFF768FF0746BFB99DF801009DF846
:1025C000001040EA012000B220809DF803009DF831
:1025D000021040EA012000B228809DF805009DF815
:1025E000041040EA012000B230803846BDE8FC818A
:1025F0002DE9F04105460E461746984600F052F880
:10260000002141EA4501C8B200F0F6F800F087F871
:1026100020B100F065F80120BDE8F081304600F0FF
:10262000EBF800F07CF800240CE018F8040000F04F
:10263000E3F800F074F818B100F052F80120EBE76D
:10264000601CC4B2BC42F0DB00F04AF80020E3E7B3
:102650000008014000023000BC01214200407540EA
:10266000A4703D0AD74342400000C84210B5022082
:1026700005F069F910BD08B50121082006F004F93C
:10268000C020ADF8000010208DF8030003208DF865
:1026900002006946854805F03BFEC021834805F0ED
:1026A000E4FE08BD10B58148006820F070407F4905
:1026B00008600846006840F04050086001207C49EE
:1026C00008607C49C1F89801FFF7D0FF00207849E5
:1026D0000860FFF7CBFF00207649C1F8980110BDD4
:1026E00010B57248006820F07040704908600846D4
:1026F000006840F04050086000206D49091F0860E4
:102700006C49C1F89C01FFF7B1FF01206849091F1E
:1027100008606849C1F89C01FFF7A8FF10BD10B51B
:1027200000246248006820F0704060490860084654
:10273000006840F00040086001205D490860FFF734
:1027400095FF01205B49C1F89801FFF78FFF07E073
:10275000601CC4B2FA2C03DDFFF7C2FF012010BDDC
:102760005348803800680028F2D15149091F086099
:1027700000BFF4E710B500204D49091F08604B4821
:10278000006820F07040494908600846006840F041
:102790004050086000204749C1F89C01FFF766FFE0
:1027A00001204349091F0860FFF760FF00204149ED
:1027B000C1F8980110BD10B500203D49091F0860FF
:1027C0003A48006820F070403849086008460068C0
:1027D00040F04050086001203649C1F89C01FFF7E5
:1027E00045FF01203249091F0860FFF73FFF002025
:1027F0003049C1F8980110BD70B504462B480068F7
:1028000020F07040294908600846006840F04050B8
:10281000086000202649091F0860002512E0E00931
:10282000234908606006040E01202249C1F898017E
:10283000FFF71CFF00201E49091F0860FFF716FF65
:10284000681CC5B2082DEADB70BD70B505460024D2
:102850001648006820F07040144908600846006877
:1028600040F000400860002615E000201049091FD4
:102870000860FFF7FBFE01200E49C1F898016006D1
:10288000040E0B488038006808B1601CC4B2FFF722
:10289000EDFE701CC6B2082EE7DB15B9FFF78BFF03
:1028A00001E0FFF767FF204670BD0000000C01400B
:1028B0009C8121420080214210B5C8234FF48062E0
:1028C000F74940F6F63002F09BFC10BD10B586B01B
:1028D0000446F4A000680390F3A000680290F3A0FF
:1028E00000680190F2A00068009004F0030003A9C2
:1028F000085C8DF8140003A8C4F3C101405C8DF896
:10290000150003A8C4F38111405C8DF8160004F093
:10291000030002A9085C8DF8100002A8C4F3C101ED
:10292000405C8DF8110002A8C4F38111405C8DF861
:10293000120005AA032140F2264002F0E7FB18B17D
:102940004FF0FF3006B010BD04AA032140F22A4028
:1029500002F0DCFB10B14FF0FF30F3E70198059077
:102960000098049004F0040058B19DF8140040F061
:1029700001008DF814009DF8100040F001008DF862
:10298000100004F0200058B19DF8150040F001003F
:102990008DF815009DF8110040F001008DF8110030
:1029A00004F4807058B19DF8160040F001008DF8D5
:1029B00016009DF8120040F001008DF8120005AAE3
:1029C00003214FF4886002F0A1FB10B14FF0FF30FB
:1029D000B8E704AA032140F2314002F097FB10B19E
:1029E0004FF0FF30AEE7B34804810020AAE71FB5DF
:1029F0000446B048007A00F0030054F8200001902B
:102A0000AC48007A00F0040010B1019840420190F7
:102A1000A848007AC0F3C10054F820000290A548ED
:102A2000007A00F0200010B1029840420290A148C4
:102A3000007AC0F3811054F8200003909D4800896B
:102A400000F4807010B10398404203909A490198B5
:102A500080FB0101800F40EA8100019096490298B5
:102A600080FB0110820042EA917002909249039823
:102A700080FB0110820042EA917003900198000EE1
:102A80008DF800000198000C8DF801000198000AF3
:102A90008DF802000198C0B28DF803006A46042147
:102AA0004FF4747002F032FB18B14FF0FF3004B0F5
:102AB00010BD0298000E8DF800000298000C8DF8F1
:102AC00001000298000A8DF802000298C0B28DF849
:102AD00003006A4604214FF4757002F017FB10B131
:102AE0004FF0FF30E3E70398000E8DF800000398E5
:102AF000000C8DF801000398000A8DF8020003987D
:102B0000C0B28DF803006A4604214FF4767002F0DB
:102B1000FDFACCE770B588B0064601A801F0FDFCCF
:102B2000BDF804000021C90341EA5045C4036148CF
:102B3000007A00F0030056F8200005905D48007A06
:102B400000F0040010B10598404205905948007A01
:102B5000C0F3C10056F8200006905648007A00F0F5
:102B6000200010B10698404206905248007AC0F307
:102B7000811056F8200007904E48008900F48070BC
:102B800010B10798404207900598C117A0FB042395
:102B900001FB043100FB0510810041EA92700590B1
:102BA0000698C117A0FB042301FB043100FB0510AC
:102BB000810041EA927006900798C117A0FB042398
:102BC00001FB043100FB0510810041EA927007907F
:102BD0000598000E8DF808000598000C8DF8090086
:102BE0000598000A8DF80A000598C0B28DF80B0010
:102BF0000698000E8DF80C000698000C8DF80D005C
:102C00000698000A8DF80E000698C0B28DF80F00E5
:102C10000798000E8DF810000798000C8DF8110031
:102C20000798000A8DF812000798C0B28DF81300BB
:102C300002AA0C214FF4257002F068FA08B070BDAA
:102C400030B585B004461DA207CA02AB07C3C82C25
:102C500003DD4FF0FF3005B030BDC82090FBF4F02D
:102C6000401E85B2280A8DF80000E8B28DF80100F8
:102C70006A46022140F2162002F048FA10B14FF0E5
:102C8000FF30E8E702AA0C2140F6C12002F03EFA2C
:102C900010B14FF0FF30DEE7064884810020DAE70C
:102CA00088D900084CCD6C000CC92C003656760033
:102CB00026466600F40D002009E3CA02FEF2ABC40A
:102CC000AAF1DFDFBBAFDFDF0146FC488089088067
:102CD000002070472DE9FC4706460F4606F0070026
:102CE00010B1B7F5C86F03DD4FF0FF30BDE8FC87CA
:102CF00038460AF055FB8146F1490AF007FA80464A
:102D0000684601F08EFB9DF80000022806D00428DA
:102D100016D0082826D0102848D135E04FF08D4134
:102D200040460AF085FB81460AF002FB84B2E54981
:102D300040460AF07DFB81460AF0FAFA85B238E097
:102D40004FF08C4140460AF073FB81460AF0F0FADE
:102D500084B2DD4940460AF06BFB81460AF0E8FA8E
:102D600085B226E04FF08B4140460AF061FB814678
:102D70000AF0DEFA84B2D54940460AF059FB814692
:102D80000AF0D6FA85B214E04FF08A4140460AF0C4
:102D90004FFB81460AF0CCFA84B2CD4940460AF096
:102DA00047FB81460AF0C4FA85B202E04FF0FF30DB
:102DB0009CE700BF20128DF80400E0B28DF80500FA
:102DC00028128DF80600E8B28DF8070006F0010021
:102DD000A0B101AA02214FF4EA7002F097F910B1F4
:102DE0004FF0FF3082E70DF1060202214FF492709E
:102DF00002F08CF910B14FF0FF3077E706F00200D7
:102E0000A0B101AA02214FF4EC7002F07FF910B1D9
:102E10004FF0FF306AE70DF1060202214FF4947083
:102E200002F074F910B14FF0FF305FE706F00400D4
:102E3000A0B101AA02214FF4EE7002F067F910B1BF
:102E40004FF0FF3052E70DF1060202214FF4967069
:102E500002F05CF910B14FF0FF3047E7002045E782
:102E600038B504460020009004F0010020B19DF820
:102E7000000040F03000009004F0020020B19DF806
:102E8000000040F00C00009004F0040020B19DF818
:102E9000000040F0030000906A4601214FF4A47046
:102EA00002F034F938BD38B50446012C01DA0124AA
:102EB00002E0042C00DD0424601EC0B200906A46CB
:102EC000012140F24F1002F021F938BD38B5044617
:102ED000052094FBF0F085B228128DF80000E8B2CE
:102EE0008DF801006A4602214FF4EF7002F00EF9EE
:102EF00038BD38B50446052094FBF0F085B22812A1
:102F00008DF80000E8B28DF801006A4602214FF406
:102F1000ED7002F0FBF838BDF8B505460E464FF4EB
:102F20007A7095FBF0F000FB06F4200E8DF800009F
:102F3000200C8DF80100200A8DF80200E0B28DF817
:102F400003006A4604214FF4AE7002F0DFF8F8BDCA
:102F500038B50446052094FBF0F084B220128DF8B9
:102F60000000E0B28DF801006A4602214FF4AD7016
:102F700002F0CCF838BD38B50446052094FBF0F0DB
:102F800084B220128DF80000E0B28DF801006A468C
:102F900002214FF4AC7002F0B9F838BD38B50446E0
:102FA00014B94FF0FF3038BD6A4604214FF4587011
:102FB00002F0E9F810B14FF0FF30F4E79DF800009F
:102FC00000069DF8011040EA01409DF8021040EA19
:102FD00001209DF80310084320600020E3E738B586
:102FE0000446200E8DF80000200C8DF80100200A08
:102FF0008DF80200E0B28DF803006A4604214FF418
:10300000587002F083F838BD38B5044614B94FF053
:10301000FF3038BD6A4604214FF4717002F0B3F8F6
:1030200010B14FF0FF30F4E79DF8000000069DF866
:10303000011040EA01409DF8021040EA01209DF88D
:103040000310084300EB8000800020600020E0E7D0
:1030500038B504461420B4FBF0F4200E8DF80000BF
:10306000200C8DF80100200A8DF80200E0B28DF8E6
:1030700003006A4604214FF4717002F047F838BD2E
:1030800038B5044664B120208DF8000028208DF862
:10309000010030208DF8020038208DF8030004E094
:1030A000A3220421684608F039F96A46042140F653
:1030B0009E2002F02BF800F083FC38BDF40D0020B8
:1030C00000004843000040460000C0450000404565
:1030D0000000C04438B5044664B1C0208DF800003B
:1030E000C2208DF80100C4208DF80200C6208DF8A2
:1030F000030004E08B220421684608F00FF96A46B9
:10310000042140F6982002F001F800F059FC38BD87
:103110003EB504466CB1FDA1D1E900208968CDE936
:10312000002002916A4609214FF4976001F0EEFFFA
:103130003EBDF9A2D2E900109268CDE901020091EA
:103140006A4609214FF4976001F0E0FFF0E73EB5D1
:10315000044602208DF80000CA208DF80100E3200B
:103160008DF8020009208DF803006A4604216820CA
:1031700001F0CCFFA3208DF8000004F0400048B11E
:10318000C0208DF80100C8208DF80200C2208DF803
:10319000030006E0A3208DF801008DF802008DF8F1
:1031A000030004F4C07048B1C4208DF80400CC20A2
:1031B0008DF80500C6208DF8060006E0A3208DF8E6
:1031C00004008DF805008DF80600A3208DF8070097
:1031D0008DF808008DF809006A460A2140F6A720FC
:1031E00001F094FF04F0030018B120208DF80000D6
:1031F00002E0D8208DF800006A46012140F6B62092
:1032000001F084FF04F0200018B10120FFF780FFD7
:1032100002E00020FFF77CFF04F4C07008B304F460
:10322000807060B1B2208DF800008B208DF8010015
:10323000B6208DF802009B208DF803000BE0B02033
:103240008DF8000080208DF80100B4208DF8020078
:1032500090208DF803006A46042140F6A22001F078
:1032600055FF04F0010020B3F8208DF800006A46F5
:1032700001214FF40B6001F049FFFA210720FFF70D
:1032800029FD0720FFF7ECFD0120FFF70CFE64206D
:10329000FFF71CFE4FF4FA70FFF72BFEC821A14880
:1032A000FFF73AFE2820FFF753FE0A20FFF763FEE0
:1032B00008E0D8208DF800006A4601214FF40B6029
:1032C00001F024FF04F0020018B1D9208DF80000AD
:1032D00002E0D8208DF800006A46012140F23D70DE
:1032E00001F014FF04F0040018B10120FFF7F2FE12
:1032F00002E00020FFF7EEFE04F0100018B10120FC
:10330000FFF7BEFE02E00020FFF7BAFE44F008001F
:103310008549488100F054FB00208349887304F0FC
:10332000400018B10846807B801D887304F4C0708B
:1033300020B17D48807B801D7B49887304F0140098
:1033400020B17948807B10307749887304F00300FE
:1033500020B17548807B001D7349887300203EBDF5
:103360000146714840890880002070472DE9F041EE
:103370000446E07800F0C006E07800F03F05607891
:1033800000F0010098B1EF102846E91705EB5171E4
:10339000C910A5EBC101491C01F0FF086248006893
:1033A00020B16148414602683846904700BF6078C6
:1033B00000F0080030B15C48406818B1B0115A4ABA
:1033C000516888470020BDE8F08110B586B00446FA
:1033D00056A207CA03AB07C357A207CA8DE8070066
:1033E000012C09D0022C0ED103AA0B2140F6822019
:1033F00001F08CFE06B010BD6A460B2140F682201B
:1034000001F084FEF6E74FF0FF30F3E72DE9F04FCF
:103410008DB00746884615469946DDE9166B0024AF
:10342000002030804049887B5A4605A901F0D1F937
:1034300018B1601E0DB0BDE8F08F3B48807A00F0F7
:103440001400002861D09DF8140000069DF81510A6
:1034500040EA01409DF8161040EA01209DF817103F
:10346000084328609DF8180000069DF8191040EAEE
:1034700001409DF81A1040EA01209DF81B100843F6
:1034800068609DF81C0000069DF81D1040EA014090
:103490009DF81E1040EA01209DF81F100843A86007
:1034A0009DF8200000069DF8211040EA01409DF89B
:1034B000221040EA01209DF823100843E86004F13F
:1034C0001000C4B2286800140190686800140290CB
:1034D000A86800140390E868001404900198404321
:1034E000029901FB0100039901FB0100049901FB12
:1034F000010ABAF1706F02DBBAF1885F22DD00F0D9
:103500005FFA00203080401E94E721E0B8AAB38D16
:10351000B4980D355D000000B8AAAAAAB088C3C54A
:10352000C700000009E3CA02F40D0020D8B1B9F3C6
:103530008BA391B609B4D900DAB1B9F38BA391B6D4
:10354000DAB4DA00B6F9000040F48070308000BFD1
:103550003448807A00F0400020B305A9601C085C64
:10356000095D40EA012000B2A8F8000005A9E01CAE
:10357000095C05AAA01C105C41EA002000B2A8F872
:10358000020005A9601D095C201D105C41EA0020B5
:1035900000B2A8F80400A01DC4B2B6F9000040F0C3
:1035A000080030801F48408900F4C07008B305A9A6
:1035B000601C085C095D40EA012000B2388005A962
:1035C000E01C095C05AAA01C105C41EA002000B2C6
:1035D000788005A9601D095C201D105C41EA00206F
:1035E00000B2B880A01DC4B2B6F9000040F070006F
:1035F00030800C48807A00F0030018B105A9081942
:10360000FFF7B4FE484600F048FD002012E70146EF
:1036100004480160002070470146024841600020D4
:1036200070470000F40D002038B50446F74890F8C4
:103630002400C0B114B10220009001E000200090ED
:10364000F24A1268D17BF14A526810786B46012227
:10365000FEF7CEFF10B14FF0FF3038BD9DF80010DF
:10366000EA48417423E0E948807A10B94FF0FF300E
:10367000F3E724B1E548407C08B10020EDE714B140
:103680000120009001E000200090E04A1268D17B08
:10369000DE4A526810786B460122FEF7A9FF10B18E
:1036A0004FF0FF30D9E79DF80010D8484174002052
:1036B000D3E738B500241FE0D4480068C07AA042A0
:1036C00004D0D2480068407DA04200D112E0CF492A
:1036D000496808786B4601222146FEF7D4FE10B1F6
:1036E0004FF0FF3038BD9DF800202146C8A007F0FC
:1036F00031FC00BF601CC4B2C44840680079A042DD
:10370000DADC0020EEE770B504460D46BF480068DD
:10371000C07AA04204D0BD480068407DA04202D1DA
:103720004FF0FF3070BDB94840680079A04202DC1C
:103730004FF0FF30F6E7B549496808782B4601227B
:103740002146FEF7A0FEEDE738B50446AF4890F8F5
:103750002300A04201D1002038BD14B130200090D8
:1037600001E000200090A948807C20B19DF8000075
:1037700040F002000090A54890F8220020B19DF88A
:10378000000040F080000090A04A1268117D9F4A1E
:10379000526810786B460122FEF72AFF10B14FF0F5
:1037A000FF30D9E7994880F823400020D4E738B5A6
:1037B000044604F0700010B10120009005E014B13F
:1037C0000020009001E040200090904A1268917C17
:1037D0008E4A526810786B460122FEF709FF20B12D
:1037E00000218A488172481E38BD9DF8000020F0F3
:1037F0004001864801730020009004F0400020B989
:103800009DF8000040F00400009004F0200020B972
:103810009DF8000040F00200009004F0100020B974
:103820009DF8000040F00100009004F0080020B96D
:103830009DF8000040F038000090744A1268D17C76
:10384000724A526810786B460122FEF7D1FE20B111
:1038500000216E488172481EC6E724B1082C02D0B0
:103860000020FFF771FF6948847200210175322042
:1038700004F08DF80020B7E738B504466348807C33
:10388000A04201D1002038BD002C46D05F4A12680A
:1038900011795E4A526810786B460122FEF7F3FDFB
:1038A00010B14FF0FF30EEE79DF8000020F020004F
:1038B0000090564A12681179544A526810786B4643
:1038C0000122FEF795FE10B14FF0FF30DBE7032039
:1038D00004F05DF8022000904C4890F8220020B1DE
:1038E0009DF8000040F080000090484890F82300C8
:1038F00020B19DF8000040F030000090434A12686B
:10390000117D424A526810786B460122FEF770FE24
:10391000002851D04FF0FF30B5E73C4A12681179CA
:103920003A4A526810786B460122FEF7ACFD10B19E
:103930004FF0FF30A7E73548807A00F0010028B14A
:103940009DF8000040F02000009004E09DF8000089
:1039500020F0200000902D4A126811792B4A5268FD
:1039600010786B460122FEF743FE10B14FF0FF3096
:1039700089E7032004F00BF8244890F8220010B1E6
:103980008020009001E000200090204890F8230063
:1039900020B19DF8000040F0300000901B4A1268F2
:1039A000117D1A4A526810786B460122FEF720FEFC
:1039B00010B14FF0FF3066E714488474002062E7CE
:1039C00008B51248807A10B94FF0FF3008BD0020CA
:1039D00000900E4A1268D17B0C4A526810786B46F0
:1039E0000122FEF705FE10B14FF0FF30EEE7074A67
:1039F00012685179054A526810786B460122FEF729
:103A0000F7FD68B14FF0FF30E0E70000380000201C
:103A1000252335783A20252335780D0A000000004B
:103A2000F84A12681179F74A526810786B460122F9
:103A3000FEF7DEFD10B14FF0FF30C7E7F14890F818
:103A40002400002853D00C200090EE4A126811790F
:103A5000EC4A526810786B460122FEF7C9FD10B19E
:103A60004FF0FF30B2E7322003F091FFC02000900A
:103A7000E448807A00F0010020B19DF8000040F099
:103A800020000090DF4A12681179DE4A52681078EF
:103A90006B460122FEF7ACFD10B14FF0FF3095E709
:103AA000D848407C10B10220009001E00020009036
:103AB000D44A1268D17BD34A526810786B460122EF
:103AC000FEF796FD10B14FF0FF307FE70020009029
:103AD000CC4A12685179CB4A526810786B46012261
:103AE000FEF786FD002855D04FF0FF306EE704202A
:103AF0000090C44A12681179C24A526810786B4625
:103B00000122FEF775FD10B14FF0FF305EE7BD48B2
:103B1000807C20B9BB48807A00F0010010B94020B9
:103B2000009001E060200090B64A12681179B54A11
:103B3000526810786B460122FEF75AFD10B14FF023
:103B4000FF3043E7322003F022FFAE48407C10B143
:103B50000120009001E000200090AA4A1268D17B69
:103B6000A84A526810786B460122FEF741FD10B159
:103B70004FF0FF302AE7A34A12685179A14A5268F0
:103B80001078A04B10330122FEF732FD10B14FF038
:103B9000FF301BE7002019E770B50446002624F02B
:103BA0000104984890F8240008B1002070BD9548A1
:103BB000807A10B94FF0FF30F8E79248057C807AA0
:103BC0002040904908740846007CA04202D04FF083
:103BD000FF3600E0002614B98A48007D18B10120A4
:103BE000FFF722FD02E00020FFF71EFD3CB1FFF7CA
:103BF000E7FE20B1834805744FF0FF30D6E730462A
:103C0000D4E738B504467F48807A10B94FF0FF30CA
:103C100038BDBC2C02DB0120009015E0622C02DBD9
:103C20000220009010E02A2C02DB032000900BE021
:103C3000142C02DB0420009006E00A2C02DB052095
:103C4000009001E0062000906E48C07A9DF80010B8
:103C5000884201D10020DBE76A4A12689178694AFC
:103C6000526810786B460122FEF7C2FC10B14FF08B
:103C7000FF30CDE79DF800106248C1720020C7E711
:103C800038B50446282C02DD4FF0FF3038BDDCB9D2
:103C90000020FFF759FD00208DF8000007208DF867
:103CA0000100584A1268917C564A526810786B4657
:103CB0000222FEF79DFC10B14FF0FF30E6E7002135
:103CC000504801750020E1E70120FFF73DFD20206D
:103CD0008DF80000012C06D100208DF80100052090
:103CE000FFF78FFF17E0052C06DC01208DF801009F
:103CF0000520FFF786FF0EE0142C06DC02208DF86D
:103D000001000A20FFF77DFF05E003208DF8010088
:103D10001420FFF776FF9DF80100072101EB8010CA
:103D2000C0B28DF80100374A1268917C354A52685A
:103D300010786B460222FEF75BFC10B14FF0FF30AB
:103D4000A4E708212F488172002101730121017528
:103D50000020FFF721FF002098E738B504462948E6
:103D6000807A10B94FF0FF3038BD264890F8240013
:103D700010B14FF0FF30F7E72248007D50B134B169
:103D8000282C04DCE0B2FFF77BFF0020ECE70020EA
:103D9000FFF776FF042C01DA042404E0B4F57A7FFF
:103DA00001DD4FF47A744FF47A7090FBF4F0401E0A
:103DB000C0B20090134A12685178124A52681078C3
:103DC0006B460122FEF714FC10B14FF0FF30CBE739
:103DD0009DF80000401C4FF47A7191FBF0F081B225
:103DE0000848C1810146C9894810FFF70AFF002031
:103DF000BAE738B504460348807A28B94FF0FF3057
:103E000038BD000038000020022C06D0042C07D05A
:103E1000082C08D0102C0CD108E0002000900BE0FA
:103E20000820009008E01020009005E01820009085
:103E300002E04FF0FF30E3E700BFF948407A9DF819
:103E40000010B0EBE10F01D10020D9E7F44A12686D
:103E5000D179F34A526810786B460122FEF7C8FB0D
:103E600010B14FF0FF30CBE79DF80000C110EC48D7
:103E700041720020C4E738B50446E948807A10B999
:103E80004FF0FF3038BDFA2C09D0B4F5FA7F09D0D5
:103E9000B4F57A7F09D0B4F5FA6F0CD108E00020B0
:103EA00000900BE00820009008E01020009005E052
:103EB0001820009002E04FF0FF30E3E700BFD84841
:103EC000007A9DF80010B0EBE10F01D10020D9E796
:103ED000D34A12689179D24A526810786B4601220F
:103EE000FEF786FB10B14FF0FF30CBE79DF80000E6
:103EF000C010CB4908720020C4E71CB580208DF8A3
:103F00000000C74A1268917CC54A526810786B4617
:103F10000122FEF76DFB10B14FF0FF301CBD642095
:103F200003F035FD00208DF80000BD4A1268917C39
:103F3000BB4A526810786B460122FEF759FB10B15C
:103F40004FF0FF30EAE7B64A1268917DB44A5268F2
:103F500010786B460622FEF796FA10B14FF0FF304C
:103F6000DCE79DF80500C007400F9DF8031001F045
:103F7000010140EA41009DF8011001F0010140EA11
:103F8000010494B1012C03D10121A548C17431E091
:103F9000022C03D10021A248C1742BE02146A1A02C
:103FA00006F0D8FF4FF0FF30B8E79D4A1268D1788D
:103FB0009B4A526810786B460122FEF764FA10B1F2
:103FC0004FF0FF30AAE79DF8000000F00F042CB975
:103FD0009E4806F0BFFF4FF0FF309FE7042C06D14C
:103FE0009BA006F0B7FF01218D48C17402E00021BB
:103FF0008B48C174FF218A488172FF20884908726A
:10400000FF2187484172C1724FF6FF71C181FF21C4
:10401000017481740121017380F82210002180F85D
:1040200023104175017516300160416081601638BA
:1040300080F8241080F82510C1844FF4FA60FFF74F
:104040001AFF10B14FF0FF3068E70220FFF7D1FEF2
:1040500010B14FF0FF3061E72A20FFF7D2FD10B119
:104060004FF0FF305AE73220FFF777FE10B14FF0E4
:10407000FF3053E70020FFF78FFD10B14FF0FF3006
:104080004CE70020FFF7F8FB10B14FF0FF3045E799
:104090000020FFF78CFB002040E770477CB504460A
:1040A0000D465F48807A00F0700010B94FF0FF3085
:1040B0007CBD5B4A1268117B594A526810786B4686
:1040C0000622FEF7E0F910B14FF0FF30F0E79DF85F
:1040D00001009DF8001040EA012000B220809DF808
:1040E00003009DF8021040EA012000B260809DF8B4
:1040F00005009DF8041040EA012000B2A08015B12F
:104100002846FFF7CAFF0020D2E77CB504460D46DB
:104110004348807A00F0080010B94FF0FF307CBDB2
:104120003F4A1268517B3E4A526810786B4606221D
:10413000FEF7A9F910B14FF0FF30F0E79DF801004C
:104140009DF8001040EA012000B220809DF8030095
:104150009DF8021040EA012000B260809DF8050041
:104160009DF8041040EA012000B2A08015B1284655
:10417000FFF793FF0020D2E72DE9FE4F05460C46DE
:104180002748807A18B94FF0FF30BDE8FE8F244AE7
:104190001268917B224A5268107802AB0222FEF725
:1041A00072F910B14FF0FF30EFE79DF809009DF86C
:1041B000081040EA012006B214B12046FFF76DFF57
:1041C00017494968C88809F0EBF815490190496812
:1041D000B1F9080009F0CCF88346304609F0C8F878
:1041E0005946009009F022FA8246019908F08EFFA4
:1041F00081461F4908F01CFF80464FF08F4109F0AF
:1042000017F9074609F078F828600020BDE710B5D7
:1042100088B004461CB94FF0FF3008B010BD29E04B
:1042200038000020556E737570706F72746564206D
:10423000736F6674776172652070726F64756374F2
:10424000207265762025642E0A0000008806010889
:1042500048616C662073656E7369746976697479F8
:10426000207061727420666F756E642E0A00000003
:1042700000000C42206830B9606820B9A06810B90D
:10428000002008B010BDFA494968087806AB03223F
:104290001146FEF7F8F810B14FF0FF30F1E79DF846
:1042A0001800082101EB201000F00F00ADF800000D
:1042B0009DF8190001EB201000F00F00ADF802008E
:1042C0009DF81A0001EB201000F00F00ADF804007B
:1042D00020684100BDF90000403091FBF0F000B2D1
:1042E000ADF8100060684100BDF90200403091FB5C
:1042F000F0F000B2ADF81200A0684100BDF9040072
:10430000403091FBF0F000B2ADF81400D849496894
:10431000087806AB06221146FEF7B5F810B14FF04B
:10432000FF30AEE79DF819009DF8181040EA012013
:1043300000B2ADF808009DF81B009DF81A1040EA85
:10434000012000B2ADF80A009DF81D009DF81C1078
:1043500040EA012000B2ADF80C00BDF81000BDF835
:104360000810084400B2ADF81000BDF81200BDF806
:104370000A10084400B2ADF81200BDF81400BDF8F0
:104380000C10084400B2ADF81400BDF81000000A8B
:104390008DF81800BDF81000C0B28DF81900BDF8F6
:1043A0001200000A8DF81A00BDF81200C0B28DF894
:1043B0001B00BDF81400000A8DF81C00BDF81400A5
:1043C000C0B28DF81D00AA494968087806AB0622DC
:1043D0001146FEF70DF910B14FF0FF3051E7002004
:1043E0004FE70146A248007A30B1012807D00228E1
:1043F00009D003280FD10AE0FA2008800EE04FF41C
:10440000FA7008800AE04FF47A70088006E04FF4F2
:10441000FA60088002E00020088000BF00BF002092
:10442000704701469248407A30B1012807D00228EF
:1044300008D003280CD108E0022008700BE004200B
:10444000087008E00820087005E01020087002E0FD
:104450004FF0FF30704700BF8548C07C18B1087826
:104460004006000E08700020F4E701468048C07A3C
:10447000082817D2DFE800F01704070A0D101318F8
:10448000BC20088013E06220088010E02A20088009
:104490000DE0142008800AE00A20088007E00520CB
:1044A000088004E000BF00BF0020088000BF00BFFC
:1044B0000020704701466E4890F8240010B14FF07C
:1044C000FF3070476A48C08908800020F9E701463C
:1044D00000200880401E704701464FF0FF307047B3
:1044E00001466348007A30B1012807D0022808D07D
:1044F00003280CD108E05F4808600BE05E480860C4
:1045000008E05E48086005E05D48086002E04FF0A2
:10451000FF30704700BF0020FBE701465448407A57
:1045200030B1012808D002280AD0032810D10BE0AE
:104530004FF4804008800EE041F69C7008800AE04D
:104540004FF48050088006E04FF40060088002E0DD
:104550004FF0FF30704700BF4548C07C10B108885D
:10456000401008800020F5E701464148007C0870B3
:104570000020704701463E48807A10B10120087043
:1045800001E0002008700020704738B50446384824
:10459000807A10B94FF0FF3038BD354A1268117C6F
:1045A000334A526810786B460222FDF76CFF10B157
:1045B0004FF0FF30F0E79DF801009DF8001040EA51
:1045C000012000B220800020E6E72DE9FE4F0746DB
:1045D000884692461D46DDF830B000260024244867
:1045E00090F8240010B1601EBDE8FE8F00202870F6
:1045F0001F48807A10B94FF0FF30F5E71C48007C67
:1046000010B94FF0FF30EFE71948007C00F0400090
:1046100008B1B01CC6B21648007C00F0200008B1FA
:10462000B01CC6B21248007C00F0100008B1B01CEB
:10463000C6B20F48007C00F0080008B1B01DC6B239
:104640000B4A1268917A0A4A526810786B46022225
:10465000FDF719FF10B14FF0FF30C5E79DF80100DD
:104660009DF8001040EA0129B1450BDA0020BBE7B4
:10467000380000200000034300008342333303422C
:1046800033338341FC4840684088B9EB600F17DD45
:10469000F94A1268517CF84A526810786B46012238
:1046A000FDF7F1FE10B14FF0FF309DE79DF80000DF
:1046B00000F0100020B1FFF783F96FF0010093E7DD
:1046C0005046FFF7EAFCEC4A1268D17AEA4A52688F
:1046D00010786B463246FDF7D6FE10B14FF0FF3032
:1046E00082E799FBF6F0401E8BF80000002028704E
:1046F000B4422AD0E048007C00F0080028B3601CD7
:104700001DF800001DF8041040EA012000B2A8F8CE
:104710000000E01C1DF80010A01C1DF8000041EA7C
:10472000002000B2A8F80200601D1DF80010201D36
:104730001DF8000041EA002000B2A8F80400287823
:1047400040F008002870A01D84B2B44213D0CA48BB
:10475000007C00F0400070B1601C1DF800001DF8E6
:10476000041040EA012000B23880287840F0400070
:104770002870A01C84B2B44213D0BF48007C00F063
:10478000200070B1601C1DF800001DF8041040EA04
:10479000012000B27880287840F020002870A01C0A
:1047A00084B2B44213D0B448007C00F0100070B161
:1047B000601C1DF800001DF8041040EA012000B242
:1047C000B880287840F010002870A01C84B2002027
:1047D0000AE7F8B504460F461646A74890F82400A5
:1047E00010B94FF0FF30F8BDA348807A10B94FF0F0
:1047F000FF30F8E7A04A1268917A9F4A5268107811
:104800006B460222FDF73FFE10B14FF0FF30EAE7A2
:104810009DF801009DF8001040EA0125A54203DA49
:1048200000203070401EDEE7934840684088B5EBBA
:10483000600F17DD904A1268517C8F4A52681078D9
:104840006B460122FDF71FFE10B14FF0FF30CAE7A3
:104850009DF8000000F0100020B1FFF7B1F86FF0F4
:104860000100C0E7E2B2844B1B68D97A824B5B68D7
:1048700018783B46FDF707FE10B14FF0FF30B2E766
:1048800095FBF4F0401E30700020ACE701467A48FA
:1048900080F82210002070477CB5054676494968AB
:1048A000087801AB04220D21FDF7EDFD08B10720CA
:1048B0007CBD9DF80700C0F301109DF8041001F0C5
:1048C000E00140EAE1008DF800009DF80700C0F328
:1048D00081009DF8051001F0E00140EAE1008DF84B
:1048E00001009DF8070000F003009DF8061001F09C
:1048F000E00140EAE1008DF8020000241CE01DF810
:10490000040018B9002045F8240013E05B4845F87E
:10491000240006E055F82400594908F089FD45F8BF
:1049200024001DF80400401EC0B20DF80400002849
:10493000F0D100BF601CC4B2032CE0DB0020B7E75D
:104940002DE9FE4F06460F4600256846FFF7A4FFF7
:10495000002442E056F8240057F82410A0EB010A86
:10496000BAF1000F01DB514601E0CAF1000108462F
:1049700008F0FEFC83464FF08F4108F0C7FB8046ED
:104980005DF82400002108F083FC16D05DF82410A7
:10499000404608F0BBFB82464FF07E5108F046FED1
:1049A000814629F0004A3748416A504608F00CFE1B
:1049B00012D20120A04005430EE03248C1694046B2
:1049C00008F002FD05D32F48016A404608F0FCFDBF
:1049D00002D20120A0400543641C032CBADB284608
:1049E000BDE8FE8F2DE9FC5F06460F4600252249F3
:1049F0004968087801AB03220D21FDF744FD10B191
:104A00000720BDE8FC9F9DF8040000F01F008DF812
:104A100004009DF8050000F01F008DF805009DF8CA
:104A2000060000F01F008DF80600002462E056F832
:104A3000240057F82410A0EB010BBBF1000F01DBA1
:104A4000594601E0CBF10001084608F091FC4FF017
:104A50008F41009008F05AFB814601A8005DC0B369
:104A60000849086808F09CFC83465946064808F047
:104A70004DFB80460FE00000380000207B14AE3E66
:104A80001D5A843FA8E5000800B04C45FE49404649
:104A900008F0CEFC804601A8005D401EC0B201A90E
:104AA00008550028F2D14146484608F02FFB8346BE
:104AB0004FF07E5108F0BAFD82462AF0004BF348D1
:104AC0008169584608F080FD13D20120A0400543BB
:104AD0000FE0FFE7ED480169484608F075FC05D393
:104AE000EA484169484608F06FFD02D20120A04023
:104AF0000543641C032C9ADB284682E72DE9F04F1E
:104B000087B005460C46914601208DF81000002024
:104B10008DF81100DE4A1268917CDD4A52681078E7
:104B200004AB0222FDF764FD20B14FF0FF3007B067
:104B3000BDE8F08FC82002F02AFF00208DF8100099
:104B4000D34A1268D17BD24A5268107804AB012252
:104B5000FDF74EFD10B14FF0FF30E8E7CC4A126888
:104B60005179CB4A5268107804AB0122FDF740FD21
:104B700010B14FF0FF30DAE7C54A1268917CC44AA1
:104B80005268107804AB0122FDF732FD10B14FF0EE
:104B9000FF30CCE7BE4A1268D17DBD4A526810781A
:104BA00004AB0122FDF724FD10B14FF0FF30BEE74A
:104BB000B74A12681179B64A5268107804AB0122DC
:104BC000FDF716FD10B14FF0FF30B0E70C208DF867
:104BD0001000AF4A12681179AD4A5268107804ABE0
:104BE0000122FDF705FD10B14FF0FF309FE70F20C8
:104BF00002F0CDFEA648806A407A8DF81000A44AE3
:104C000012689178A24A5268107804AB0122FDF72D
:104C1000EFFC10B14FF0FF3089E79D48806A007AC1
:104C20008DF810009A4A12685178994A52681078A3
:104C300004AB0122FDF7DCFC10B14FF0FF3076E74A
:104C4000B9F1000F07D09248806A807A40F0E00006
:104C50008DF8100004E08E48806A807A8DF810008C
:104C60008B4A126891798A4A5268107804AB012203
:104C7000FDF7BEFC10B14FF0FF3058E7B9F1000F5F
:104C800007D08348806AC07A40F0E0008DF81000B9
:104C900003E07E48C07A8DF810007D4A1268D17911
:104CA0007B4A5268107804AB0122FDF7A1FC10B1D9
:104CB0004FF0FF303BE7B9F1000F02D0C82002F0FF
:104CC00066FE40208DF81000714A12681179704A12
:104CD0005268107804AB0122FDF78AFC10B14FF046
:104CE000FF3024E778208DF81000694A1268517966
:104CF000674A5268107804AB0122FDF779FC10B1C5
:104D00004FF0FF3013E76149888902F040FE002030
:104D10008DF810005E4A126851795D4A5268107829
:104D200004AB0122FDF764FC10B14FF0FF30FEE64A
:104D3000574A1268917A564A5268107804AB022298
:104D4000FDF7A1FB10B14FF0FF30F0E69DF8110028
:104D50009DF8101040EA012B0C209BFBF0F0C6B22E
:104D60000020A86068602860A060606020608246C3
:104D700065E0474A1268D17A454A5268107804AB18
:104D80000C22FDF780FB10B14FF0FF30CFE69DF80D
:104D900011009DF8101040EA012000B2ADF80800A3
:104DA0009DF813009DF8121040EA012000B2ADF802
:104DB0000A009DF815009DF8141040EA012000B289
:104DC000ADF80C00BDF90810206808442060BDF95A
:104DD0000A10606808446060BDF90C10A0680844BF
:104DE000A0609DF817009DF8161040EA012000B25F
:104DF000ADF800009DF819009DF8181040EA012058
:104E000000B2ADF802009DF81B009DF81A1040EAB0
:104E1000012000B2ADF80400BDF900102868084474
:104E20002860BDF90210686808446860BDF9041084
:104E3000A8680844A8600AF1010000F0FF0AB24522
:104E400097DB1248D0F800C02868C117090441EA6E
:104E50001041070462460023384606F056F83246F1
:104E60000023CDE9020106F050F828600748D0F889
:104E700000C06868C117090441EA1041070462468E
:104E80000023384606E0000054E3853FA8E500080B
:104E90003800002006F039F832460023CDE902013F
:104EA00006F033F86860FE48D0F800C0A868C11763
:104EB000090441EA1041070462460023384606F01F
:104EC00024F832460023CDE9020106F01EF8A8605E
:104ED000F348D0F804C02168C817000440EA11481C
:104EE0000F04624600233846414606F00EF832466B
:104EF0000023CDE9020106F008F82060E848D0F868
:104F000004C06068C117090441EA10410704624601
:104F10000023384605F0F9FF32460023CDE90201AF
:104F200005F0F3FF6060DE48D0F804C0A068C11748
:104F3000090441EA1041070462460023384605F09F
:104F4000E4FF32460023CDE9020105F0DEFFA06058
:104F5000A068002804DDA068A0F58030A06003E010
:104F6000A06800F58030A0600020E0E538B5044678
:104F7000CC4890F82400A04201D1002038BD24B3D1
:104F8000C84890F8250010B94FF0FF30F6E7002030
:104F9000FEF74AFB0020FEF76FFCC249C88CFEF703
:104FA000DCFE00200090BF49496808786B4601226A
:104FB0002321FDF71DFB0121BA4880F824100120B0
:104FC000FEF732FBFEF7FCFC13E00020FEF72CFBA3
:104FD000B448007C0090B349496808786B460122C8
:104FE0002321FDF705FB0021AE4880F82410FEF7D1
:104FF000E7FC0020C2E72DE9F04F8DB083460F4655
:1050000002200C90A74890F8240020B10020FFF760
:10501000ADFF012600E0002603A8FFF7E2F905A88E
:10502000FFF7FFF901A8FFF720FA02A8FFF742FAFD
:105030009C4890F80AA004A8FFF796FA002407E01D
:10504000002239465846FFF759FD00B902E0641CBA
:10505000022CF5DB00BF022C01D1002528E0002442
:1050600007E0012206A909A8FFF748FD00B902E000
:10507000641C022CF5DB00BF022C01D1002517E0D7
:1050800006A93846FFF75CFC00F0FF0809A958465E
:10509000FFF7A8FC00F0FF090025B9F1000F01D1CE
:1050A00045F00105B8F1000F01D145F0020500BF40
:1050B000FF207C490872FF217A484172C1724FF685
:1050C000FF71C181FF218172017401210173BDF85B
:1050D0000C00FEF7D0FE9DF81400FEF78AFEBDF826
:1050E0000400FEF78EFDBDF80800FEF736FE5046C0
:1050F000FEF75DFB9DF81000FEF74EFD16B1012096
:10510000FFF734FF28460DB0BDE8F08FF8B5044630
:105110000D46164616B94FF0FF30F8BD6148807A4B
:1051200010B94FF0FF30F8E720128DF80000E0B220
:105130008DF801009DF8010028445A4949684989C1
:10514000884202DD4FF0FF30E7E7564A1268117ED1
:10515000544A526810786B460222FDF749FA10B1A2
:105160004FF0FF30D9E7EAB24E4B1B68597D4D4BEB
:105170005B6818783346FDF73BFA10B14FF0FF300B
:10518000CBE70020C9E7F8B504460D46164616B928
:105190004FF0FF30F8BD4348807A10B94FF0FF3030
:1051A000F8E720128DF80000E0B28DF801009DF8BC
:1051B000010028443B4949684989884202DD4FF093
:1051C000FF30E7E7374A1268117E364A5268107896
:1051D0006B460222FDF70CFA10B14FF0FF30D9E711
:1051E000EAB2304B1B68597D2E4B5B68187833460A
:1051F000FDF749F910B14FF0FF30CBE70020C9E7C8
:105200002DE9F04385B005460E469046994625485F
:1052100090F8250020B14FF0FF3005B0BDE8F083D5
:1052200016B94FF0FF30F8E7002423E0281B1028C0
:1052300001DD102000E0281B87B2321939462046D4
:10524000FFF764FF10B14FF0FF30E6E701AA3946DF
:105250002046FFF798FF10B14FF0FF30DDE730191F
:105260003A4601A905F0FCFF10B16FF00100D4E748
:10527000E01984B2AC42D9DB4FEA28208DF8000057
:1052800008F0FF008DF80100064A1268917E054A79
:10529000526810786B460222FDF7AAF938B103E094
:1052A000A8E50008380000204FF0FF30B5E70121E5
:1052B000FE4880F82510A0F826900020ADE70146B2
:1052C000FA4890F824000870002070474FF0FF3033
:1052D000704702464FF0FF30704701464FF0FF30F5
:1052E0007047F8B505460F461446002C70D0B5F54A
:1052F000FF5F01DDFF2605E0202D01DA012601E038
:10530000C5F3471607B90127282C02DD4FF0FF30FF
:10531000F8BDE648407D28BBE44890F8240038B149
:105320000020FFF723FE0121E04880F8201003E071
:105330000021DE4880F82010DC481630FFF751F8D5
:10534000DA481830FFF76DF8D8481A30FFF78DF8B3
:10535000D6481C30FFF7AEF8D448817A81771F30E9
:10536000FFF702F90020FEF75FF90020FEF788FC46
:1053700000208DF80000CD4A12689178CB4A52681F
:1053800010786B460122FDF733F910B14FF0FF3072
:10539000BEE740208DF80000C44A1268D17BC34AA2
:1053A000526810786B460122FDF722F900B165E0E2
:1053B0008DF800608DF80170BC4A1268117ABB4A02
:1053C000526810786B460222FDF712F908B155E0D9
:1053D00047E0052002F0DBFAB448407A072101EBF0
:1053E000C000C0B28DF80000B04A1268D179AF4A4F
:1053F000526810786B460122FDF7FAF800B13DE0E3
:1054000020208DF80000012C03D100208DF8010030
:105410000EE0052C03DC01208DF8010008E0142CBF
:1054200003DC02208DF8010002E003208DF801006A
:105430009DF80100072101EB8010C0B28DF801003A
:105440009A4A1268917C994A526810786B460222F7
:10545000FDF7CEF800B111E001219448417500201C
:1054600056E7924A1632002103E0505C00B105E095
:10547000491C0C29F9D34FF0FF3049E7FF208B4935
:105480000872FF2189484172C1724FF6FF71C181D4
:10549000FF2181720174012101730146887FFEF7AB
:1054A00086F98249C88AFEF7E6FC8049087EFEF745
:1054B000A0FC7E49488BFEF7A4FB7C49888BFEF755
:1054C0004CFC7A49C87FFEF767FB784890F82000CB
:1054D00010B10120FFF74AFD0021744841750020FA
:1054E00016E770B588B002A905A8FFF784FD044649
:1054F000032C3ED101A8FEF7F3FF059807F038FF13
:105500000646019907F094FF054607F0F5FE059061
:10551000069807F02DFF0646019907F089FF05461A
:1055200007F0EAFE0690079807F022FF0646019969
:1055300007F07EFF054607F0DFFE079005A8FDF7A0
:1055400056FA6846FEF7E9FFBDF800100298484396
:105550000290BDF80010039848430390BDF8001076
:1055600004984843049002A8FDF7D4FA002008B03C
:1055700070BD0120FBE7014691F90020002A01DD02
:1055800000201EE091F90020002A01DA042018E032
:1055900091F90120002A01DD012012E091F901209A
:1055A000002A01DA05200CE091F90220002A01DD31
:1055B000022006E091F90220002A01DA062000E02C
:1055C0000720704710B504462046FFF7D4FF034676
:1055D000E01CFFF7D0FF43EAC00083B2A01DFFF735
:1055E000CAFF43EA801083B2184610BD70B500248C
:1055F000FDF741F8FEF781FC002840D17820FEF746
:10560000D6F8C4B20CB1012070BD7820FEF7C4FA00
:10561000C4B20CB10220F7E76420FEF79EFBC4B2CF
:105620000CB10320F0E7FDF747F9C4B20CB1042038
:10563000EAE71F48FFF7C6FF0546FDF747F9C4B282
:105640000CB10520E0E740F27310FDF780FDC4B215
:105650000CB10620D8E76420FDF7F2FAC4B20CB111
:105660000720D1E7FFF73DFF04460CB10820CBE748
:105670000120FFF77BFCC4B21CB10920C4E70A205B
:10568000C2E70020C0E72DE9F04F99B004460D466F
:1056900016464FF07E574FF000084FF000094FF0CC
:1056A000000A12A813A918AB0EAA03E038000020C4
:1056B00064000020CDE9001014A916A8FDF7A6FE8D
:1056C00018B1012019B0BDE8F08FBDF84C0000F40E
:1056D000807000287ED00E9807F04AFE83464FF077
:1056E0009D4107F013FD07460F9807F041FE8346E2
:1056F0004FF09D4107F00AFD8046109807F038FEF4
:1057000083464FF09D4107F001FD8146119807F057
:105710002FFE83464FF09D4107F0F8FC8246394644
:105720004FF0804007F084FE4946059007F080FE68
:10573000414607904FF0404007F07AFE51460590F1
:1057400007F076FE0690079907F072FC834607F093
:1057500043FCCDE9080106F0BDFA4FF06632544B28
:10576000CDE90A0107F05EF9CDE90C0106F0C6FEAD
:10577000206049464FF0804007F05AFE49460290AB
:1057800007F056FE414604904FF0404007F050FEAF
:105790004146029007F04CFE0390049907F046FF43
:1057A00083464FF07E5107F043FC059007F014FC50
:1057B000CDE9080139464FF0804007F039FE4146F7
:1057C000039007F035FE494604904FF0804007F003
:1057D0002FFE00E068E05146039007F029FE834663
:1057E000049907F025FC059007F0F6FBCDE90601CA
:1057F000DDE9082306F0BEFC4FF066322C4BCDE904
:105800000A0107F00FF9CDE90C0106F077FE2860D8
:105810005146504607F00CFE49460490484607F0B2
:1058200007FE41460390404607F002FE39460190CC
:10583000384607F0FDFD0090019907F0F9FB029052
:10584000039907F0F3FE8346049907F0EFFE0590F5
:1058500007F0C2FBCDE908015146384607F0E8FDE4
:1058600049460490404607F0E3FD0390049907F091
:10587000DFFB4FF08041059007F0DAFD834607F02B
:10588000ABFBCDE90601DDE9082306F073FC4FF020
:105890006632074BCDE90A0107F0C4F8CDE90C01E7
:1058A00006F02CFE306001E002200BE7002009E743
:1058B00066A64C4008B50121080202F0D8FF01217C
:1058C00040F2E11002F0E0FF4CF23370ADF800005E
:1058D00003208DF8020018208DF803006946FE4869
:1058E00002F016FD4FF6C070ADF800006946FB48A7
:1058F00002F00EFD01224021F84802F0BAFD01201D
:10590000ADF800006946F64802F002FD4FF4805001
:10591000ADF800006946F34802F0FAFC08BD00B596
:1059200097B0002001900290022003900020049084
:1059300005900690079006200890002009900A9094
:1059400010200B9000200C900E900F9010904FF4B0
:1059500080501190002012901390149001A815907F
:10596000169008A802F0BAF90121062002F01EFBE9
:1059700017B000BD10B5FFF79DFFFFF7D0FF10BDBA
:105980004FF0D84210805180704701464FF0D84206
:10599000118050885088704722204FF0D8410880ED
:1059A00070474FF0D8414880704708B522204FF02B
:1059B000D8410880084640880090BDF8000008BD26
:1059C00010B503460C46C848008848F6991188422D
:1059D00005D0C548008849F61911884208D11946F2
:1059E0004E20FFF7CDFF21464F20FFF7C9FF07E00C
:1059F00019462020FFF7C4FF21462120FFF7C0FFF2
:105A000010BD014606E0002000E0401C42F210728A
:105A10009042FAD30A00A1F10101F4D1704770B5A8
:105A2000044600250021084606F0BAFCFFF7B4FF43
:105A300000BF03E04FF0D84044806D1CB5F5963FA1
:105A4000F8D370BD01B502E00098401E00900098A8
:105A50000028F9D108BD10B5FFF78CFF0520FFF72E
:105A6000D0FF0520FFF7CDFF0020FFF78EFF9E49F6
:105A700008800846008849F22531884204D09A48B7
:105A80000088C91C884270D11021E720FFF778FFF9
:105A900001210020FFF774FF4FF480710120FFF710
:105AA0006FFF4FF4E0610220FFF76AFF41F230011F
:105AB0000320FFF765FF00210420FFF761FF40F29C
:105AC00007210820FFF75CFF00210920FFF758FF9E
:105AD00000210A20FFF754FF01210C20FFF750FF9F
