:020000040800F2
:10000000B8070020652F000811030008130300083B
:10001000170300081B0300081F030008000000006E
:1000200000000000000000000000000023030008A2
:10003000250300080000000027030008290300082A
:100040007F2F00087F2F00087F2F00087F2F0008D8
:100050007F2F00087F2F00087F2F00087F2F0008C8
:100060007F2F00087F2F00087F2F00087F2F0008B8
:100070007F2F00087F2F00087F2F00087F2F0008A8
:100080007F2F00087F2F00087F2F00087F2F000898
:100090007F2F00087F2F00087F2F00087F2F000888
:1000A0007F2F00087F2F00087F2F00087F2F000878
:1000B0007F2F00087F2F0008032A00087F2F0008E9
:1000C0007F2F00087F2F00087F2F00087F2F000858
:1000D0007F2F0008DB2E00087F2F00087F2F0008ED
:1000E0007F2F00087F2F00087F2F00087F2F000838
:1000F0007F2F00087F2F00087F2F00087F2F000828
:100100007F2F00087F2F00087F2F00087F2F000817
:100110007F2F00087F2F00087F2F00087F2F000807
:100120007F2F00087F2F00087F2F00087F2F0008F7
:1001300000F002F800F042F80AA090E8000C8244B7
:100140008344AAF10107DA4501D100F037F8AFF294
:10015000090EBAE80F0013F0010F18BFFB1A43F0A5
:10016000010318472C5D00004C5D0000103A24BFCD
:1001700078C878C1FAD8520724BF30C830C144BF0C
:1001800004680C607047000000230024002500264E
:10019000103A28BF78C1FBD8520728BF30C148BFEA
:1001A0000B607047642904F05187782904F08A872E
:1001B000002070471FB51FBD10B510BD05F0E2F857
:1001C0001146FFF7F7FF00F009F805F000F903B456
:1001D000FFF7F2FF03BC02F023FE000086B000240C
:1001E00002F0B0FD02F016FE4FF4165002F026FEAB
:1001F00000F08AF947214FF6FF7002F089FB02F008
:100200006BFD00F091FC4FF478402A4908802A48A1
:1002100082882AA103A804F0DBFE4FF47840254928
:10022000088029A010210B46C822CDE900103221F8
:100230001E2002F030FB29A010210B46C822CDE978
:10024000001046211E2002F026FB03A810210B46B9
:10025000C822CDE900106E211E2002F01CFB22A056
:1002600010210B46C822CDE9001082211E2002F089
:1002700012FB1EE002F052FD802010210323CDE985
:1002800000101C48BE2102683C2002F0A5FA194863
:10029000016819A004F090FE601CC4B20C2C00D1BF
:1002A00000241A48006808B9012000E0002017491E
:1002B0000860DFE7140000207C0000204C4344204D
:1002C00049443A25303458005761725368697020A8
:1002D00053544D3332205E5F5E0000005446544C50
:1002E0004344205445535400323031342F31302FA1
:1002F000350000001C0000204368616E6E656C20B4
:1003000031203A20256420636D0D0A00948121423A
:10031000704700BFFEE700BFFEE700BFFEE700BF7B
:10032000FEE7704770477047704700000CB500202B
:10033000019000906B48006840F480306949086083
:1003400000BF6848006800F4003000900198401C2D
:100350000190009818B90198B0F5A06FF1D16148EB
:10036000006810F4003F02D00120009001E000205E
:1003700000900098012842D15B48006840F01000CE
:10038000594908600846006820F0030008600846E4
:10039000006840F0020008605248406851494860D7
:1003A0000846406848600846406840F480604860FD
:1003B0000846406820F47C1048600846406840F4D5
:1003C000E81048600846006840F08070086000BF90
:1003D0004448006810F0007FFAD04248406820F09E
:1003E0000300404948600846406840F00200486009
:1003F00000BF3C48406800F00C000828F9D10CBD53
:1004000010B5FFF793FF10BD10B53648006840F0F7
:1004100001003449086008464068344908403149C1
:10042000486008460068324908402E49086008467E
:10043000006820F4802008600846406820F4FE0030
:1004400048604FF41F008860FFF7DAFF4FF000604C
:100450002849086010BD10B5002100200022214B62
:100460005B6803F00C0121B1042906D0082928D1CA
:1004700007E0214B214C236027E01F4B1F4C2360DA
:1004800023E0184B5B6803F47010164B5B6803F4B1
:100490008032022303EB904022B9194B4343174C9F
:1004A00023600DE00F4B5B6813F4003F04D0144B46
:1004B0004343124C236003E00F4B43430F4C236034
:1004C00003E00D4B0D4C236000BF00BF054B5B6884
:1004D000C3F303130B4CE15C084B1B68CB40074C88
:1004E000236010BD00100240002002400000FFF811
:1004F000FFFFF6FE08ED00E000127A000000002089
:1005000000093D000400002008B50121482003F047
:10051000D9FB2020ADF8000010208DF80300032047
:100520008DF802006946094803F016F920210748B2
:1005300003F0BDF92020ADF800006946044803F03F
:100540000BF92021024803F0B2F908BD000C01406C
:1005500000180140F84908807047F749891C088055
:100560007047F548801C00887047F34A1080921C41
:100570001180704710B504462046FFF7EBFF0520B9
:1005800002F0F9FBFFF7EDFF10BDEC48C079EA4936
:1005900008807047E849891C0880704730B50146DB
:1005A00001F01F04C1F34513CA0AE50205EB431528
:1005B0001544A8B230BD00BF0100A0F10102D0B2C5
:1005C000FAD1704710B503460C46DC488088A0F588
:1005D0001341413905D0D9488088A0F5D04104396C
:1005E00014D1D649087AFFF7B5FF1812FFF7B5FF07
:1005F000D8B2FFF7B2FFD149487AFFF7ABFF20121C
:10060000FFF7ABFFE0B2FFF7A8FF12E0CB4880791D
:10061000012804D1C9480088401EC01A83B2C749C6
:10062000087A1946FFF7A1FFC449487A2146FFF727
:100630009CFF10BD2DE9F04105460E460024002721
:10064000A046BE480088A84203DDBC484088B042AE
:1006500002DC0020BDE8F08131462846FFF7B2FFFA
:10066000B6488088A0F51341413905D0B348808849
:10067000A0F5D041043903D12E20FFF76BFF02E033
:100680002220FFF767FFAD488088A0F5134120398D
:1006900002D10220FFF78FFFA748801C008800B11D
:1006A00000240220FFF787FFA348801C0488A3488A
:1006B0008088A0F5134141390CD10220FFF77BFF60
:1006C0009D48801CB0F80080E7B24FF6FF7000EA4A
:1006D000072708E099488088A0F5D041043902D165
:1006E0009548801C048895488088A0F513412539D9
:1006F00017D092488088A0F58A41353911D08F48AB
:100700008088A0F58A4131390BD08C488088A0F5CB
:100710000941893905D089488088A0F535410539D6
:1007200001D1204696E785488088A0F513414139DC
:1007300007D1E012C002B91240EA411040EAE820B5
:1007400088E72046FFF72AFF84E700B57B488088CA
:10075000A0F51341413905D078488088A0F5D041F3
:10076000043903D12920FFF7F5FE04E040F27311AC
:100770000720FFF7FAFE00BD00B570488088A0F59D
:100780001341413905D06D488088A0F5D041043926
:1007900003D12820FFF7DEFE03E000210720FFF74A
:1007A000E4FE00BDF0B505460024002763488079CB
:1007B00001281ED161488088A0F5D041043918D0A5
:1007C000082D15D2DFE805F00406080A0C0E1012F9
:1007D00006250DE007250BE0042509E0052507E0C7
:1007E000012505E0002503E0032501E0022500BF07
:1007F00000BF52488088A0F51341413905D04F48C9
:100800008088A0F5D04104397CD1082D1CD2DFE8C6
:1008100005F00406090C0F12151800BF14E044F08F
:10082000800411E044F040040EE044F0C0040BE00A
:1008300044F0200408E044F0600405E044F0A00423
:1008400002E044F0E00400BF00BF362744F0080493
:100850003A488088A0F5D041043901D144F002041F
:1008600021463846FFF781FE14F0200F0DD03348A3
:10087000008832494988884214DA3048068840881E
:100880002E490880084646800CE02C4800882B49F9
:100890004988884206DD294806884088274908801B
:1008A000084646802549087AFFF754FE0020FFF7E6
:1008B00054FE0020FFF751FE20490988491EC1F36C
:1008C0000F20FFF74AFE1D490978491EC8B2FFF7FD
:1008D00044FE1A49487AFFF73DFE0020FFF73DFE2F
:1008E0000020FFF73AFE15494988491EC1F30F2041
:1008F000FFF733FE11498978491EC8B2FFF72DFE74
:1009000037E0FFE7082D21D2DFE805F004070A0DE4
:100910000F121A1D44F0300418E044F0100415E0E2
:1009200044F0200412E000BF10E044F038040DE071
:1009300044F028040AE00000FE07006C7C00002060
:1009400044F0180402E044F0080400BF00BFFE4871
:100950008088A0F50941893904D1112746F2400069
:10096000044302E0032744F4805421463846FFF74D
:10097000FCFDF0BD30B504460D4629462046FFF784
:1009800021FEFFF702FEF1480088F149088030BDE2
:1009900030B503460C461546EB488088A0F5134158
:1009A000413905D0E8488088A0F5D041043914D1F8
:1009B000E549087AFFF7CEFD1812FFF7CEFDD8B251
:1009C000FFF7CBFDE049487AFFF7C4FD2012FFF79F
:1009D000C4FDE0B2FFF7C1FD12E0DB4880790128D9
:1009E00004D1D9480088401EC01A83B2D649087A7B
:1009F0001946FFF7BAFDD449487A2146FFF7B5FDFD
:100A0000D148C079D249891E0880881C058030BD34
:100A100010B50446002C3DD1CB498871F0200880E8
:100A20004FF4A070488008468088A0F513414139F2
:100A300005D0C5488088A0F5D041043914D12C20B8
:100A4000C149C8712A2008722B2048720846808844
:100A5000A0F5D04104394ED14FF4A070BA490880B6
:100A60004FF4F070488046E0B7488088A0F509410F
:100A7000893907D12220B449C8714E2008724F200D
:100A8000487238E02220B049C87120200872212025
:100A9000487230E0AC488088A0F5D04104392AD0B3
:100AA0000120A94988714FF4A0700880F020488087
:100AB00008468088A0F51341413907D12C20A2496E
:100AC000C8712A2008722B20487214E09E48808842
:100AD000A0F50941893907D122209B49C8714F20CF
:100AE00008724E20487206E022209749C8712120E2
:100AF0000872202048720020FFF754FE10BD70B528
:100B00000446002690480588408845430021084651
:100B1000FFF758FDFFF739FD00BF02E08C48048065
:100B2000761CAE42FAD370BD00B59FB00121080219
:100B300003F0BBF8012140F2691003F0C3F8012073
:100B4000ADF8780010208DF87B0003208DF87A0036
:100B50001EA9804802F000FE4CF23370ADF8780018
:100B600018208DF87B0003208DF87A001EA97A48A2
:100B700002F0F2FD4FF68070ADF8780018208DF885
:100B80007B0003208DF87A001EA9744802F0E4FD72
:100B900041F20100ADF8780018208DF87B000320A9
:100BA0008DF87A001EA96E4802F0D6FD012008904B
:100BB000002009900F200A9000200B900C900D90BF
:100BC0000E90019002900320039000200490059065
:100BD0000690079006200F90002010901190102092
:100BE00012900020139015901490169017904FF4C7
:100BF00080501890002019904FF480401A900020E7
:100C00001B9008A81C9001A81D900FA802F087FA5D
:100C10000121062002F0E4FB322002F0CFF801218E
:100C20000020FFF7A2FC322002F0C8F80020FFF7F6
:100C3000A1FC4549888008468088FF280ADB0846D1
:100C40008088A0F57F41FF3904D03F488088B0F507
:100C5000134F4BD1D320FFF77DFCFFF782FCFFF74A
:100C600080FCFFF77EFC38498880084680884FF674
:100C7000FF7101EA002034498880FFF772FC324995
:100C8000898808433049888008468088A0F5134148
:100C900041391BD0BF20FFF75DFCFFF762FCFFF777
:100CA00060FCFFF75EFCFFF75CFC27498880084684
:100CB00080884FF6FF7101EA002023498880FFF702
:100CC00050FC2149898808431F4988801E48808834
:100CD000A0F51341413909D01B488088A0F5D041C7
:100CE000043903D049F24130174988801648818879
:100CF0001CA004F061F914488088A0F51341413923
:100D00007ED1CF20FFF726FC0020FFF726FCC12074
:100D1000FFF723FC3020FFF720FCED20FFF71AFC43
:100D20006420FFF71AFC0320FFF717FC1220FFF7DF
:100D300014FC8120FFF711FCE820FFF70BFC852055
:100D4000FFF70BFC102015E07C00002014000020B1
:100D50000008006C000C0140001401400018014024
:100D600000200140204C43442049443A25780D0A94
:100D700000000000FFF7F1FB7A20FFF7EEFBCB202D
:100D8000FFF7E8FB3920FFF7E8FB2C20FFF7E5FB36
:100D90000020FFF7E2FB3420FFF7DFFB0220FFF724
:100DA000DCFBF720FFF7D6FB2020FFF7D6FBEA207D
:100DB000FFF7D0FB0020FFF7D0FB0020FFF7CDFBB3
:100DC000C020FFF7C7FB1B20FFF7C7FBC120FFF7C1
:100DD000C1FB0120FFF7C1FBC520FFF7BBFB3020A3
:100DE000FFF7BBFB3020FFF7B8FBC720FFF7B2FBD4
:100DF000B720FFF7B2FB3620FFF7ACFB482000E03E
:100E0000AEE0FFF7AAFB3A20FFF7A4FB5520FFF75F
:100E1000A4FBB120FFF79EFB0020FFF79EFB1A20EA
:100E2000FFF79BFBB620FFF795FB0A20FFF795FB2A
:100E3000A220FFF792FBF220FFF78CFB0020FFF7C8
:100E40008CFB2620FFF786FB0120FFF786FBE020C6
:100E5000FFF780FB0F20FFF780FB2A20FFF77DFBC9
:100E60002820FFF77AFB0820FFF777FB0E20FFF71B
:100E700074FB0820FFF771FB5420FFF76EFBA920DD
:100E8000FFF76BFB4320FFF768FB0A20FFF765FBCA
:100E90000F20FFF762FB0020FFF75FFB0020FFF74A
:100EA0005CFB0020FFF759FB0020FFF756FBE12019
:100EB000FFF750FB0020FFF750FB1520FFF74DFB1D
:100EC0001720FFF74AFB0720FFF747FB1120FFF72A
:100ED00044FB0620FFF741FB2B20FFF73EFB56208B
:100EE000FFF73BFB3C20FFF738FB0520FFF735FB06
:100EF0001020FFF732FB0F20FFF72FFB3F20FFF7FB
:100F00002CFB3F20FFF729FB0F20FFF726FB2B20B0
:100F1000FFF720FB0020FFF720FB0020FFF71DFB61
:100F20000120FFF71AFB3F20FFF717FB2A20FFF7EE
:100F300011FB0020FFF711FB0020FFF70EFB002044
:100F4000FFF70BFBEF20FFF708FB1120FFF702FB79
:100F5000782001F033FF2920FFF7FCFA01F00EBAE8
:100F6000FE488088A0F5D04104397CD11120FFF7DC
:100F7000F1FA142001F022FFD020FFF7EBFA07204E
:100F8000FFF7EBFA4220FFF7E8FA1D20FFF7E5FA3A
:100F9000D120FFF7DFFA0020FFF7DFFA1A20FFF772
:100FA000DCFA0920FFF7D9FAD220FFF7D3FA0120A3
:100FB000FFF7D3FA2220FFF7D0FAC020FFF7CAFAD2
:100FC0001020FFF7CAFA3B20FFF7C7FA0020FFF70F
:100FD000C4FA0220FFF7C1FA1120FFF7BEFAC520BC
:100FE000FFF7B8FA0320FFF7B8FAC820FFF7B2FA04
:100FF0000020FFF7B2FA2520FFF7AFFA2120FFF714
:10100000ACFA0520FFF7A9FA0020FFF7A6FA0A209C
:10101000FFF7A3FA6520FFF7A0FA2520FFF79DFA56
:101020007720FFF79AFA5020FFF797FA0F20FFF783
:1010300094FA0020FFF791FAF820FFF78BFA0120CD
:10104000FFF78BFAFE20FFF785FA0020FFF785FAFD
:101050000220FFF782FA2020FFF77CFA3620FFF704
:1010600079FA082000E02CE0FFF777FA3A20FFF742
:1010700071FA5520FFF771FA2B20FFF76BFA002069
:10108000FFF76BFA0020FFF768FA0120FFF765FA17
:101090003F20FFF762FA2A20FFF75CFA0020FFF7F3
:1010A0005CFA0020FFF759FA0120FFF756FADF201B
:1010B000FFF753FA782001F081FE2920FFF74AFA62
:1010C0004CE7A6488088A0F5134125397ED147F624
:1010D000F001E520FFF749FA4FF480710120FFF796
:1010E00044FA4FF4E0610220FFF73FFA41F2300189
:1010F0000320FFF73AFA00210420FFF736FA40F206
:1011000002210820FFF731FA00210920FFF72DFA0C
:1011100000210A20FFF729FA00210C20FFF725FA09
:1011200000210D20FFF721FA00210F20FFF71DFA03
:1011300000211020FFF719FA07211120FFF715FAF7
:1011400000211220FFF711FA00211320FFF70DFAFA
:1011500000210720FFF709FA41F290611020FFF704
:1011600004FA40F227211120FFF7FFF99D211220F8
:10117000FFF7FBF94FF4C8511320FFF7F6F92521CB
:101180002920FFF7F2F90D212B20FFF7EEF90721B7
:101190003020FFF7EAF940F203313120FFF7E5F99B
:1011A00003213220FFF7E1F940F206213520FFF755
:1011B000DCF908213620FFF7D8F940F20641372044
:1011C000FFF7D3F94FF44171382000E057E0FFF703
:1011D000CCF907213920FFF7C8F940F202613C2021
:1011E000FFF7C3F908213D20FFF7BFF90021502088
:1011F000FFF7BBF9EF215120FFF7B7F9002152208B
:10120000FFF7B3F940F23F115320FFF7AEF94FF467
:1012100027416020FFF7A9F901216120FFF7A5F917
:1012200000216A20FFF7A1F900218020FFF79DF936
:1012300000218120FFF799F900218220FFF795F91D
:1012400000218320FFF791F900218420FFF78DF919
:1012500000218520FFF789F910219020FFF785F9FB
:101260004FF4C0619220FFF780F940F2331107205C
:10127000FFF77BF922210020FFF777F96EE6374868
:101280008088A0F5134128396AD141F28F01EC2002
:10129000FFF76BF941F23421EF20FFF766F94FF4C5
:1012A00080710120FFF761F94FF4E0610220FFF740
:1012B0005CF941F230010320FFF757F900210420C7
:1012C000FFF753F940F202210820FFF74EF9002101
:1012D0000920FFF74AF900210A20FFF746F901210A
:1012E0000C20FFF742F900210D20FFF73EF9002105
:1012F0000F20FFF73AF900211020FFF736F90721F8
:101300001120FFF732F900211220FFF72EF90021FA
:101310001320FFF72AF901210720FFF726F93220D1
:1013200001F04CFD41F290411020FFF71EF940F210
:1013300027211120FFF719F9322001F03FFD8A2102
:101340001220FFF712F9322001F038FD4FF4D0518E
:101350001320FFF70AF90621292002E07C00002073
:101360008AE0FFF702F90D212B20FFF7FEF832206B
:1013700001F024FD00212020FFF7F7F800212120B3
:10138000FFF7F3F8322001F019FD00213020FFF7BC
:10139000ECF840F204613120FFF7E7F840F2053144
:1013A0003220FFF7E2F800213520FFF7DEF840F6A3
:1013B00009413620FFF7D9F84FF401713720FFF7C4
:1013C000D4F840F201313820FFF7CFF840F207712E
:1013D0003920FFF7CAF800213C20FFF7C6F840F695
:1013E0000A213D20FFF7C1F8322001F0E7FC00217F
:1013F0005020FFF7BAF8EF215120FFF7B6F800218F
:101400005220FFF7B2F840F23F115320FFF7ADF83A
:101410004FF427416020FFF7A8F801216120FFF772
:10142000A4F800216A20FFF7A0F800218020FFF730
:101430009CF800218120FFF798F800218220FFF717
:1014400094F800218320FFF790F800218420FFF713
:101450008CF800218520FFF788F810219020FFF7F5
:1014600084F84FF4C0619220FFF77FF840F2331107
:101470000720FFF77AF871E5FE488088A0F5134150
:1014800020397DD10846FFF770F84FF480710120B4
:10149000FFF76BF84FF4E0610220FFF766F841F2C6
:1014A00030010320FFF761F800210420FFF75DF809
:1014B00040F202210820FFF758F800210920FFF729
:1014C00054F800210A20FFF750F801210C20FFF703
:1014D0004CF800210D20FFF748F800210F20FFF7FE
:1014E00044F8322001F06AFC40F201110720FFF7B6
:1014F0003CF8322001F062FC4FF486511020FFF7D7
:1015000034F807211120FFF730F84FF488711220CA
:10151000FFF72BF84FF430611320FFF726F8002176
:101520002920FFF722F844F210012B20FFF71DF8C5
:1015300000215020FFF719F8EF215120FFF715F88F
:1015400000215220FFF711F840F23F115320FFF71E
:101550000CF84FF41C516020FFF707F801216120BF
:10156000FFF703F800216A20FEF7FFFF002180202B
:10157000FEF7FBFF00218120FEF7F7FF002100E0CE
:101580002DE08220FEF7F1FF00218320FEF7EDFF22
:1015900000218420FEF7E9FF00218520FEF7E5FF0A
:1015A00010219020FEF7E1FF00219220FEF7DDFFE1
:1015B00001219320FEF7D9FF4FF488719520FEF7A3
:1015C000D4FF00219720FEF7D0FF00219820FEF7DE
:1015D000CCFF40F273110720FEF7C7FFBEE4A54819
:1015E0008088A0F5134131397DD141F21401E72003
:1015F000FEF7BBFF4FF480710120FEF7B6FF4FF4FA
:1016000000710220FEF7B1FF41F238010320FEF71E
:10161000ACFF40F202210820FEF7A7FF00210920BD
:10162000FEF7A3FF00210A20FEF79FFF00210C20F8
:10163000FEF79BFF00210D20FEF797FF00210F20F2
:10164000FEF793FF00211020FEF78FFF07211120E6
:10165000FEF78BFF00211220FEF787FF00211320E9
:10166000FEF783FFC82001F0A9FB41F29061102032
:10167000FEF77BFF40F227211120FEF776FF322094
:1016800001F09CFB0C211220FEF76FFF322001F0CD
:1016900095FB4FF400611320FEF767FF112129200D
:1016A000FEF763FF0B212B20FEF75FFF322001F0D6
:1016B00085FB00212020FEF758FF40F23F1121203A
:1016C000FEF753FF00213020FEF74FFF4FF48371E8
:1016D0003120FEF74AFF00213220FEF746FF4FF48B
:1016E0000171352000E064E0FEF73FFF41F20A613E
:1016F0003620FEF73AFF40F207713720FEF735FF3C
:101700004FF483713820FEF730FF40F20771392023
:10171000FEF72BFF40F202413C20FEF726FF40F689
:101720000F413D20FEF721FF00215020FEF71DFF55
:10173000EF215120FEF719FF00215220FEF715FF7F
:1017400040F23F115320FEF710FF4FF41C51602070
:10175000FEF70BFF01216120FEF707FF00216A2041
:10176000FEF703FF00218020FEF7FFFE002181200D
:10177000FEF7FBFE00218220FEF7F7FE002183200A
:10178000FEF7F3FE00218420FEF7EFFE0021852006
:10179000FEF7EBFE10219020FEF7E7FE4FF4C0614C
:1017A0009220FEF7E2FE40F233110720FEF7DDFE45
:1017B00086E430488088A0F5A84108397DD14FF4EF
:1017C00080710120FEF7D1FE4FF4E0610220FEF7A8
:1017D000CCFE41F230010320FEF7C7FE00210420B9
:1017E000FEF7C3FE40F207210820FEF7BEFE0021EF
:1017F0000920FEF7BAFE00210A20FEF7B6FE0021FE
:101800000C20FEF7B2FE00210D20FEF7AEFE0021F7
:101810000F20FEF7AAFE142001F0D0FA41F2B061C9
:101820001020FEF7A2FE01211120FEF79EFE0121ED
:101830001720FEF79AFE4FF49C711220FEF795FEDA
:101840004FF400611320FEF790FE09212920FEF7D6
:101850008CFE09212A20FEF788FE0021A420FEF735
:1018600084FE00215020FEF780FEEF215120FEF77C
:101870007CFE01E07C00002000215220FEF775FE76
:1018800040F23F115320FEF770FE4FF41C516020D0
:10189000FEF76BFE01216120FEF767FE00216A2042
:1018A000FEF763FE00218020FEF75FFE002181200D
:1018B000FEF75BFE0021822000E027E0FEF755FEE8
:1018C00000218320FEF751FE00218420FEF74DFE0B
:1018D00000218520FEF749FE13219020FEF745FEEA
:1018E00000219220FEF741FE03219320FEF73DFEEA
:1018F0004FF488719520FEF738FE40F273110720EF
:10190000FEF733FE322001F059FAB7E4FE48808832
:10191000A0F5A85105397DD10720FEF726FE32201B
:1019200001F04CFA4FF48E711220FEF71EFE0121D9
:10193000A420FEF71AFE0F210820FEF716FE08214C
:101940000A20FEF712FE08210D20FEF70EFE40F2DF
:1019500007713020FEF709FE07213120FEF705FE52
:1019600040F203613220FEF700FE4FF4E0613320C5
:10197000FEF7FBFD40F202213420FEF7F6FD0221C6
:101980003520FEF7F2FD41F60F713620FEF7EDFD32
:1019900040F207713720FEF7E8FD00213820FEF7FE
:1019A000E4FD00213920FEF7E0FD40F207713A2006
:1019B000FEF7DBFD00213B20FEF7D7FD07213C2091
:1019C000FEF7D3FD00213D20FEF7CFFD322001F0D0
:1019D000F5F901210720FEF7C8FD01211720FEF7C8
:1019E000C4FD322001F0EAF94FF4BD511020FEF79A
:1019F000BCFD40F217211120FEF7B7FD4FF48F71A7
:101A00001220FEF7B2FD4FF470611320FEF7ADFD1A
:101A1000002100E094E02A20FEF7A7FD0A212920FA
:101A2000FEF7A3FD4FF49F711220FEF79EFD0021EB
:101A30005020FEF79AFDEF215120FEF796FD002180
:101A40005220FEF792FD40F23F115320FEF78DFD2C
:101A50004FF41C516020FEF788FD01216120FEF744
:101A600084FD00216A20FEF780FD00218020FEF722
:101A70007CFD00218120FEF778FD00218220FEF709
:101A800074FD00218320FEF770FD00218420FEF705
:101A90006CFD00218520FEF768FD13219020FEF7E4
:101AA00064FD4FF440719220FEF75FFD0521932005
:101AB000FEF75BFD00219520FEF757FD00219720E2
:101AC000FEF753FD00219820FEF74FFD4FF4807183
:101AD0000120FEF74AFD4FF4E0610220FEF745FDCC
:101AE00041F238010320FEF740FD00210420FEF7FB
:101AF0003CFD00210C20FEF738FD00210F20FEF7F1
:101B000034FD00212020FEF730FD00212120FEF7CA
:101B10002CFD21210720FEF728FD142001F04EF9AD
:101B200061210720FEF721FD142001F047F940F262
:101B300073110720FEF719FD142001F03FF99AE414
:101B400071488088A0F5354105397DD10846FEF7FA
:101B50000CFD00210846FEF708FD00210846FEF7AF
:101B600004FD00210846FEF700FD0121A420FEF738
:101B7000FCFC142001F022F94FF41C516020FEF708
:101B8000F4FC40F202210820FEF7EFFC4FF405714F
:101B90003020FEF7EAFC43F215713120FEF7E5FC38
:101BA00040F204613220FEF7E0FC40F6166133207B
:101BB000FEF7DBFC42F211213420FEF7D6FC4FF495
:101BC000A8513520FEF7D1FC48F207513620FEF728
:101BD000CCFC41F207413720FEF7C7FC41F203413C
:101BE0003820FEF7C2FC20213920FEF7BEFC1A2166
:101BF0009020FEF7BAFC00211020FEF7B6FC07216A
:101C00001120FEF7B2FC00211220FEF7AEFC0021ED
:101C10001320FEF7AAFC142001F0D0F84FF4E6617F
:101C20001020FEF7A2FC40F237111120FEF79DFCB8
:101C3000142001F0C3F84FF4DC711220FEF795FC7C
:101C4000142001F0BBF800E086E04FF4706113202F
:101C5000FEF78BFC80212A20FEF787FC48212920F3
:101C6000FEF783FC142001F0A9F84FF480710120E5
:101C7000FEF77BFC4FF4E0610220FEF776FC41F2B8
:101C800038010320FEF771FC40F202210820FEF724
:101C90006CFC00210A20FEF768FC00210C20FEF7F6
:101CA00064FC00210D20FEF760FC30210E20FEF7C1
:101CB0005CFC00215020FEF758FCEF215120FEF77C
:101CC00054FC00215220FEF750FC40F23F115320FB
:101CD000FEF74BFC4FF41C516020FEF746FC01213F
:101CE0006120FEF742FC00216A20FEF73EFC112134
:101CF0009020FEF73AFC4FF4C0619220FEF735FCCD
:101D000040F20241932001E07C000020FEF72DFC10
:101D100002219420FEF729FC142001F04FF8012144
:101D20000720FEF722FC142001F048F8612107206B
:101D3000FEF71BFC40F273110720FEF716FC002192
:101D40002020FEF712FC00212120FEF70EFC2221AC
:101D50000020FEF70AFC11E3FE488088A0F545410B
:101D600005397DD10846FEF700FC00210846FEF744
:101D7000FCFB142001F022F800210846FEF7F5FBD9
:101D800000210846FEF7F1FB00210846FEF7EDFBB7
:101D900000210846FEF7E9FB0121A420FEF7E5FB40
:101DA000142001F00BF84FF41C516020FEF7DDFB0E
:101DB00040F606010820FEF7D8FB40F20371302000
:101DC000FEF7D3FB01213120FEF7CFFB04213220A7
:101DD000FEF7CBFB4FF481713320FEF7C6FB4FF4C7
:101DE00040713420FEF7C1FB40F203113520FEF7AD
:101DF000BCFB1F213620FEF7B8FB40F203713720F1
:101E0000FEF7B3FB01213820FEF7AFFB0421392098
:101E1000FEF7ABFB15219020FEF7A7FB4FF4826184
:101E20001020FEF7A2FB40F247211120FEF79DFB98
:101E30004FF4DE711220FEF798FB4FF4606113201F
:101E4000FEF793FB782000F0B9FF4FF4807101207A
:101E5000FEF78BFB4FF400710220FEF786FB00E0DB
:101E600050E041F230010320FEF77FFB08210A20F9
:101E7000FEF77BFB00210C20FEF777FB20210E20D4
:101E8000FEF773FB00210F20FEF76FFB00212020DF
:101E9000FEF76BFB00212120FEF767FB3D212A2086
:101EA000FEF763FB142000F089FF2D212920FEF7A7
:101EB0005CFB00215020FEF758FB4DF2EF01512052
:101EC000FEF753FB00215220FEF74FFB40F23F117B
:101ED0005320FEF74AFB00216120FEF746FB00215C
:101EE0006A20FEF742FB4FF440719220FEF73DFB63
:101EF00005219320FEF739FB4FF480710720FEF790
:101F000034FB3BE293488088A0F5094189397DD1B3
:101F100001210020FEF729FB4AF6A4010320FEF769
:101F200024FB00210C20FEF720FB40F60C010D20C5
:101F3000FEF71BFB4FF42C510E20FEF716FBB021D1
:101F40001E20FEF712FB42F63F310120FEF70DFB8B
:101F50004FF4C0610220FEF708FB00211020FEF7BD
:101F600004FB46F278011120FEF7FFFA002105205C
:101F7000FEF7FBFA00210620FEF7F7FA4EF61C7179
:101F80001620FEF7F2FA03211720FEF7EEFA40F2D0
:101F900033210720FEF7E9FA00210B20FEF7E5FACE
:101FA00000210F20FEF7E1FA00214120FEF7DDFAC3
:101FB00000214220FEF7D9FA00214820FEF7D5FA89
:101FC00040F23F114920FEF7D0FA00214A20FEF7E7
:101FD000CCFA00214B20FEF7C8FA4FF46F414420A1
:101FE000FEF7C3FA00214520FEF7BFFA40F23F1189
:101FF0004620FEF7BAFA40F207713020FEF7B5FA34
:102000004FF401713120FEF7B0FA00E03DE04FF4EB
:1020100001713220FEF7A9FA40F202513320FEF797
:10202000A4FA40F207513420FEF79FFA4FF40171F1
:102030003520FEF79AFA4FF401713620FEF795FA33
:1020400040F202513720FEF790FA40F202313A2076
:10205000FEF78BFA40F202313B20FEF786FA0021B0
:102060002320FEF782FA00212420FEF77EFA4FF4A7
:1020700000412520FEF779FA00214F20FEF775FA7E
:1020800000214E20FEF771FA78E132488088A0F5F1
:102090008A4131395DD101210020FEF766FA0A201C
:1020A00000F08CFE41F228611020FEF75EFA0E214E
:1020B0001220FEF75AFA40F639211320FEF755FA9E
:1020C0000A2000F07BFE40211120FEF74EFA50213D
:1020D0001520FEF74AFA0A2000F070FE1E21122099
:1020E000FEF743FA0A2000F069FE4FF4B1511020C8
:1020F000FEF73BFA42F639211320FEF736FA0A20A2
:1021000000F05CFE4FF480710120FEF72EFA4FF4D0
:1021100040710220FEF729FA41F238010320FEF750
:1021200024FA40F202210820FEF71FFA08210A20B3
:10213000FEF71BFA00213020FEF717FA40F20241A9
:102140003120FEF712FA4FF483713220FEF70DFAB8
:1021500002E05EE07C00002040F203513320FEF7F5
:1021600004FA4FF482713420FEF7FFF940F2013196
:102170003520FEF7FAF940F207713620FEF7F5F93F
:1021800040F205313720FEF7F0F94FF402713820A4
:10219000FEF7EBF940F60B713920FEF7E6F9022164
:1021A0004120FEF7E2F94FF41C516020FEF7DDF903
:1021B00001216120FEF7D9F94FF404719020FEF758
:1021C000D4F94FF485719220FEF7CFF904219320C2
:1021D000FEF7CBF94FF48071A020FEF7C6F901217C
:1021E0000720FEF7C2F921210720FEF7BEF92321BF
:1021F0000720FEF7BAF933210720FEF7B6F940F2BF
:1022000033110720FEF7B1F90021A020FEF7ADF948
:10221000B4E0FB488088A0F58A413539F8D13021F7
:102220001520FEF7A2F910219A20FEF79EF9202131
:102230001120FEF79AF943F228411020FEF795F994
:1022400002211220FEF791F941F238011320FEF726
:102250008CF9282000F0B2FD12210846FEF785F91E
:10226000282000F0ABFD43F220411020FEF77DF95D
:1022700043F238011320FEF778F9462000F09EFD66
:1022800000213020FEF771F940F202413120FEF7C3
:102290006CF940F207313220FEF767F94FF44171D3
:1022A0003320FEF762F904213420FEF75EF940F294
:1022B00001413520FEF759F940F207713620FEF74B
:1022C00054F940F205313720FEF74FF94FF4C2615F
:1022D0003820FEF74AF94FF4C2613920FEF745F97C
:1022E0004FF480710120FEF740F94FF44071022055
:1022F000FEF73BF941F230010320FEF736F940F6D4
:1023000008010820FEF731F908210A20FEF72DF90F
:102310004FF41C516020FEF728F901216120FEF7DF
:1023200024F94FF49F719020FEF71FF94FF480714C
:102330009220FEF71AF94FF480719320FEF715F9F9
:102340004FF44051A020FEF710F91021A320FEF712
:102350000CF901210720FEF708F921210720FEF7DB
:1023600004F923210720FEF700F933210720FEF7A7
:10237000FCF840F233110720FEF7F7F80020FEF7D3
:1023800047FB01209F4908604FF6FF70FEF7B7FB3F
:102390001FB000BD2DE9F04F05460E461746984682
:1023A000DDF824A04FF0000B781B401C1FFA80FBC7
:1023B000344613E021462846FEF704F9FEF7E5F817
:1023C0004FF0000906E05046FEF7C7F809F101009A
:1023D0001FFA80F9D945F6DB601C84B24445E9DD7B
:1023E000BDE8F08F2DE9F84F07460D469046994617
:1023F000DDF828B0A8EB0700401C80B20090A9EBE4
:102400000500401C1FFA80FA002415E0281981B24B
:102410003846FEF7D7F8FEF7B8F8002607E004FBC9
:102420000A603BF8100078490880701C86B200985A
:102430008642F4DB601C84B25445E7DBBDE8F88FCC
:102440002DE9FF4F84B081468A4600200390029018
:102450000698A0EB09050798A0EB0A06CDF80490B2
:10246000CDF800A0002D01DD012705E00DB9002702
:1024700002E04FF0FF376D42002E02DD4FF0010801
:1024800006E016B94FF0000802E04FF0FF38764240
:10249000B54201DD2C4600E034464FF0000B21E050
:1024A000009A91B2019A90B2FEF764FA0398284418
:1024B00003900298304402900398A04205DD0398EF
:1024C000001B03900198384401900298A04205DD5A
:1024D0000298001B02900098404400900BF101000C
:1024E0001FFA80FB601C8345DADD08B0BDE8F08F81
:1024F000F0B504460D4616461F462B463246294681
:102500002046FFF79DFF3B46224629462046FFF71F
:1025100097FF3B46324639462046FFF791FF3B4640
:10252000324629463046FFF78BFFF0BD2DE9F043D8
:1025300006460F469046002445460320A0EB480976
:102540003CE07A1B91B2321990B2FEF713FA3A1BB3
:1025500091B2721990B2FEF70DFA3A1991B272194E
:1025600090B2FEF707FA7A1991B2321990B2FEF7DB
:1025700001FA7A1991B2321B90B2FEF7FBF93A19BF
:1025800091B2721B90B2FEF7F5F97A1B91B2321B31
:1025900090B2FEF7EFF93A1B91B2721B90B2FEF7C0
:1025A000E9F9641CB9F1000F03DAA000801D814431
:1025B00004E0601B80000A3081446D1EAC42C0DD27
:1025C000BDE8F0832DE9F84F05460F4690461E46BC
:1025D00000970E48B0F80090A8F1200000F0FF0826
:1025E0000A98002859D1002454E00C2E12D108EB8F
:1025F0004800074901EB800010F804A00FE000003C
:102600007C000020808121420008006C1400002022
:10261000F2530008B94800EB081010F804A04FF07E
:10262000000B31E01AF0800F03D0B548A0F80090FD
:1026300003E0B4480088B249088039462846FEF7CE
:1026400099F94FEA4A604FEA106A781C87B2AE489F
:102650000088A84204DCAA48A0F80090BDE8F88FE2
:102660000098381AB0420BD1009F681C85B2A6486A
:102670000088A84203DCA248A0F80090EEE706E03C
:102680000BF1010000F0FF0BBBF1080FCADB00BF2C
:10269000601CC4B2B442A8DB44E0002440E00C2E2D
:1026A00007D108EB4800994901EB800010F804A01D
:1026B00004E0924800EB081010F804A04FF0000B63
:1026C00028E01AF0800F03D039462846FEF752F969
:1026D0004FEA4A604FEA106A781C87B28A484088FD
:1026E000A84203DC8648A0F80090B7E70098381AA3
:1026F000B0420BD1009F681C85B283480088A84275
:1027000003DC7F48A0F80090A8E706E00BF1010089
:1027100000F0FF0BBBF1080FD3DB00BF601CC4B29D
:10272000B442BCDB7648A0F8009000BF96E710B535
:102730000246012000E050430B00A1F10104E1B288
:10274000F9D110BD2DE9FF4F81B0074691461E46D5
:102750000E9D4FF0000A002439E0301B401EC1B22C
:102760000A20FFF7E4FFB9FBF0F00A21B0FBF1F219
:1027700001FB1208BAF1000F16D1701EA04213DD42
:10278000B8F1000F0ED10020AB4605EBDB7149100C
:1027900001FB0471009088B22B4620220299FFF7BA
:1027A00011FF12E04FF0010A0020AB4605EBDB7190
:1027B000491001FB0471009088B208F13001CAB2DF
:1027C0002B460299FFF7FEFE00BF601CC4B2B44264
:1027D000C3DB05B0BDE8F08F2DE9FF4F82B00646A0
:1027E00092461F46DDE90F480020019000254DE08C
:1027F000781B401EC1B20A20FFF799FFBAFBF0F028
:102800000A21B0FBF1F201FB1209019850BB781EBE
:10281000A84227DDB9F1000F22D118F0800F0FD0A8
:1028200008F00100A34604EBDB71491001FB0561D0
:10283000009088B2234630220399FFF7C3FE0EE0D2
:1028400008F00100A34604EBDB71491001FB0561B0
:10285000009088B2234620220399FFF7B3FE13E0CD
:102860000120019008F00100A34604EBDB71491040
:1028700001FB0561009088B209F13001CAB223461C
:102880000399FFF79FFE00BF681CC5B2BD42AFDBD6
:1028900006B0BDE8F08F2DE9F84704460D46904696
:1028A0009946DDE9096704F0FF0A08EB04001FFA06
:1028B00080F809EB05001FFA80F916E0444502DBB9
:1028C0005446A81985B24D4500DB14E00020009065
:1028D0003A78334629462046FFF774FE304606EB29
:1028E000D07104EB61018CB27F1C38787E2802DC49
:1028F00038782028E2DA00BFBDE8F887665800087B
:1029000014000020160000207C000020F253000874
:1029100030B585B005460C460121042001F0DFF9F1
:102920000121082001F0CEF94FF47070ADF81000CD
:1029300028208DF8130004A9CD4800F00DFF4FF4B6
:102940007071CB4800F0B5FFADF80850ADF8044009
:102950000020ADF80A00ADF8060001A9C54801F055
:10296000F1FC0020C44908804880012088800020B4
:10297000C8800881BF4801F078FF0420BE49088064
:1029800000204880012088800020C8800881B94844
:1029900001F06BFF0820B849088000204880012022
:1029A00088800020C8800881B24801F05EFF0C20BA
:1029B000B149088000204880012088800020C8801C
:1029C0000881AC4801F051FF4FF4A06000F0EAFA32
:1029D0001E208DF8000000208DF801008DF8020007
:1029E00001208DF80300684600F0E1FA01221E2163
:1029F000A04802F01EF801219E4801F0FFFF05B03B
:102A000030BD10B59D48007810F0800F4CD10221E8
:102A1000984802F0BCFA002846D00221954802F0FE
:102A2000C7FA9648007810F0400F2ED0914802F077
:102A30008FFA93490880084600889249098888429D
:102A400004DA4FF6FF709049086002E000208E49DA
:102A500008608B4800888B490988401A8A490968B0
:102A600008448A4908600846006800EB00104FF4EB
:102A70007A71B0FBF1F08549086000207F49087049
:102A800000217C4802F06CF90EE07A4802F060FA0E
:102A90007C4908807948007840F040007749087008
:102AA0000221744802F05CF97948007810F0800F38
:102AB00046D104216F4802F06AFA002840D0042170
:102AC0006C4802F075FA7248007810F0400F28D078
:102AD000684802F040FA6F490880084600886E494D
:102AE0000988884204DA4FF6FF706C49086002E0FA
:102AF00000206A4908606748008867490988401AC9
:102B000066490968084466490860084600686549DE
:102B1000086000205E4908700021564802F032F932
:102B20000EE0544802F017FA5B49088058480078D4
:102B300040F040005649087002214E4802F022F948
:102B40005948007810F0800F45D10821494802F01B
:102B50001EFA80B30821474802F02AFA524800784A
:102B600010F0400F28D0434802F0F8F94F49088090
:102B7000084600884E490988884204DA4FF6FF70FB
:102B80004C49086002E000204A4908604748008834
:102B900047490988401A4749096808444649086076
:102BA000084600684549086000203F490870002138
:102BB000304802F001F90EE02E4802F0CFF93C490E
:102BC00008803948007840F04000374908700221F9
:102BD000284802F0F1F83A48007810F0800F45D10B
:102BE0001021244802F0D3F980B31021214802F0CB
:102BF000DFF93348007810F0400F28D01D4802F06C
:102C0000B0F930490880084600882F490988884271
:102C100004DA4FF6FF702D49086002E000202B49CE
:102C200008602848008828490988401A2749096807
:102C300008442749086008460068264908600020C3
:102C40001F49087000210B4802F0D0F80EE0094837
:102C500002F087F91C4908801948007840F04000CC
:102C6000174908700221034802F0C0F810BD0000A7
:102C7000000C0140000800408600002018000020E1
:102C80002E0000202C0000203C0000201C00002012
:102C900019000020320000203000002040000020F9
:102CA00020000020500000201A00002036000020E4
:102CB00034000020440000202400002054000020A4
:102CC0001B0000203A0000203800002048000020AF
:102CD000280000205800002008B50121174800F006
:102CE0000AFE0121112000F0EDFF4FF48070ADF8D5
:102CF000000010208DF8030003208DF802006946C3
:102D00000F4800F029FD8020ADF8000028208DF844
:102D1000030069460A4800F01FFD08BD10B54FF4D6
:102D20008071074800F0C3FD142000F024F84FF430
:102D30008071034800F0BDFD10BD000000023000AE
:102D40000010014010B56FF0040000F07BF92D4831
:102D500000682D49B0FBF1F02C4908700846007856
:102D600000EB4001C1EBC0104FF6FF7101EAC0005B
:102D70002749088010BD0146244A12784A434FF083
:102D8000E0235A6100229A611A46126942F0010258
:102D90001A6100BF4FF0E022106910F0010F02D05D
:102DA00010F4803FF6D04FF0E022126922F00102C9
:102DB0004FF0E0231A6100229A6170470146144ADD
:102DC00012884A434FF0E0235A6100229A611A4662
:102DD000126942F001021A6100BF4FF0E02210694F
:102DE00010F0010F02D010F4803FF6D04FF0E02237
:102DF000126922F001024FF0E0231A6100229A6169
:102E0000704700000000002000127A005C000020E3
:102E10005E00002010B54FF4A06000F0C3F810BDB4
:102E2000014600BF704700BF4A4A128812F0400FA7
:102E3000FAD0C2B2474B1B1D1A80704710B586B03E
:102E40000446012144F2040000F03CFF414800F038
:102E5000A1FF4FF40070ADF8140003208DF81600A8
:102E600018208DF8170005A93B4800F075FC4FF4B9
:102E70008060ADF8140004208DF8170005A93648CD
:102E800000F06AFC25208DF8000003208DF8010079
:102E90008DF8020001208DF80300684600F087F8E5
:102EA00001940020ADF80800ADF80A00ADF80C0060
:102EB000ADF810000C20ADF80E0001A9254800F077
:102EC000ACFF012240F22551224801F03EF80121D9
:102ED000204801F02EF806B010BD10B540F2255183
:102EE0001C4801F017F910B31A4801F093F8C4B266
:102EF0001A48008810F4004F2BD11848008810F4AD
:102F0000804F0CD00A2C03D000201449088020E008
:102F10001248008840F400401049088019E00D2C48
:102F200006D10E48008840F480400C49088010E02B
:102F30000A480088C0F30D0009490C54074800886E
:102F4000401C0649088008460088C72801DD00208B
:102F5000088010BD003801400008014060000020DA
:102F6000900000200948804709480047FEE7FEE737
:102F7000FEE7FEE7FEE7FEE7FEE7FEE7FEE7FEE729
:102F800004480549054A064B70470000090400083B
:102F900031010008B8010020B8070020B803002064
:102FA000B803002031490143314A1160704770B5C0
:102FB000002100230F22C4780CB32D4C246804F4A4
:102FC000E064C4F5E064210AC1F10403CA40447816
:102FD00004FA03F18478144021430901254C067852
:102FE000A155047804F01F050124AC4005786D114B
:102FF0004FF0E02606EB8505C5F8004109E00478AE
:1030000004F01F050124AC401B4D0678761145F8ED
:10301000264070BD194A0A400243154B1B1F1A6017
:10302000704739B1124A121D12680243104B1B1D22
:103030001A6006E00E4A121D126882430C4B1B1DDB
:103040001A607047042808D14FF0E021096941F067
:1030500004014FF0E022116107E04FF0E02109691F
:1030600021F004014FF0E022116170470000FA05E1
:103070000CED00E000E400E080E100E080FFFF1FD5
:1030800030B943F2DB014FF0204242F8201005E056
:1030900043F2D2014FF0204242F820106FF070420C
:1030A000411C4FF0204343F8212011461A4602EB01
:1030B0008002C2F80411704710280AD118214FF07D
:1030C00020421166402151664FF0FC319166D16675
:1030D00010E01821F84A11604FF040014FF02042F3
:1030E000C2F884104FF0FC31F44A11604FF02042D6
:1030F000C2F88C1070471820F14908604FF00000AA
:103100004FF02041C1F8A4004FF0FC30ED490860B9
:1031100001F10401086001F1040108607047D0E981
:1031200001121143C26811430269114342691143FC
:1031300082691143C2691143026A1143426A114311
:10314000826A1143C26A1143026B11434FF020435C
:10315000026843F822108168082908D11A460168DC
:1031600052F8211041F04001026843F82210416BEF
:103170000968426B526841EA0211426B926841EA67
:103180000221426B928941EA0241426B128A41EA72
:103190000251426B127D41EA0261426B9269114316
:1031A0000268521C4FF0204343F82210C16AB1F567
:1031B000804F1AD1816B0968826B526841EA021113
:1031C000826B926841EA0221826B128A41EA0251C3
:1031D000826B127D41EA0261826B9269114302683F
:1031E00003EB8202C2F8041108E06FF070414FF067
:1031F0002043026803EB8202C2F80411704730B525
:10320000002100220023446844F0080485682C4310
:10321000C5682C4305692C43456944EA4524856902
:1032200044EA4531C4692468C5696D6844EA0524E7
:10323000C5692D8944EA0544C5692D7B44EA0562C8
:10324000046A2468056A6D6844EA0524056A2D89C4
:1032500044EA0544056A2D7B44EA05630468102CA2
:1032600005D14FF020442166A266E36607E0924C48
:1032700021604FF02044C4F88820934C236030BD77
:10328000016841F01001426841EA4221826841EA46
:1032900042318B4A1160C1680968C268526841EACC
:1032A0000221C268128941EA0241C268127B41EAE6
:1032B0000261844A1160016909680269526841EA41
:1032C00002210269128941EA02410269127B41EA44
:1032D00002617E4A1160416909684269526841EAA7
:1032E00002214269128941EA02414269127B41EAA4
:1032F00002614FF02042C2F8B01070470021016017
:103300000221416000218160C160016141618161F0
:10331000C16101624FF48051416249008162002124
:10332000C16201630F21426B1160426B5160FF214A
:10333000426B91600F21426BD160426B1161426B15
:1033400051610021426B91610F21826B1160826B90
:103350005160FF21826B91600F21826BD160826B83
:103360001161826B51610021826B91617047102164
:103370000160002141608160C16001614161816142
:10338000FC21C2691160C2695160C2699160C26961
:10339000D160026A1160026A5160026A9160026A39
:1033A000D16070470021016041608160FC21C268EA
:1033B0001160C2685160C2689160C268D1600269E0
:1033C000116002695160026991600269D1604269CD
:1033D000116042695160426991604269D1607047F1
:1033E00051B14FF0204252F8202042F001024FF03C
:1033F000204343F8202009E04FF0204252F82020DB
:10340000334B1A404FF0204343F82020704799B1C6
:10341000102808D14FF02042126E42F004024FF003
:1034200020431A661DE0244A126842F004024FF05D
:103430002043C3F8802014E0102809D14FF0204227
:10344000126E234BDB1E1A404FF020431A6608E031
:10345000194A12681F4B02EA03024FF02043C3F8D7
:103460008020704740B11649096841F004014FF0CF
:103470002042C2F8A01008E011490968154A01EA83
:1034800002014FF02042C2F8A010704799B11028F5
:1034900008D14FF02042126E42F040024FF020431C
:1034A0001A662DE0044A126842F040024FF02043B1
:1034B000C3F8802024E00FE0800000A0880000A076
:1034C000A00000A0A80000A08C0000A0AC0000A0FC
:1034D000FEFF0F00FBFF0F00102808D14FF0204225
:1034E000126E684B1A404FF020431A6608E0664A95
:1034F0001268644B02EA03024FF02043C3F88020B5
:10350000704701460020102903D14FF02042506F30
:1035100001E05E4A1068704710B5F2B1102807D17B
:103520004FF020435B6E0B434FF02044636632E064
:10353000B0F5807F08D1564B1B6843EA01034FF07A
:103540002044C4F8843026E0524B1B6843EA010350
:103550004FF02044C4F8A4301DE0102807D14FF0EC
:1035600020435B6E8B434FF02044636613E0B0F55D
:10357000807F08D1464B1B6823EA01034FF02044AB
:10358000C4F8843007E0434B1B6823EA01034FF083
:103590002044C4F8A43010BD10B50246002000231A
:1035A000102A03D14FF02044636E07E0B2F5807F0C
:1035B00002D1374C236801E0364C23680B4201D01E
:1035C000012000E0002010BD102807D14FF020425C
:1035D000526E8A434FF020435A6613E0B0F5807F65
:1035E00008D12B4A126822EA01024FF02043C3F8A7
:1035F000842007E0274A126822EA01024FF02043A4
:10360000C3F8A420704770B50246002000230024B0
:103610000025102A03D14FF02046736E07E0B2F563
:10362000807F02D11A4E336801E01A4E336803EAF4
:10363000010403EAD10514B10DB1012000E000201E
:1036400070BD102808D14FF02042526E22EAD102FC
:103650004FF020435A6613E0B0F5807F08D10C4A42
:10366000126822EAD1024FF02043C3F8842007E019
:10367000084A126822EAD1024FF02043C3F8A4207E
:1036800070470000BFFF0F00800000A0940000A062
:10369000840000A0A40000A010B50446CA488442DB
:1036A00008D10121042000F027FB0021042000F0B4
:1036B00023FB46E0C548844208D10121082000F0E0
:1036C0001BFB0021082000F017FB3AE0C0488442B1
:1036D00008D10121102000F00FFB0021102000F084
:1036E0000BFB2EE0BB48844208D10121202000F0D2
:1036F00003FB0021202000F0FFFA22E0B6488442BC
:1037000008D10121402000F0F7FA0021402000F00C
:10371000F3FA16E0B148844208D10121802000F07C
:10372000EBFA0021802000F0E7FA0AE0AC4884427E
:1037300007D10121801500F0DFFA0021A01500F06B
:10374000DBFA10BD10B50121084600F0D5FA0021C2
:10375000012000F0D1FA10BD2DE9F041024600250C
:103760000026002000230024002791F803C00CF05D
:103770000F0591F803C01CF0100F03D091F802C0A0
:103780004CEA050591F800C0BCF1000F31D0146877
:1037900000202BE04FF0010C0CFA00F3B1F800C050
:1037A0000CEA03069E4220D183004FF00F0C0CFA66
:1037B00003F7BC4305FA03FC4CEA040491F803C088
:1037C000BCF1280F06D14FF0010C0CFA00FCC2F836
:1037D00014C00AE091F803C0BCF1480F05D14FF0C6
:1037E000010C0CFA00FCC2F810C0401C0828D1D310
:1037F0001460B1F800C0BCF1FF0F34DD5468002044
:103800002EE000F1080C4FF0010808FA0CF3B1F8B3
:1038100000C00CEA03069E4221D183004FF00F0C3A
:103820000CFA03F7BC4305FA03FC4CEA040491F8D4
:1038300003C0BCF1280F05D100F1080C08FA0CF800
:10384000C2F8148091F803C0BCF1480F07D100F111
:10385000080C4FF0010808FA0CF8C2F81080401C60
:103860000828CED35460BDE8F0814FF6FF71018087
:10387000022181700421C1707047024600209368C4
:103880000B4201D0012000E000207047014688680B
:1038900080B2704702460020D3680B4201D001205D
:1038A00000E0002070470146C86880B2704701619F
:1038B0007047416170470AB1016100E041617047A2
:1038C000C16070474FF480320A4382618161826136
:1038D00082698269704702460020424B18684FF6A1
:1038E0008073184040EA021008433E4B186070474E
:1038F0003D49C8617047F0B50A4600230024002105
:10390000002500F00046B6F1004F02D1354EF169B6
:1039100001E0344E7168C0F3034583B200F44016F1
:10392000B6F5401F08D121F070612E4E766826F062
:1039300070662C4F7E6012E000F48016B6F5801F92
:1039400006D1032606FA05F4A14341F0706106E0B2
:10395000460D360103FA06F6B14341F0706122B11B
:10396000460D360103FA06F6314300F00046B6F183
:10397000004F02D11B4EF16101E01A4E7160F0BDA3
:1039800030B500228B071C0F0F2303FA04F2154BEE
:1039900008338C1053F824309343124C08348D10A4
:1039A00044F8253023468C1053F824308C07240F1C
:1039B00000FA04F423430B4C08348D1044F82530EE
:1039C00030BD0A490860704700080140000C014002
:1039D000001001400014014000180140001C01408B
:1039E000002001400000014000002042DC00204295
:1039F000DD48006840F00100DB4908600846406887
:103A0000DA490840D849486008460068D849084063
:103A1000D54908600846006820F480200860084600
:103A2000406820F4FE0048604FF41F008860704733
:103A3000CD49096821F48031CB4A116011460968EB
:103A400021F480211160B0F5803F03D0B0F5802FC4
:103A50000ED106E0C449096841F48031C24A1160C0
:103A600007E0C149096841F4A021BF4A116000E0A4
:103A700000BF00BF704710B50146002200230020A0
:103A80004A11012A02D1B84C236806E0022A02D169
:103A9000B54C236A01E0B44C636A01F01F020124B3
:103AA00094401C4201D0012000E0002010BD38B538
:103AB000002000900024002500BF3120FFF7DBFF2D
:103AC00005460098401C00900098B0F5A06F01D00A
:103AD000002DF2D03120FFF7CEFF08B1012400E025
:103AE0000024204638BD014600209F4A106820F07F
:103AF000F80040EAC100106070479E4908607047B6
:103B000002460020984B586820F47C1042EA0103DA
:103B10001843954B586070479649086670470146B0
:103B20000020914A506820F003000843506070471D
:103B30008D48406800F00C007047014600208A4A1A
:103B4000506820F0F00008435060704701460020A4
:103B5000854A506820F4E060084350607047014691
:103B60000020814A506820F4605040EAC100506053
:103B7000704729B17C4A527A02437B4B5A7204E067
:103B8000794A527A8243784B5A7270477A49086070
:103B9000704701460020744A506820F440400843B2
:103BA000506070470021754A11706F4A82F82010EA
:103BB000012802D0042808D103E001216F4A1170C6
:103BC00004E005216D4A117000E000BF00BF70479E
:103BD0006B49086070476449096A0143624A11628F
:103BE0007047674944390860704730B500210022AA
:103BF000002400235C4D6D6805F00C0121B10429FF
:103C000005D0082923D105E05E4D056022E05D4D19
:103C100005601FE0544D6D6805F47012524D6D68DB
:103C200005F48034022505EB92421CB9564D5543EC
:103C300005600BE04C4D6D6815F4003F03D0524D0C
:103C40005543056002E04F4D5543056002E04D4D80
:103C5000056000BF00BF444D6D6805F0F001090923
:103C60004A4D6B5C0568DD4045603F4D6D6805F46D
:103C7000E061090A454D6B5C4568DD4085603A4D61
:103C80006D6805F46051C90A404D6B5C4568DD40C4
:103C9000C560354D6D6805F44041890B3C4D6B5C4A
:103CA000C568B5FBF3F5056130BD29B12E4A5269EF
:103CB00002432D4B5A6104E02B4A526982432A4B3E
:103CC0005A61704729B1284A92690243264B9A618A
:103CD00004E0254A92698243234B9A61704729B1D7
:103CE000214AD2690243204BDA6104E01E4AD269BC
:103CF00082431D4BDA61704729B11B4AD2680243E7
:103D0000194BDA6004E0184AD2688243164BDA6035
:103D1000704729B1144A12690243134B1A6104E037
:103D2000114A12698243104B1A6170471449403995
:103D3000086070470F49C86470470B49C8717047E5
:103D40000948406A40F08070074948627047014660
:103D50000020054A92680A4201D0012000E00020BC
:103D60007047014988727047001002400000FFF858
:103D7000FFFFF6FE00004242D800424220100240FF
:103D80008004424200127A0000093D0068000020D1
:103D90007800002010B50446FB48844209D1012177
:103DA0008803FFF7A9FF00214FF48040FFF7A4FF2D
:103DB00032E0F648844209D101214804FFF7A9FF07
:103DC00000214FF40030FFF7A4FF25E0F0488442C3
:103DD00009D101218804FFF79CFF00214FF48020C6
:103DE000FFF797FF18E0EB48844209D10121C8048E
:103DF000FFF78FFF00214FF40020FFF78AFF0BE051
:103E0000E548844208D101210805FFF782FF00211F
:103E10004FF48010FFF77DFF10BD2DE9F04786B00D
:103E200005460E460024A24600BFA1460027B089E1
:103E300000B100BF2F462C8A4CF6FF700440F0887A
:103E400004432C82AC894EF6F3100440B0883189CB
:103E50000843718908430443AC81AC8A4FF6FF40A4
:103E60000440B0890443AC8201A8FFF7BEFEC648F7
:103E7000874202D1DDF810A001E0DDF80CA0A8898E
:103E800010F4004F08D00AEBCA0000EB0A103168AA
:103E90004900B0FBF1F807E00AEBCA0000EB0A109A
:103EA00031688900B0FBF1F86420B8FBF0F0040140
:103EB0002009642101FB1089A88910F4004F08D063
:103EC000322000EBC900B0FBF1F000F00700044322
:103ED00008E0322000EB09106421B0FBF1F000F0A3
:103EE0000F0004432C8106B0BDE8F0874FF4165153
:103EF000016000218180C18001810C21418100216C
:103F00008181704710B502460020108A4FF2FF03EE
:103F100018400B884C8823438C882343CC88234348
:103F20001843108210BD0021018041808180C18032
:103F3000704721B1828942F40052828104E0828973
:103F40004DF6FF731A4082817047F0B50346002496
:103F5000002600250020A1F510676A3F00D100BFB0
:103F60001846C1F3421401F01F06012707FA06F5AF
:103F7000012C01D10C3004E0022C01D1103000E002
:103F800014301AB107682F43076002E00768AF4397
:103F90000760F0BD1AB1838A0B43838202E0838AF3
:103FA0008B4383827047028A4FF6F0731A40028275
:103FB000028A0A430282704782894FF2FF731A40D5
:103FC000828182890A438281704721B1828942F0CD
:103FD0000202828104E082894FF6FD731A408281D9
:103FE0007047028A4FF6DF731A400282028A0A4340
:103FF0000282704721B1028A42F48042028204E0C8
:10400000028A4BF6FF731A4002827047C1F308021E
:104010008280704701468888C0F308007047818914
:1040200041F0010181817047028BD2B20283028B81
:1040300042EA012202837047028B02F47F4202832C
:10404000028B0A430283704721B1828A42F0200228
:10405000828204E0828A4FF6DF731A4082827047C0
:1040600021B1828A42F01002828204E0828A4FF6F5
:10407000EF731A408282704721B1828A42F00802AF
:10408000828204E0828A4FF6F7731A408282704778
:1040900021B1828942F40042828103E08289C2F325
:1040A0000E028281704721B1828A42F400628282CC
:1040B00004E0828A4FF2FF731A4082827047828A3C
:1040C0004FF6FB731A408282828A0A4382827047CB
:1040D00021B1828A42F00202828204E0828A4FF693
:1040E000FD731A408282704702460020B1F5007FBE
:1040F00000D100BF13880B4201D0012000E0002056
:10410000704701F40072B2F5007F00D100BFCA43CE
:104110000280704770B5024600240023002500206D
:10412000A1F510666A3E00D100BFC1F3421501F04F
:104130001F03012606FA03F3012D02D196893340AD
:1041400006E0022D02D1168A334001E0968A334000
:104150000C12012606FA04F41688344013B10CB18F
:10416000012000E0002070BD10B500220023A1F561
:1041700010646A3C00D100BF0A1201249440A3B22B
:10418000DC43048010BD00000038014000440040C2
:1041900000480040004C00400050004010B504466C
:1041A000FE48844208D10121C014FFF7A5FD00217B
:1041B000E014FFF7A1FDC4E0B4F1804F08D1012164
:1041C0000846FFF7A6FD00210120FFF7A2FDB8E099
:1041D000F348844208D101210220FFF79AFD002113
:1041E0000220FFF796FDACE0EE48844208D10121A1
:1041F0000420FFF78EFD00210420FFF78AFDA0E0D8
:10420000E948844208D101210820FFF782FD0021FE
:104210000820FFF77EFD94E0E448844208D10121A4
:104220001020FFF776FD00211020FFF772FD88E0D7
:10423000DF48844208D101212020FFF76AFD0021D8
:104240002020FFF766FD7CE0DA48844208D1012196
:104250004014FFF751FD00216014FFF74DFD70E0A1
:10426000D548844209D10121C804FFF745FD00214A
:104270004FF40020FFF740FD63E0D048844209D1AD
:1042800001210805FFF738FD00214FF48010FFF7EA
:1042900033FD56E0CA48844209D101214805FFF7A1
:1042A0002BFD00214FF40010FFF726FD49E0C54823
:1042B000844208D101214020FFF72BFD002140203E
:1042C000FFF727FD3DE0C048844208D1012180204E
:1042D000FFF71FFD00218020FFF71BFD31E0BB48E9
:1042E000844208D101218015FFF713FD0021A0159C
:1042F000FFF70FFD25E0B648844209D101210804EB
:10430000FFF7FAFC00214FF48030FFF7F5FC18E0CE
:10431000B048844209D101214804FFF7EDFC002197
:104320004FF40030FFF7E8FC0BE0AB48844208D1C3
:1043300001218804FFF7E0FC00214FF48020FFF703
:10434000DBFC10BD00220288944B98420ED0994BA2
:1043500098420BD0B0F1804F08D0914B984205D0D5
:10436000904B984202D0904B984204D14FF68F73F5
:104370001A404B881A438D4B984207D08C4B984279
:1043800004D04FF6FF431A40CB881A4302808B8833
:1043900083850B880385814B98420BD0854B9842CF
:1043A00008D08B4B984205D08A4B984202D08A4B5A
:1043B000984201D10B7A038601238382704770B53E
:1043C000002400220023058C4FF6FE76354005843C
:1043D000028C8388048B4FF68F752C40B51E2C40C1
:1043E0000D882C43751E2A400D892A434D882A4387
:1043F0006A4DA8420BD06F4DA84208D0744DA84218
:1044000005D0744DA84202D0734DA84213D14FF687
:10441000F7752A404D892A434FF6FB752A408D884F
:104420002A434FF6FF652B404FF6FF552B408D89F1
:104430002B43CD892B4383800483CD8885860284DA
:1044400070BD70B5002400220023058C4FF6EF7676
:1044500035400584028C8388048B48F6FF752C4018
:104460004FF6FF452C400D884FF6FF7606EA0525EE
:104470002C434FF6DF752A400D8906EA05152A43BD
:104480004D8806EA05152A43444DA84202D0494DFD
:10449000A8421DD14FF67F752A404D894FF6FF7611
:1044A00006EA05152A434FF6BF752A408D8806EAAD
:1044B00005152A434FF6FF352B404FF2FF752B4071
:1044C0008D8906EA85052B43CD8906EA85052B43B0
:1044D00083800483CD880587028470BD70B5002475
:1044E00000220023058C4FF6FF6635400584028CC0
:1044F0008388848B4FF68F752C404FF6FC752C40CB
:104500000D882C434FF6FF552A400D894FF6FF7654
:1045100006EA05252A434D8806EA05252A431F4D4C
:10452000A84202D0234DA8421DD14FF2FF752A4068
:104530004D894FF6FF7606EA05252A434FF6FF35EB
:104540002A408D8806EA05252A434EF6FF752B4042
:104550004DF6FF752B408D8906EA05152B43CD8955
:1045600006EA05152B4383808483CD8885870284E2
:1045700070BD70B5002200230024058C4EF6FF7636
:1045800035400584038C8488828B48F6FF752A4069
:104590004FF6FF452A400D8820E00000002C014026
:1045A0000004004000080040000C004000100040E3
:1045B0000014004000340140004C01400050014014
:1045C0000054014000180040001C00400020004042
:1045D0000040014000440140004801404FF6FF7692
:1045E00006EA05252A434DF6FF752B400D8906EA9C
:1045F00005352B434D8806EA05352B43FA4DA84275
:1046000002D0FA4DA84208D14BF6FF752C408D8997
:104610004FF6FF7606EA85152C4384808283CD8889
:10462000A0F84050038470BD828B4FF2FF331A40D4
:104630008283828B4FF6FF7303EA01231A4382833E
:104640007047F0B50C461546002200210026078C65
:104650004EF6FF7C07EA0C070784828B018C4FF62D
:10466000FF7707EA043640F6FF473A404FF6FF77F8
:1046700007EA05273A434FF6FF7707EA03373A433D
:10468000D94FB8420ED0D94FB8420BD0B0F1804FBD
:1046900008D0D74FB84205D0D64FB84202D0D64F37
:1046A000B84206D14DF6FF77394046F4805739437A
:1046B00005E047F6FF57394044F480573943828379
:1046C0000184F0BD828B4FF6F3731A408283828B94
:1046D0000A4382837047F0B50C461546002200213C
:1046E0000026078C4FF6FF6C07EA0C070784828BC5
:1046F000018C4FF6FF7707EA04264FF60C773A4015
:104700004FF6FF7707EA03172F433A43B64FB842F5
:104710000ED0B64FB8420BD0B0F1804F08D0B44F96
:10472000B84205D0B34FB84202D0B34FB84206D119
:104730004FF6FF57394046F48077394305E04FF292
:10474000FF57394044F48077394382830184F0BDB8
:10475000028B4FF2FF331A400283028B4FF6FF7336
:1047600003EA01231A4302837047F0B50C4615464D
:10477000002200210026078C4FF6EF7C07EA0C0789
:104780000784028B018C4FF6FF7707EA041640F688
:10479000FF473A404FF6FF7707EA03373A434FF6B1
:1047A000FF7707EA05273A438F4FB8420ED08F4F65
:1047B000B8420BD0B0F1804F08D08D4FB84205D031
:1047C0008C4FB84202D08C4FB84206D14FF6DF77FB
:1047D000394046F01007394305E04FF65F7739401E
:1047E00044F01007394302830184F0BD028B4FF679
:1047F000F3731A400283028B0A4302837047F0B5B9
:104800000C46154600220021068C4FF6FE773E40EE
:104810000684028B018C4FF60C7632407E1C06EA31
:1048200003162E433243704EB0420ED06F4EB0424C
:104830000BD0B0F1804F08D06D4EB04205D06D4E18
:10484000B04202D06C4EB04206D14FF6FD763140F8
:1048500044F00106314305E04FF6F576314044F06F
:104860000106314302830184F0BD70B505460C4654
:104870005D4885420ED05D4885420BD0B5F1804F32
:1048800008D05B48854205D05A48854202D05A4834
:10489000854200D100E000BF208850B92389A2885A
:1048A00061882846FFF7ABFFE1882846FFF79EFFA7
:1048B00025E0208804280AD12389A2886188284617
:1048C000FFF753FFE1882846FFF742FF17E02088F3
:1048D00008280AD12389A28861882846FFF7FBFEB1
:1048E000E1882846FFF7EEFE09E02389A288618867
:1048F0002846FFF7A6FEE1882846FFF795FE70BD23
:104900002DE9F04105460C4600260127608808B9CC
:10491000022600E00026A088012801D1022700E03D
:1049200001272088A0B92389A28861882846FFF73B
:1049300066FFE1882846FFF759FF23893A4631464A
:104940002846FFF712FFE1882846FFF701FF13E032
:104950002389A28861882846FFF707FFE188284657
:10496000FFF7F6FE23893A4631462846FFF747FF10
:10497000E1882846FFF73AFFBDE8F0810A884B88B6
:104980001A438B881A43CB881A430B891A434B89E5
:104990001A438B891A43A0F8442070474FF6FF71E1
:1049A000818000210180C180418001727047002117
:1049B000018041808180C180018141818181C181EB
:1049C0007047002101804180012181800021C18048
:1049D000018170470021018041808180C180018177
:1049E0004181818170470000002C0140003401406A
:1049F0000004004000080040000C004021B1028883
:104A000042F00102028004E002884FF6FE731A4071
:104A10000280704731B1B0F8442042F40042A0F85F
:104A2000442005E0B0F84420C2F30E02A0F8442070
:104A300070471AB183890B43838102E083898B43DA
:104A4000838170478182704741EA0203A0F84830B1
:104A500070471AB183890B43838102E083898B43BA
:104A60008381704701894FF6F872114001817047C8
:104A70000A46002101894FF68F73194011430181C5
:104A8000704730B504460D4629462046FFF7F0FF33
:104A9000208940F00700208130BD2DE9F041044617
:104AA0000D4616461F46602D06D13B460122314673
:104AB0002046FFF75AFE05E03B46012231462046DC
:104AC000FFF79DFE29462046FFF7D2FF208940F0E0
:104AD00007002081BDE8F08130B50C460021018936
:104AE000C9B24FF6FF7505EA03251543254329434F
:104AF000018130BD2DE9F04105460E461746984626
:104B0000002443463A4631462846FFF7E5FF2C8904
:104B10004FF6F870044044F007044FF68F700440DD
:104B200044F070042C81BDE8F081F0B504460D46D8
:104B300016461F463B46324629462046FFF7CCFF25
:104B4000208940F480402081F0BD01858282704739
:104B50000A46002101884FF68F73194011430180E6
:104B60007047F0B50C4615461E4600210022002372
:104B70000189028B038C4FF6F877394021434FF6B9
:104B8000FC473A4040F201173A434FF6DD773B408D
:104B90004FF6FF7707EA06172F433B430181028355
:104BA0000384F0BD0A460021018B4FF68F73194034
:104BB0001143018370470A460021018B48F6FF73B9
:104BC00019404FF6FF7303EA02231943018370472C
:104BD0000A460021818B4FF68F7319401143818360
:104BE00070470A460021818B48F6FF7319404FF643
:104BF000FF7303EA022319438183704721B10288BE
:104C000042F08002028004E002884FF67F731A406F
:104C10000280704721B1828842F00402828004E061
:104C200082884FF6FB731A408280704721B18288D8
:104C300042F00802828004E082884FF6F7731A403F
:104C40008280704721B1828842F00102828004E0B4
:104C500082884FF6FE731A40828070470A46002110
:104C6000018B4FF6F77319401143018370470A46D1
:104C70000021018B4FF2FF7319404FF6FF7303EAD7
:104C800002231943018370470A460021818B4FF6A6
:104C9000F77319401143818370470A460021818BC5
:104CA0004FF2FF7319404FF6FF7303EA02231943D3
:104CB000818370470A460021018B4FF6FB73194030
:104CC0001143018370470A460021018B4FF6FF33E1
:104CD00019404FF6FF7303EA02231943018370471B
:104CE0000A460021818B4FF6FB73194011438183E3
:104CF00070470A460021818B4FF6FF3319404FF66B
:104D0000FF7303EA02231943818370470A46002197
:104D1000018B4FF67F7319401143018370470A4698
:104D20000021018BC1F30E014FF6FF7303EA02234A
:104D30001943018370470A460021818B4FF67F7328
:104D400019401143818370470A460021818BC1F3CA
:104D50000E014FF6FF7303EA022319438183704764
:104D60000A460021018C4FF6FD731940114301845E
:104D700070470A460021018C4FF6F7731940114322
:104D8000018470470A460021018C4FF6DF731940F9
:104D90004FF6FF7303EA02131943018470470A4672
:104DA0000021018C4FF67F7319404FF6FF7303EA21
:104DB00002131943018470470A460021018C4FF603
:104DC000FF5319404FF6FF7303EA0223194301848E
:104DD00070470A460021018C4FF2FF7319404FF6CD
:104DE000FF7303EA02231943018470470A46002136
:104DF000018C4DF6FF7319404FF6FF7303EA02333F
:104E000019430184704730B5002301248C40A3B2BC
:104E1000048C9C430484048C02FA01F5ADB22C434B
:104E2000048430BD30B5002304248C40A3B2048C2C
:104E30009C430484048C02FA01F5ADB22C43048433
:104E400030BD70B5034600200024184618300125F7
:104E50008D40ACB21D8CA5431D8409B1082909D130
:104E600000EB6100056825F07005056005681543D5
:104E700005600EE00D1FC5F34E052844056825F4B6
:104E8000E045056005684FF6FF7606EA02263543E1
:104E9000056070BD21B1028842F00202028004E088
:104EA00002884FF6FD731A400280704721B10288D4
:104EB00042F00402028004E002884FF6FB731A40BD
:104EC0000280704721B1828842F08002828004E033
:104ED00082884FF67F731A408280704702884FF6AF
:104EE000F7731A40028002880A4302807047828862
:104EF0004FF68F731A40828082880A4382807047FF
:104F000002894FF6F8731A40028102890A4302812E
:104F1000704702894FF67F731A40028102890A4363
:104F20000281704781847047818570478186704710
:104F30000187704781877047A0F84010704702884A
:104F40004FF6FF431A40028002880A4302807047EE
:104F50000146888E70470146088F70470146888F4A
:104F600070470146B1F8400070470146888C704791
:104F70000146088D704702460020138A0B4201D07B
:104F8000012000E000207047CA430282704730B51C
:104F90000246002000230024158A05EA01039589B2
:104FA00005EA010413B10CB1012000E0002030BD7E
:104FB000CA430282704770470FB4044910B503AA70
:104FC000029800F0C9F910BC5DF814FB64000020E1
:104FD0000FB41CB5074B06AA7B44694600900598A0
:104FE00000F0A1F90020694600F0B0F91CBC5DF8A2
:104FF00014FB00007103000070B504468569006869
:10500000C10601D5302600E02026C00708D070BDBB
:10501000D4E9012130469047206A00F10100206266
:105020006D1EF5D570BD70B5044685690078C00762
:1050300008D170BDD4E9012120209047206A00F1F9
:10504000010020626D1EF5D570BD00002DE9F04114
:105050000646002410687529314616A511D0AFF315
:105060000080002803DAC0F1000013A507E03168D2
:105070008A0701D511A502E0490704D510A501242E
:1050800001E0AFF3008000210A2306F1240707E0C6
:10509000B0FBF3F203FB1200303078541046491C89
:1050A0000028F5D123462A463046BDE8F04100F0FD
:1050B000D9B80000000000002D0000002B00000007
:1050C0002000000070B504460D4621461068AFF37D
:1050D00000802188090502D5104A7A4402E00F4A6F
:1050E0007A440E32002104F1240307E000F00F0699
:1050F0004FEA1010965D5E5401F101010028F5D1D0
:1051000003462078000704D5702D02D009B1113272
:1051100002232046BDE8704000F0A4B8780D0000DE
:105120002DE9F05F894604464FF0000ADFF828B108
:10513000FB44C0F820A02046E168884700287CD0C6
:10514000252806D0D4E901219047206A401C20621E
:10515000F1E700255F462046E1688847202806469B
:1051600008DB312E06D207EB060010F8200C08B140
:105170000543F0E7A80701D525F00405C4F81CA0F5
:105180000027C4F818A02A2E09D0304600F02AF9CA
:1051900038B304EB8708303EC8F8186019E059F8B6
:1051A000041B204604EB87029161E1688847012FC8
:1051B000064618D1E069002820DA25F020051DE018
:1051C000D8F8180000EB800006EB40003038C8F833
:1051D00018002046E1688847064600F003F90028D9
:1051E000EED1012F0AD02E2E08D12046E168884743
:1051F0007F1C0646022F45F02005C4DBA06900286D
:1052000003DA404245F00105A061E80701D025F02E
:10521000100596B1A6F14100192802D8203645F4B0
:1052200000654A463146204625604D46FAF7BAFFEA
:1052300060B1012807D0ED1D00E009E025F007006E
:1052400000F1080977E705F1040974E7304679E7CA
:10525000206ABDE8F09F00004A0D000070477047CB
:10526000704770472DE9F0470D469946924604462F
:1052700000F124080168880604D5E06921F01001D6
:10528000216000E00120A84202DDA0EB050700E05C
:105290000027A16907EB050202EB0900A1EB000062
:1052A000A0612078C00602D42046FFF7A5FE0026A4
:1052B00008E0D4E901211AF806009047206A401C52
:1052C000761C20624E45F4DB2078C0060AD52046C5
:1052D000FFF792FE06E0D4E9012130209047206AD2
:1052E000401C2062381EA7F10107F4DC07E0D4E976
:1052F000012118F805009047206A401C2062281EF2
:10530000A5F10105F3DC2046FFF78DFE20780006AD
:1053100002D50220BDE8F0870120FBE701694A1CA5
:1053200002610878704700B58FB0CDE901310021E6
:10533000059105497944CDE9031011466846FFF708
:10534000EFFE0FB000BD0000E5FFFFFF0A6802F8A6
:10535000010B0A6070470000074B70B50D467B4497
:10536000FFF7E1FF0446284600F008F810B14FF0BF
:10537000FF3070BD204670BDC5DAFFFF007B00F036
:1053800080007047754600F029F8AE460500694672
:10539000534620F00700854618B020B5FDF7F0FD14
:1053A000BDE820404FF000064FF000074FF0000826
:1053B0004FF0000B21F00701AC46ACE8C009ACE8A7
:1053C000C009ACE8C009ACE8C0098D467047044686
:1053D000AFF300802046FAF7FAFE0000004870475D
:1053E0005801002030380A2801D2012070470020DF
:1053F00070470000000000000000000000000000F6
:1054000000003F40000000000000000030004000AD
:1054100030004000000009000BC03D000BC03D0003
:10542000090018C024407FE02240318000001800AD
:1054300024C01B000D803240018003801C402740A7
:105440001C800740004010006000000000000000C9
:1054500000000000000000001F80204040200000ED
:10546000402020401F8000000000090006001F802F
:10547000060009000000040004003F80040004004E
:1054800000000010006000000000000000000400A8
:1054900004000400040004000000000000400000BC
:1054A000000000000000002001C00600380040009D
:1054B00000001F802040204020401F80000000008E
:1054C00010403FC000400000000018C021402240B2
:1054D00024401840000010802040244024401B80BD
:1054E000000002000D0011003FC0014000003C80A0
:1054F000244024402440238000001F802440244076
:105500003440038000003000200027C03800200015
:1055100000001B802440244024401B8000001C000D
:1055200022C0224022401F800000000000000840EE
:105530000000000000000000000004600000000007
:105540000000000004000A00110020804040090013
:105550000900090009000900000000004040208007
:1055600011000A0004001800200023402400180045
:1055700000001F802040274029401F4000000040BD
:1055800007C039000F0001C0004020403FC0244048
:1055900024401B8000001F8020402040204030809D
:1055A000000020403FC0204020401F8000002040DD
:1055B0003FC024402E4030C0000020403FC0244067
:1055C0002E00300000000F00108020402240338069
:1055D000020020403FC0040004003FC020402040A3
:1055E00020403FC0204020400000006020202020BC
:1055F0003FC02000200020403FC024400B0030C0AE
:10560000204020403FC020400040004000C03FC03C
:105610003C0003C03C003FC0000020403FC00C40A5
:1056200023003FC020001F802040204020401F80DA
:10563000000020403FC024402400180000001F80CC
:105640002140214020E01FA0000020403FC0244016
:10565000260019C0004018C0244024402240318058
:105660000000300020403FC02040300000002000FB
:105670003F80004000403F80200020003E0001C0ED
:10568000070038002000380007C03C0007C0380081
:105690000000204039C0060039C020400000200032
:1056A000384007C0384020000000304021C026406C
:1056B000384020C00000000000007FE04020402073
:1056C0000000000070000C0003800040000000009B
:1056D000402040207FE0000000000000200040004B
:1056E000200000000000001000100010001000104A
:1056F000001000000000400000000000000000005A
:1057000002800540054003C0004020003FC0044027
:105710000440038000000000038004400440064071
:10572000000000000380044024403FC0004000000F
:1057300003800540054003400000000004401FC0F6
:10574000244024402000000002E00550055006508F
:10575000042020403FC00440040003C0004000007B
:10576000044027C00040000000000010001004109A
:1057700027E00000000020403FC00140070004C0B7
:105780000440204020403FC000400040000007C0CF
:10579000040007C0040003C00000044007C0044028
:1057A000040003C000400000038004400440038064
:1057B0000000041007F004500440038000000000C3
:1057C00003800440045007F00010044007C002406A
:1057D000040004000000000006400540054004C02D
:1057E0000000000004001F8004400040000004008E
:1057F00007800040044007C000400400070004C0C8
:10580000018006000400060001C0070001C0060078
:105810000000044006C0010006C00440000004105F
:10582000071004E00180060004000000044005C0E9
:105830000640044000000000000004007BE040201F
:105840000000000000000000FFF000000000000069
:1058500040207BE004000000000040008000400089
:1058600020002000400000000000000000000000B8
:105870000000000000000000000000001FCC000C31
:105880000000000000000000080030006000080078
:10589000300060000000022003FC1E20022003FCF8
:1058A0001E200220000000000E1811043FFF10848B
:1058B0000C78000000000F0010840F3800C007783B
:1058C00018840078000000780F8410C411240E980A
:1058D00000E4008400080800680070000000000078
:1058E00000000000000000000000000007E01818A1
:1058F000200440020000000040022004181807E0C5
:105900000000000000000240024001800FF0018012
:105910000240024000000080008000800FF80080FC
:105920000080008000000001000D000E000000005B
:105930000000000000000000008000800080008067
:105940000080008000800000000C000C00000000BF
:105950000000000000000000000600180060018048
:10596000060018002000000007F0080810041004CA
:10597000080807F000000000080408041FFC0004E9
:1059800000040000000000000E0C1014102410444D
:1059900011840E0C000000000C18100411041104F6
:1059A00012880C700000000000E00320042408248A
:1059B0001FFC0024000000001F9810841104110433
:1059C000108810700000000007F00888110411040E
:1059D00018880070000000001C00100010FC13006C
:1059E0001C001000000000000E38114410841084C8
:1059F00011440E38000000000700088C10441044C9
:105A0000088807F00000000000000000030C030CF1
:105A1000000000000000000000000001010600007E
:105A2000000000000000000000800140022004107F
:105A30000808100400000220022002200220022098
:105A400002200220000000001004080804100220B8
:105A500001400080000000000E001200100C106CCD
:105A600010800F00000003E00C1813E4142417C486
:105A7000082807D000000004003C03C41C40074075
:105A800000E4001C000410041FFC110411041104A4
:105A90000E880070000003E00C18100410041004BD
:105AA00010081C10000010041FFC10041004100447
:105AB000080807F0000010041FFC1104110417C4AB
:105AC00010040818000010041FFC1104110017C076
:105AD00010000800000003E00C181004100410442B
